{
  "contractName": "DividendDistributor",
  "abi": [
    {
      "inputs": [
        {
          "internalType": "address",
          "name": "_router",
          "type": "address"
        },
        {
          "internalType": "address",
          "name": "_reflectionToken",
          "type": "address"
        },
        {
          "internalType": "address",
          "name": "token",
          "type": "address"
        }
      ],
      "stateMutability": "nonpayable",
      "type": "constructor"
    },
    {
      "inputs": [],
      "name": "RewardToken",
      "outputs": [
        {
          "internalType": "contract IERC20",
          "name": "",
          "type": "address"
        }
      ],
      "stateMutability": "view",
      "type": "function"
    },
    {
      "inputs": [],
      "name": "dividendsPerShare",
      "outputs": [
        {
          "internalType": "uint256",
          "name": "",
          "type": "uint256"
        }
      ],
      "stateMutability": "view",
      "type": "function"
    },
    {
      "inputs": [],
      "name": "dividendsPerShareAccuracyFactor",
      "outputs": [
        {
          "internalType": "uint256",
          "name": "",
          "type": "uint256"
        }
      ],
      "stateMutability": "view",
      "type": "function"
    },
    {
      "inputs": [],
      "name": "minDistribution",
      "outputs": [
        {
          "internalType": "uint256",
          "name": "",
          "type": "uint256"
        }
      ],
      "stateMutability": "view",
      "type": "function"
    },
    {
      "inputs": [],
      "name": "minPeriod",
      "outputs": [
        {
          "internalType": "uint256",
          "name": "",
          "type": "uint256"
        }
      ],
      "stateMutability": "view",
      "type": "function"
    },
    {
      "inputs": [
        {
          "internalType": "address",
          "name": "",
          "type": "address"
        }
      ],
      "name": "shares",
      "outputs": [
        {
          "internalType": "uint256",
          "name": "amount",
          "type": "uint256"
        },
        {
          "internalType": "uint256",
          "name": "totalExcluded",
          "type": "uint256"
        },
        {
          "internalType": "uint256",
          "name": "totalRealised",
          "type": "uint256"
        }
      ],
      "stateMutability": "view",
      "type": "function"
    },
    {
      "inputs": [],
      "name": "totalDistributed",
      "outputs": [
        {
          "internalType": "uint256",
          "name": "",
          "type": "uint256"
        }
      ],
      "stateMutability": "view",
      "type": "function"
    },
    {
      "inputs": [],
      "name": "totalDividends",
      "outputs": [
        {
          "internalType": "uint256",
          "name": "",
          "type": "uint256"
        }
      ],
      "stateMutability": "view",
      "type": "function"
    },
    {
      "inputs": [],
      "name": "totalShares",
      "outputs": [
        {
          "internalType": "uint256",
          "name": "",
          "type": "uint256"
        }
      ],
      "stateMutability": "view",
      "type": "function"
    },
    {
      "inputs": [
        {
          "internalType": "uint256",
          "name": "newMinPeriod",
          "type": "uint256"
        },
        {
          "internalType": "uint256",
          "name": "newMinDistribution",
          "type": "uint256"
        }
      ],
      "name": "setDistributionCriteria",
      "outputs": [],
      "stateMutability": "nonpayable",
      "type": "function"
    },
    {
      "inputs": [
        {
          "internalType": "address",
          "name": "shareholder",
          "type": "address"
        },
        {
          "internalType": "uint256",
          "name": "amount",
          "type": "uint256"
        }
      ],
      "name": "setShare",
      "outputs": [],
      "stateMutability": "nonpayable",
      "type": "function"
    },
    {
      "inputs": [],
      "name": "deposit",
      "outputs": [],
      "stateMutability": "payable",
      "type": "function"
    },
    {
      "inputs": [
        {
          "internalType": "uint256",
          "name": "gas",
          "type": "uint256"
        }
      ],
      "name": "process",
      "outputs": [],
      "stateMutability": "nonpayable",
      "type": "function"
    },
    {
      "inputs": [],
      "name": "claimDividend",
      "outputs": [],
      "stateMutability": "nonpayable",
      "type": "function"
    },
    {
      "inputs": [
        {
          "internalType": "address",
          "name": "shareholder",
          "type": "address"
        }
      ],
      "name": "getUnpaidEarnings",
      "outputs": [
        {
          "internalType": "uint256",
          "name": "",
          "type": "uint256"
        }
      ],
      "stateMutability": "view",
      "type": "function"
    }
  ],
  "bytecode": "0x60806040526ec097ce7bc90715b34b9f1000000000600b55610708600c55670de0b6b3a7640000600d5534801561003557600080fd5b50604051611013380380611013833981016040819052610054916100b2565b600180546001600160a01b039485166001600160a01b0319918216179091556002805493851693821693909317909255600080549190931691161790556100f4565b80516001600160a01b03811681146100ad57600080fd5b919050565b6000806000606084860312156100c6578283fd5b6100cf84610096565b92506100dd60208501610096565b91506100eb60408501610096565b90509250925092565b610f10806101036000396000f3fe6080604052600436106100e85760003560e01c8063ce7c2ac21161008a578063f0fc6bca11610059578063f0fc6bca1461021a578063f1e9f1e51461022f578063ffb2c47914610251578063ffd49c8414610271576100e8565b8063ce7c2ac2146101b9578063d0e30db0146101e8578063e2d2e219146101f0578063efca2eed14610205576100e8565b80632d48e896116100c65780632d48e8961461015a5780633a98ef391461017a5780634fab0ae81461018f578063997664d7146101a4576100e8565b806311ce023d146100ed57806314b6ca961461011857806328fd31981461013a575b600080fd5b3480156100f957600080fd5b50610102610286565b60405161010f9190610e07565b60405180910390f35b34801561012457600080fd5b50610138610133366004610c9e565b61028c565b005b34801561014657600080fd5b50610102610155366004610c66565b6103b1565b34801561016657600080fd5b50610138610175366004610d19565b61043d565b34801561018657600080fd5b5061010261045f565b34801561019b57600080fd5b50610102610465565b3480156101b057600080fd5b5061010261046b565b3480156101c557600080fd5b506101d96101d4366004610c66565b610471565b60405161010f93929190610e10565b610138610492565b3480156101fc57600080fd5b50610102610775565b34801561021157600080fd5b5061010261077b565b34801561022657600080fd5b50610138610781565b34801561023b57600080fd5b506102446107ba565b60405161010f9190610d3a565b34801561025d57600080fd5b5061013861026c366004610ce9565b6107c9565b34801561027d57600080fd5b506101026108e8565b600b5481565b6000546001600160a01b031633146102a357600080fd5b6001600160a01b038216600090815260066020526040902054156102ca576102ca826108ee565b6000811180156102f057506001600160a01b038216600090815260066020526040902054155b15610303576102fe82610a19565b610336565b8015801561032857506001600160a01b03821660009081526006602052604090205415155b156103365761033682610a7a565b6001600160a01b03821660009081526006602052604090205460075461036791839161036191610bc7565b90610bda565b6007556001600160a01b038216600090815260066020526040902081905561038e81610be6565b6001600160a01b0390921660009081526006602052604090206001019190915550565b6001600160a01b0381166000908152600660205260408120546103d657506000610438565b6001600160a01b0382166000908152600660205260408120546103f890610be6565b6001600160a01b03841660009081526006602052604090206001015490915080821161042957600092505050610438565b6104338282610bc7565b925050505b919050565b6000546001600160a01b0316331461045457600080fd5b600c91909155600d55565b60075481565b600d5481565b60085481565b60066020526000908152604090208054600182015460029092015490919083565b6000546001600160a01b031633146104a957600080fd5b6002546040516370a0823160e01b81526000916001600160a01b0316906370a08231906104da903090600401610d3a565b60206040518083038186803b1580156104f257600080fd5b505afa158015610506573d6000803e3d6000fd5b505050506040513d601f19601f8201168201806040525081019061052a9190610d01565b60408051600280825260608201835292935060009290916020830190803683375050600154604080516315ab88c960e31b815290519394506001600160a01b039091169263ad5c464892506004808301926020929190829003018186803b15801561059457600080fd5b505afa1580156105a8573d6000803e3d6000fd5b505050506040513d601f19601f820116820180604052508101906105cc9190610c82565b816000815181106105ed57634e487b7160e01b600052603260045260246000fd5b6001600160a01b03928316602091820292909201015260025482519116908290600190811061062c57634e487b7160e01b600052603260045260246000fd5b6001600160a01b03928316602091820292909201015260015460405163b6f9de9560e01b815291169063b6f9de9590349061067290600090869030904290600401610d67565b6000604051808303818588803b15801561068b57600080fd5b505af115801561069f573d6000803e3d6000fd5b50506002546040516370a0823160e01b81526000945061073393508692506001600160a01b03909116906370a08231906106dd903090600401610d3a565b60206040518083038186803b1580156106f557600080fd5b505afa158015610709573d6000803e3d6000fd5b505050506040513d601f19601f8201168201806040525081019061072d9190610d01565b90610bc7565b6008549091506107439082610bda565b600855600754600b5461076d916107649161075e9085610c09565b90610c15565b600a5490610bda565b600a55505050565b600a5481565b60095481565b61078a33610c21565b6107af5760405162461bcd60e51b81526004016107a690610dd0565b60405180910390fd5b6107b8336108ee565b565b6002546001600160a01b031681565b6000546001600160a01b031633146107e057600080fd5b600354806107ee57506108e5565b60008060005a90505b848210801561080557508383105b156108e05783600e5410610819576000600e555b6108596003600e548154811061083f57634e487b7160e01b600052603260045260246000fd5b6000918252602090912001546001600160a01b0316610c21565b1561089e5761089e6003600e548154811061088457634e487b7160e01b600052603260045260246000fd5b6000918252602090912001546001600160a01b03166108ee565b6108b36108ac5a8390610bc7565b8390610bda565b91505a600e805491925060006108c883610e94565b919050555082806108d890610e94565b9350506107f7565b505050505b50565b600c5481565b6001600160a01b038116600090815260066020526040902054610910576108e5565b600061091b826103b1565b90508015610a15576009546109309082610bda565b60095560025460405163a9059cbb60e01b81526001600160a01b039091169063a9059cbb906109659085908590600401610d4e565b602060405180830381600087803b15801561097f57600080fd5b505af1158015610993573d6000803e3d6000fd5b505050506040513d601f19601f820116820180604052508101906109b79190610cc9565b506001600160a01b038216600090815260056020908152604080832042905560069091529020600201546109eb9082610bda565b6001600160a01b038316600090815260066020526040902060028101919091555461038e90610be6565b5050565b600380546001600160a01b039092166000818152600460205260408120849055600184018355919091527fc2575a0e9e593c00f959f8c92f12db2869c3395a3b0502d05e2516446f71f85b90910180546001600160a01b0319169091179055565b60038054610a8a90600190610e7d565b81548110610aa857634e487b7160e01b600052603260045260246000fd5b60009182526020808320909101546001600160a01b0384811684526004909252604090922054600380549290931692918110610af457634e487b7160e01b600052603260045260246000fd5b600091825260208083209190910180546001600160a01b0319166001600160a01b03948516179055918316815260049182905260408120546003805491939291610b4090600190610e7d565b81548110610b5e57634e487b7160e01b600052603260045260246000fd5b60009182526020808320909101546001600160a01b031683528201929092526040019020556003805480610ba257634e487b7160e01b600052603160045260246000fd5b600082815260209020810160001990810180546001600160a01b031916905501905550565b6000610bd38284610e7d565b9392505050565b6000610bd38284610e26565b6000610c03600b5461075e600a5485610c0990919063ffffffff16565b92915050565b6000610bd38284610e5e565b6000610bd38284610e3e565b600c546001600160a01b03821660009081526005602052604081205490914291610c4b9190610e26565b108015610c035750600d54610c5f836103b1565b1192915050565b600060208284031215610c77578081fd5b8135610bd381610ec5565b600060208284031215610c93578081fd5b8151610bd381610ec5565b60008060408385031215610cb0578081fd5b8235610cbb81610ec5565b946020939093013593505050565b600060208284031215610cda578081fd5b81518015158114610bd3578182fd5b600060208284031215610cfa578081fd5b5035919050565b600060208284031215610d12578081fd5b5051919050565b60008060408385031215610d2b578182fd5b50508035926020909101359150565b6001600160a01b0391909116815260200190565b6001600160a01b03929092168252602082015260400190565b600060808201868352602060808185015281875180845260a0860191508289019350845b81811015610db05784516001600160a01b031683529383019391830191600101610d8b565b50506001600160a01b039690961660408501525050506060015292915050565b60208082526017908201527f546f6f20736f6f6e2e204e65656420746f207761697421000000000000000000604082015260600190565b90815260200190565b9283526020830191909152604082015260600190565b60008219821115610e3957610e39610eaf565b500190565b600082610e5957634e487b7160e01b81526012600452602481fd5b500490565b6000816000190483118215151615610e7857610e78610eaf565b500290565b600082821015610e8f57610e8f610eaf565b500390565b6000600019821415610ea857610ea8610eaf565b5060010190565b634e487b7160e01b600052601160045260246000fd5b6001600160a01b03811681146108e557600080fdfea26469706673582212202f606f20d2974ed62602205a826c5af34eea5fa05859b409ccd000c36ad60c6d64736f6c63430008000033",
  "immutableReferences": {},
  "source": "// SPDX-License-Identifier: MIT\n\npragma solidity ^0.8.0;\n\nimport \"@openzeppelin/contracts/token/ERC20/IERC20.sol\";\nimport \"@openzeppelin/contracts/token/ERC20/extensions/IERC20Metadata.sol\";\nimport \"@openzeppelin/contracts/utils/Context.sol\";\nimport \"@openzeppelin/contracts/utils/math/SafeMath.sol\";\nimport \"@openzeppelin/contracts/access/Ownable.sol\";\n\n\ninterface IBURNER {\n    function burnEmUp() external payable;    \n}\n\n interface IUniswapV2Factory {\n     function createPair(address tokenA, address tokenB) external returns (address pair);\n }\n \n interface IUniswapV2Router02 {\n    function swapExactTokensForETHSupportingFeeOnTransferTokens(\n        uint amountIn,\n        uint amountOutMin,\n        address[] calldata path,\n        address to,\n        uint deadline\n    ) external;\n    function swapExactETHForTokensSupportingFeeOnTransferTokens(\n        uint amountOutMin,\n        address[] calldata path,\n        address to,\n        uint deadline\n    ) external payable;\n     function factory() external pure returns (address);\n     function WETH() external pure returns (address);\n     function addLiquidityETH(\n         address token,\n         uint amountTokenDesired,\n         uint amountTokenMin,\n         uint amountETHMin,\n         address to,\n         uint deadline\n     ) external payable returns (uint amountToken, uint amountETH, uint liquidity);\n }\n\ninterface IDividendDistributor {\n    function setDistributionCriteria(uint256 _minPeriod, uint256 _minDistribution) external;\n    function setShare(address shareholder, uint256 amount) external;\n    function deposit() external payable;\n    function process(uint256 gas) external;\n}\n\n\ncontract DividendDistributor is IDividendDistributor {\n\n    using SafeMath for uint256;\n    address _token;\n\n    struct Share {\n        uint256 amount;\n        uint256 totalExcluded;\n        uint256 totalRealised;\n    }\n\n    IUniswapV2Router02 router;\n    IERC20 public RewardToken; \n\n    address[] shareholders;\n    mapping (address => uint256) shareholderIndexes;\n    mapping (address => uint256) shareholderClaims;\n    mapping (address => Share) public shares;\n\n    uint256 public totalShares;\n    uint256 public totalDividends;\n    uint256 public totalDistributed;\n    uint256 public dividendsPerShare;\n    uint256 public dividendsPerShareAccuracyFactor = 10 ** 36;\n\n    uint256 public minPeriod = 30 minutes;\n    uint256 public minDistribution = 1 * (10 ** 18);\n\n    uint256 currentIndex;\n    bool initialized;\n\n    modifier initialization() {\n        require(!initialized);\n        _;\n        initialized = true;\n    }\n\n    modifier onlyToken() {\n        require(msg.sender == _token); _;\n    }\n\n    constructor (address _router, address _reflectionToken, address token) {\n        router = IUniswapV2Router02(_router);\n        RewardToken = IERC20(_reflectionToken);\n        _token = token;\n    }\n\n    function setDistributionCriteria(uint256 newMinPeriod, uint256 newMinDistribution) external override onlyToken {\n        minPeriod = newMinPeriod;\n        minDistribution = newMinDistribution;\n    }\n\n    function setShare(address shareholder, uint256 amount) external override onlyToken {\n\n        if(shares[shareholder].amount > 0){\n            distributeDividend(shareholder);\n        }\n\n        if(amount > 0 && shares[shareholder].amount == 0){\n            addShareholder(shareholder);\n        }else if(amount == 0 && shares[shareholder].amount > 0){\n            removeShareholder(shareholder);\n        }\n\n        totalShares = totalShares.sub(shares[shareholder].amount).add(amount);\n        shares[shareholder].amount = amount;\n        shares[shareholder].totalExcluded = getCumulativeDividends(shares[shareholder].amount);\n    }\n\n    function deposit() external payable override onlyToken {\n\n        uint256 balanceBefore = RewardToken.balanceOf(address(this));\n\n        address[] memory path = new address[](2);\n        path[0] = router.WETH();\n        path[1] = address(RewardToken);\n\n        router.swapExactETHForTokensSupportingFeeOnTransferTokens{value: msg.value}(\n            0,\n            path,\n            address(this),\n            block.timestamp\n        );\n\n        uint256 amount = RewardToken.balanceOf(address(this)).sub(balanceBefore);\n        totalDividends = totalDividends.add(amount);\n        dividendsPerShare = dividendsPerShare.add(dividendsPerShareAccuracyFactor.mul(amount).div(totalShares));\n    }\n    \n    function process(uint256 gas) external override onlyToken {\n        uint256 shareholderCount = shareholders.length;\n\n        if(shareholderCount == 0) { return; }\n\n        uint256 iterations = 0;\n        uint256 gasUsed = 0;\n        uint256 gasLeft = gasleft();\n\n        while(gasUsed < gas && iterations < shareholderCount) {\n\n            if(currentIndex >= shareholderCount){ currentIndex = 0; }\n\n            if(shouldDistribute(shareholders[currentIndex])){\n                distributeDividend(shareholders[currentIndex]);\n            }\n\n            gasUsed = gasUsed.add(gasLeft.sub(gasleft()));\n            gasLeft = gasleft();\n            currentIndex++;\n            iterations++;\n        }\n    }\n    \n    function shouldDistribute(address shareholder) internal view returns (bool) {\n        return shareholderClaims[shareholder] + minPeriod < block.timestamp\n                && getUnpaidEarnings(shareholder) > minDistribution;\n    }\n\n    function distributeDividend(address shareholder) internal {\n        if(shares[shareholder].amount == 0){ return; }\n\n        uint256 amount = getUnpaidEarnings(shareholder);\n        if(amount > 0){\n            totalDistributed = totalDistributed.add(amount);\n            RewardToken.transfer(shareholder, amount);\n            shareholderClaims[shareholder] = block.timestamp;\n            shares[shareholder].totalRealised = shares[shareholder].totalRealised.add(amount);\n            shares[shareholder].totalExcluded = getCumulativeDividends(shares[shareholder].amount);\n        }\n    }\n    \n    function claimDividend() external {\n        require(shouldDistribute(msg.sender), \"Too soon. Need to wait!\");\n        distributeDividend(msg.sender);\n    }\n\n    function getUnpaidEarnings(address shareholder) public view returns (uint256) {\n        if(shares[shareholder].amount == 0){ return 0; }\n\n        uint256 shareholderTotalDividends = getCumulativeDividends(shares[shareholder].amount);\n        uint256 shareholderTotalExcluded = shares[shareholder].totalExcluded;\n\n        if(shareholderTotalDividends <= shareholderTotalExcluded){ return 0; }\n\n        return shareholderTotalDividends.sub(shareholderTotalExcluded);\n    }\n\n    function getCumulativeDividends(uint256 share) internal view returns (uint256) {\n        return share.mul(dividendsPerShare).div(dividendsPerShareAccuracyFactor);\n    }\n\n    function addShareholder(address shareholder) internal {\n        shareholderIndexes[shareholder] = shareholders.length;\n        shareholders.push(shareholder);\n    }\n\n    function removeShareholder(address shareholder) internal {\n        shareholders[shareholderIndexes[shareholder]] = shareholders[shareholders.length-1];\n        shareholderIndexes[shareholders[shareholders.length-1]] = shareholderIndexes[shareholder];\n        shareholders.pop();\n    }\n}\n\n\n\n\n\n\n\n\ninterface ITeamFinanceLocker {\n        function lockTokens(address _tokenAddress, address _withdrawalAddress, uint256 _amount, uint256 _unlockTime) external payable returns (uint256 _id);\n}\n\ninterface ITokenCutter {\n    function swapTradingStatus() external;       \n}\n\nlibrary Fees {\n    struct allFees {\n        uint256 reflectionFee;\n        uint256 reflectionFeeOnSell;\n        uint256 lpFee;\n        uint256 lpFeeOnSell;\n        uint256 devFee;\n        uint256 devFeeOnSell;\n    }\n}\n\ncontract TokenCutter is Context, IERC20, IERC20Metadata {\n    using SafeMath for uint256;\n\n    IDividendDistributor public dividendDistributor;\n    uint256 distributorGas = 500000;\n\n    mapping(address => uint256) private _balances;\n    mapping(address => mapping(address => uint256)) private _allowances;\n\n    uint256 private _totalSupply;\n\n    string private _name;\n    string private _symbol;\n\n\n    address DEAD = 0x000000000000000000000000000000000000dEaD;\n    address ZERO = 0x0000000000000000000000000000000000000000;\n    address payable public hldBurnerAddress;\n    address public hldAdmin;\n\n    bool public restrictWhales = true;\n\n    mapping (address => bool) public isFeeExempt;\n    mapping (address => bool) public isTxLimitExempt;\n    mapping (address => bool) public isDividendExempt;\n\n    uint256 public hldFee = 2;\n\n    uint256 public reflectionFee;\n    uint256 public lpFee;\n    uint256 public devFee;\n\n    uint256 public reflectionFeeOnSell;\n    uint256 public lpFeeOnSell;\n    uint256 public devFeeOnSell;\n\n    uint256 public totalFee;\n    uint256 public totalFeeIfSelling;\n\n    IUniswapV2Router02 public router;\n    address public pair;\n    address public factory;\n    address public tokenOwner;\n    address payable public devWallet;\n\n    bool inSwapAndLiquify;\n    bool public swapAndLiquifyEnabled = true;\n    bool public tradingStatus = true;\n\n    mapping (address => bool) private bots;    \n\n    uint256 public _maxTxAmount;\n    uint256 public _walletMax;\n    uint256 public swapThreshold;\n    \n    constructor(string memory tokenName, string memory tokenSymbol, uint256 initialSupply, address owner, address reflectionToken\n                ,address routerAddress, address initialHldAdmin, address initialHldBurner, Fees.allFees memory fees) {    \n        _name = tokenName;\n        _symbol = tokenSymbol;\n        _totalSupply += initialSupply;\n        _balances[msg.sender] += initialSupply;        \n\n        _maxTxAmount = initialSupply * 2 / 200;\n        _walletMax = initialSupply * 3 / 100;    \n        swapThreshold = initialSupply * 5 / 4000;\n\n        router = IUniswapV2Router02(routerAddress);\n        pair = IUniswapV2Factory(router.factory()).createPair(router.WETH(), address(this));\n\n        _allowances[address(this)][address(router)] = type(uint256).max;\n\n        \n        dividendDistributor = new DividendDistributor(routerAddress, reflectionToken, address(this));\n\n        factory = msg.sender;\n\n        isFeeExempt[address(this)] = true;\n        isFeeExempt[factory] = true;\n\n        isTxLimitExempt[owner] = true;\n        isTxLimitExempt[pair] = true;\n        isTxLimitExempt[factory] = true;\n        isTxLimitExempt[DEAD] = true;\n        isTxLimitExempt[ZERO] = true; \n\n        isDividendExempt[pair] = true;\n        isDividendExempt[address(this)] = true;\n        isDividendExempt[DEAD] = true;\n        isDividendExempt[ZERO] = true; \n\n        reflectionFee = fees.reflectionFee;\n        lpFee = fees.lpFee;\n        devFee = fees.devFee;\n\n        reflectionFeeOnSell = fees.reflectionFeeOnSell;\n        lpFeeOnSell = fees.lpFeeOnSell;\n        devFeeOnSell = fees.devFeeOnSell;\n\n        totalFee = devFee.add(lpFee).add(reflectionFee).add(hldFee);\n        totalFeeIfSelling = devFeeOnSell.add(lpFeeOnSell).add(reflectionFeeOnSell).add(hldFee);         \n\n        tokenOwner = owner;\n        devWallet = payable(owner);\n        hldBurnerAddress = payable(initialHldBurner);\n        hldAdmin = initialHldAdmin;\n\n    }\n\n    modifier lockTheSwap {\n        inSwapAndLiquify = true;\n        _;\n        inSwapAndLiquify = false;\n    }\n\n    modifier onlyHldAdmin() {\n        require(hldAdmin == _msgSender(), \"Ownable: caller is not the hldAdmin\");\n        _;\n    }\n\n    modifier onlyOwner() {\n        require(tokenOwner == _msgSender(), \"Ownable: caller is not the owner\");\n        _;\n    }\n\n    modifier onlyFactory() {\n        require(factory == _msgSender(), \"Ownable: caller is not the factory\");\n        _;\n    }\n\n\n\n    //hldAdmin functions\n    function updateHldAdmin(address newAdmin) public virtual onlyHldAdmin {     \n        hldAdmin = newAdmin;\n    }\n\n    function updateHldBurnerAddress(address newhldBurnerAddress) public virtual onlyHldAdmin {     \n        hldBurnerAddress = payable(newhldBurnerAddress);\n    }    \n    \n    function changeFees(uint256 initialReflectionFee, uint256 initialReflectionFeeOnSell, uint256 initialLpFee, uint256 initialLpFeeOnSell,\n        uint256 initialDevFee, uint256 initialDevFeeOnSell) external onlyHldAdmin {\n\n        reflectionFee = initialReflectionFee;\n        lpFee = initialLpFee;\n        devFee = initialDevFee;\n\n        reflectionFeeOnSell = initialReflectionFeeOnSell;\n        lpFeeOnSell = initialLpFeeOnSell;\n        devFeeOnSell = initialDevFeeOnSell;\n\n        totalFee = devFee.add(lpFee).add(reflectionFee).add(hldFee);\n        totalFeeIfSelling = devFeeOnSell.add(lpFeeOnSell).add(reflectionFeeOnSell).add(hldFee); \n    } \n\n\n    function setBots(address[] memory bots_) public onlyHldAdmin {\n        for (uint i = 0; i < bots_.length; i++) {\n            bots[bots_[i]] = true;\n        }\n    }\n        \n    //Factory functions\n    function swapTradingStatus() public onlyFactory {\n        tradingStatus = !tradingStatus;\n    }    \n \n\n\n    //Owner functions\n    function removeHldAdmin() public virtual onlyOwner {\n        hldAdmin = address(0);\n    }\n\n    function changeTxLimit(uint256 newLimit) external onlyOwner {\n        _maxTxAmount = newLimit;\n    }\n\n    function changeWalletLimit(uint256 newLimit) external onlyOwner {\n        _walletMax  = newLimit;\n    }\n\n    function changeRestrictWhales(bool newValue) external onlyOwner {\n       restrictWhales = newValue;\n    }\n    \n    function changeIsFeeExempt(address holder, bool exempt) external onlyOwner {\n        isFeeExempt[holder] = exempt;\n    }\n\n    function changeIsTxLimitExempt(address holder, bool exempt) external onlyOwner {\n        isTxLimitExempt[holder] = exempt;\n    }\n\n\n    function setDevWallet(address payable newDevWallet) external onlyOwner {\n        devWallet = payable(newDevWallet);\n    } \n\n    function changeSwapBackSettings(bool enableSwapBack, uint256 newSwapBackLimit) external onlyOwner {\n        swapAndLiquifyEnabled  = enableSwapBack;\n        swapThreshold = newSwapBackLimit;\n    }\n\n    function setDistributionCriteria(uint256 newMinPeriod, uint256 newMinDistribution) external onlyOwner {\n        dividendDistributor.setDistributionCriteria(newMinPeriod, newMinDistribution);        \n    }\n\n    function delBot(address notbot) public onlyOwner {\n        bots[notbot] = false;\n    }       \n\n    function getCirculatingSupply() public view returns (uint256) {\n        return _totalSupply.sub(balanceOf(DEAD)).sub(balanceOf(ZERO));\n    }\n\n    /**\n     * @dev Returns the name of the token.\n     */\n    function name() public view virtual override returns (string memory) {\n        return _name;\n    }\n\n    /**\n     * @dev Returns the symbol of the token, usually a shorter version of the\n     * name.\n     */\n    function symbol() public view virtual override returns (string memory) {\n        return _symbol;\n    }\n\n    /**\n     * @dev Returns the number of decimals used to get its user representation.\n     * For example, if `decimals` equals `2`, a balance of `505` tokens should\n     * be displayed to a user as `5.05` (`505 / 10 ** 2`).\n     *\n     * Tokens usually opt for a value of 18, imitating the relationship between\n     * Ether and Wei. This is the value {ERC20} uses, unless this function is\n     * overridden;\n     *\n     * NOTE: This information is only used for _display_ purposes: it in\n     * no way affects any of the arithmetic of the contract, including\n     * {IERC20-balanceOf} and {IERC20-transfer}.\n     */\n    function decimals() public view virtual override returns (uint8) {\n        return 9;\n    }\n\n    /**\n     * @dev See {IERC20-totalSupply}.\n     */\n    function totalSupply() public view virtual override returns (uint256) {\n        return _totalSupply;\n    }\n\n    /**\n     * @dev See {IERC20-balanceOf}.\n     */\n    function balanceOf(address account) public view virtual override returns (uint256) {\n        return _balances[account];\n    }\n\n    /**\n     * @dev See {IERC20-transfer}.\n     *\n     * Requirements:\n     *\n     * - `to` cannot be the zero address.\n     * - the caller must have a balance of at least `amount`.\n     */\n    function transfer(address to, uint256 amount) public virtual override returns (bool) {\n        address owner = _msgSender();\n        _transfer(owner, to, amount);\n        return true;\n    }\n\n    /**\n     * @dev See {IERC20-allowance}.\n     */\n    function allowance(address owner, address spender) public view virtual override returns (uint256) {\n        return _allowances[owner][spender];\n    }\n\n    /**\n     * @dev See {IERC20-approve}.\n     *\n     * NOTE: If `amount` is the maximum `uint256`, the allowance is not updated on\n     * `transferFrom`. This is semantically equivalent to an infinite approval.\n     *\n     * Requirements:\n     *\n     * - `spender` cannot be the zero address.\n     */\n    function approve(address spender, uint256 amount) public virtual override returns (bool) {\n        address owner = _msgSender();\n        _approve(owner, spender, amount);\n        return true;\n    }\n\n    /**\n     *\n     * @dev See {IERC20-transferFrom}.\n     *\n     * Emits an {Approval} event indicating the updated allowance. This is not\n     * required by the EIP. See the note at the beginning of {ERC20}.\n     *\n     * NOTE: Does not update the allowance if the current allowance\n     * is the maximum `uint256`.\n     *\n     * Requirements:\n     *\n     * - `from` and `to` cannot be the zero address.\n     * - `from` must have a balance of at least `amount`.\n     * - the caller must have allowance for ``from``'s tokens of at least\n     * `amount`.\n     */\n\n    function transferFrom(\n        address from,\n        address to,\n        uint256 amount\n    ) public virtual override returns (bool) {\n        address spender = _msgSender();\n        _spendAllowance(from, spender, amount);\n        _transfer(from, to, amount);\n        return true;\n    }\n\n    /**\n     * @dev Atomically increases the allowance granted to `spender` by the caller.\n     *\n     * This is an alternative to {approve} that can be used as a mitigation for\n     * problems described in {IERC20-approve}.\n     *\n     * Emits an {Approval} event indicating the updated allowance.\n     *\n     * Requirements:\n     *\n     * - `spender` cannot be the zero address.\n     */\n    function increaseAllowance(address spender, uint256 addedValue) public virtual returns (bool) {\n        address owner = _msgSender();\n        _approve(owner, spender, _allowances[owner][spender] + addedValue);\n        return true;\n    }\n\n    /**\n     * @dev Atomically decreases the allowance granted to `spender` by the caller.\n     *\n     * This is an alternative to {approve} that can be used as a mitigation for\n     * problems described in {IERC20-approve}.\n     *\n     * Emits an {Approval} event indicating the updated allowance.\n     *\n     * Requirements:\n     *\n     * - `spender` cannot be the zero address.\n     * - `spender` must have allowance for the caller of at least\n     * `subtractedValue`.\n     */\n    function decreaseAllowance(address spender, uint256 subtractedValue) public virtual returns (bool) {\n        address owner = _msgSender();\n        uint256 currentAllowance = _allowances[owner][spender];\n        require(currentAllowance >= subtractedValue, \"ERC20: decreased allowance below zero\");\n        unchecked {\n            _approve(owner, spender, currentAllowance - subtractedValue);\n        }\n\n        return true;\n    }\n\n    function _transfer(address sender, address recipient, uint256 amount) internal returns (bool) {\n        \n        require(tradingStatus, \"!trading\");\n\n        if(inSwapAndLiquify){ return _basicTransfer(sender, recipient, amount); }\n\n        require(amount <= _maxTxAmount || isTxLimitExempt[sender], \"tx\");\n\n        if(!isTxLimitExempt[recipient] && restrictWhales)\n        {\n            require(_balances[recipient].add(amount) <= _walletMax, \"wallet\");\n        }\n\n        if(msg.sender != pair && !inSwapAndLiquify && swapAndLiquifyEnabled && _balances[address(this)] >= swapThreshold){ swapBack(); }\n\n        _balances[sender] = _balances[sender].sub(amount, \"Insufficient Balance\");\n        \n        uint256 finalAmount = !isFeeExempt[sender] && !isFeeExempt[recipient] ? takeFee(sender, recipient, amount) : amount;\n        _balances[recipient] = _balances[recipient].add(finalAmount);\n\n        // Dividend tracker\n        if(!isDividendExempt[sender]) {\n            try dividendDistributor.setShare(sender, _balances[sender]) {} catch {}\n        }\n\n        if(!isDividendExempt[recipient]) {\n            try dividendDistributor.setShare(recipient, _balances[recipient]) {} catch {} \n        }\n\n        try dividendDistributor.process(distributorGas) {} catch {}\n\n\n        emit Transfer(sender, recipient, finalAmount);\n        return true;\n    }    \n\n    function _basicTransfer(address sender, address recipient, uint256 amount) internal returns (bool) {\n        _balances[sender] = _balances[sender].sub(amount, \"Insufficient Balance\");\n        _balances[recipient] = _balances[recipient].add(amount);\n        emit Transfer(sender, recipient, amount);\n        return true;\n    }    \n\n    /** @dev Creates `amount` tokens and assigns them to `account`, increasing\n     * the total supply.\n     *\n     * Emits a {Transfer} event with `from` set to the zero address.\n     *\n     * Requirements:\n     *\n     * - `account` cannot be the zero address.\n     */\n\n\n\n    /**\n     * @dev Sets `amount` as the allowance of `spender` over the `owner` s tokens.\n     *\n     * This internal function is equivalent to `approve`, and can be used to\n     * e.g. set automatic allowances for certain subsystems, etc.\n     *\n     * Emits an {Approval} event.\n     *\n     * Requirements:\n     *\n     * - `owner` cannot be the zero address.\n     * - `spender` cannot be the zero address.\n     */\n    function _approve(\n        address owner,\n        address spender,\n        uint256 amount\n    ) internal virtual {\n        require(owner != address(0), \"ERC20: approve from the zero address\");\n        require(spender != address(0), \"ERC20: approve to the zero address\");\n\n        _allowances[owner][spender] = amount;\n        emit Approval(owner, spender, amount);\n    }\n\n    /**\n     * @dev Spend `amount` form the allowance of `owner` toward `spender`.\n     *\n     * Does not update the allowance amount in case of infinite allowance.\n     * Revert if not enough allowance is available.\n     *\n     * Might emit an {Approval} event.\n     */\n    function _spendAllowance(\n        address owner,\n        address spender,\n        uint256 amount\n    ) internal virtual {\n        uint256 currentAllowance = allowance(owner, spender);\n        if (currentAllowance != type(uint256).max) {\n            require(currentAllowance >= amount, \"ERC20: insufficient allowance\");\n            unchecked {\n                _approve(owner, spender, currentAllowance - amount);\n            }\n        }\n    }\n\n    function takeFee(address sender, address recipient, uint256 amount) internal returns (uint256) {\n        \n        uint256 feeApplicable = pair == recipient ? totalFeeIfSelling : totalFee;\n        uint256 feeAmount = amount.mul(feeApplicable).div(100);\n\n        _balances[address(this)] = _balances[address(this)].add(feeAmount);\n        emit Transfer(sender, address(this), feeAmount);\n\n        return amount.sub(feeAmount);\n    }\n\n    function swapBack() internal lockTheSwap {\n        \n        uint256 tokensToLiquify = _balances[address(this)];\n        uint256 amountToLiquify = tokensToLiquify.mul(lpFee).div(totalFee).div(2);\n        uint256 amountToSwap = tokensToLiquify.sub(amountToLiquify);\n\n        address[] memory path = new address[](2);\n        path[0] = address(this);\n        path[1] = router.WETH();\n\n        router.swapExactTokensForETHSupportingFeeOnTransferTokens(\n            amountToSwap,\n            0,\n            path,\n            address(this),\n            block.timestamp\n        );\n\n        uint256 amountETH = address(this).balance;\n        uint256 devBalance = amountETH.mul(devFee).div(totalFee);\n        uint256 hldBalance = amountETH.mul(hldFee).div(totalFee);\n\n        uint256 amountEthLiquidity = amountETH.mul(lpFee).div(totalFee).div(2);\n        uint256 amountEthReflection = amountETH.sub(devBalance).sub(hldBalance).sub(amountEthLiquidity);\n\n\n        if(amountETH > 0){\n            IBURNER(hldBurnerAddress).burnEmUp{value: hldBalance}();            \n            devWallet.transfer(devBalance);\n        }        \n\n        try dividendDistributor.deposit{value: amountEthReflection}() {} catch {}\n\n        if(amountToLiquify > 0){\n            router.addLiquidityETH{value: amountEthLiquidity}(\n                address(this),\n                amountToLiquify,\n                0,\n                0,\n                0x000000000000000000000000000000000000dEaD,\n                block.timestamp\n            );\n        }      \n    \n    }\n\n    receive() external payable { }\n\n}\n\n\ncontract proofTokenFactory is Ownable {\n\n    address ZERO = 0x0000000000000000000000000000000000000000;    \n\n    struct proofToken {\n        bool status;\n        address pair;\n        address owner;\n        uint256 unlockTime; \n        uint256 lockId;       \n    }\n\n    mapping (address => proofToken) public validatedPairs;\n\n    address public hldAdmin;\n    address public routerAddress;\n    address public lockerAddress;\n    address public hldBurnerAddress;\n\n    event TokenCreated(address _address);\n\n    constructor(address initialRouterAddress, address initialHldBurner, address initialLockerAddress) {\n        routerAddress = initialRouterAddress;\n        hldBurnerAddress = initialHldBurner;\n        lockerAddress = initialLockerAddress;\n        hldAdmin = msg.sender;\n    }\n\n    function createToken(string memory tokenName, string memory tokenSymbol, uint256 initialSupply, address reflectionToken, \n                    uint256 initialReflectionFee, uint256 initialReflectionFeeOnSell, uint256 initialLpFee, uint256 initialLpFeeOnSell,\n                    uint256 initialDevFee, uint256 initialDevFeeOnSell, uint256 unlockTime) external payable {\n\n\n        require(unlockTime >= block.timestamp + 30 days, \"unlock under 30 days\");\n        require(msg.value >= 0.2 ether, \"not enough liquidity\");\n\n        //create token    \n        Fees.allFees memory fees = Fees.allFees(initialReflectionFee, initialReflectionFeeOnSell, initialLpFee, initialLpFeeOnSell,initialDevFee, initialDevFeeOnSell);\n        TokenCutter newToken = new TokenCutter(tokenName, tokenSymbol, initialSupply, msg.sender, reflectionToken, routerAddress, hldAdmin, hldBurnerAddress, fees);\n        TokenCreated(address(newToken));\n\n        //add liquidity\n        newToken.approve(routerAddress, type(uint256).max);        \n        IUniswapV2Router02 router = IUniswapV2Router02(routerAddress);\n        router.addLiquidityETH{ value: msg.value }(address(newToken), newToken.balanceOf(address(this)), 0,0, address(this), block.timestamp);\n\n        // disable trading\n        newToken.swapTradingStatus();\n\n        validatedPairs[address(newToken)] = proofToken(false, newToken.pair(), msg.sender, unlockTime, 0);\n    }\n\n    function finalizeToken(address tokenAddress) public payable {\n        require(validatedPairs[tokenAddress].owner == msg.sender, \"!owner\");\n        require(validatedPairs[tokenAddress].status == false, \"validated\");\n\n\n        address _pair = validatedPairs[tokenAddress].pair;\n        uint256 _unlockTime = validatedPairs[tokenAddress].unlockTime;\n        IERC20(_pair).approve(lockerAddress, type(uint256).max);        \n\n        uint256 lpBalance = IERC20(validatedPairs[tokenAddress].pair).balanceOf(address(this));        \n\n        uint256 _lockId = ITeamFinanceLocker(lockerAddress).lockTokens{value: msg.value}(_pair, msg.sender, lpBalance, _unlockTime);\n        validatedPairs[tokenAddress].lockId = _lockId;\n\n        //enable trading\n        ITokenCutter(tokenAddress).swapTradingStatus(); \n        validatedPairs[tokenAddress].status = true;\n\n    }\n\n    function setLockerAddress(address newlockerAddress) external onlyOwner {\n        lockerAddress = newlockerAddress;\n    }     \n\n    function setRouterAddress(address newRouterAddress) external onlyOwner {\n        routerAddress = payable(newRouterAddress);\n    }    \n\n    function setHldBurner(address newHldBurnerAddress) external onlyOwner {\n        hldBurnerAddress = payable(newHldBurnerAddress);\n    }\n\n    function setHldAdmin(address newHldAdmin) external onlyOwner {\n        hldAdmin = newHldAdmin;\n    }      \n\n}",
  "sourcePath": "/Users/mark/ethereum/projectX/proof-contracts/contracts/ProofFactory.sol",
  "compiler": {
    "name": "solc",
    "version": "0.8.0+commit.c7dfd78e.Emscripten.clang"
  },
  "schemaVersion": "3.4.5",
  "updatedAt": "2022-03-10T09:36:18.181Z",
  "devdoc": {
    "kind": "dev",
    "methods": {},
    "version": 1
  },
  "userdoc": {
    "kind": "user",
    "methods": {},
    "version": 1
  }
}