{
  "contractName": "hldBurner",
  "abi": [
    {
      "inputs": [
        {
          "internalType": "address",
          "name": "_token",
          "type": "address"
        },
        {
          "internalType": "address",
          "name": "_router",
          "type": "address"
        }
      ],
      "stateMutability": "nonpayable",
      "type": "constructor"
    },
    {
      "anonymous": false,
      "inputs": [
        {
          "indexed": true,
          "internalType": "address",
          "name": "previousOwner",
          "type": "address"
        },
        {
          "indexed": true,
          "internalType": "address",
          "name": "newOwner",
          "type": "address"
        }
      ],
      "name": "OwnershipTransferred",
      "type": "event"
    },
    {
      "inputs": [],
      "name": "burnThreshold",
      "outputs": [
        {
          "internalType": "uint256",
          "name": "",
          "type": "uint256"
        }
      ],
      "stateMutability": "view",
      "type": "function",
      "constant": true
    },
    {
      "inputs": [],
      "name": "hldToken",
      "outputs": [
        {
          "internalType": "address",
          "name": "",
          "type": "address"
        }
      ],
      "stateMutability": "view",
      "type": "function",
      "constant": true
    },
    {
      "inputs": [],
      "name": "owner",
      "outputs": [
        {
          "internalType": "address",
          "name": "",
          "type": "address"
        }
      ],
      "stateMutability": "view",
      "type": "function",
      "constant": true
    },
    {
      "inputs": [],
      "name": "renounceOwnership",
      "outputs": [],
      "stateMutability": "nonpayable",
      "type": "function"
    },
    {
      "inputs": [
        {
          "internalType": "address",
          "name": "newOwner",
          "type": "address"
        }
      ],
      "name": "transferOwnership",
      "outputs": [],
      "stateMutability": "nonpayable",
      "type": "function"
    },
    {
      "stateMutability": "payable",
      "type": "receive",
      "payable": true
    },
    {
      "inputs": [
        {
          "internalType": "address",
          "name": "_token",
          "type": "address"
        }
      ],
      "name": "changeToken",
      "outputs": [],
      "stateMutability": "nonpayable",
      "type": "function"
    },
    {
      "inputs": [
        {
          "internalType": "uint256",
          "name": "_burnThreshold",
          "type": "uint256"
        }
      ],
      "name": "changeBurnThreshold",
      "outputs": [],
      "stateMutability": "nonpayable",
      "type": "function"
    },
    {
      "inputs": [
        {
          "internalType": "address",
          "name": "_router",
          "type": "address"
        }
      ],
      "name": "changeRouter",
      "outputs": [],
      "stateMutability": "nonpayable",
      "type": "function"
    },
    {
      "inputs": [],
      "name": "withdrawEth",
      "outputs": [],
      "stateMutability": "nonpayable",
      "type": "function"
    },
    {
      "inputs": [],
      "name": "burnEmUp",
      "outputs": [],
      "stateMutability": "payable",
      "type": "function",
      "payable": true
    }
  ],
  "bytecode": "0x608060405266b1a2bc2ec5000060035534801561001b57600080fd5b506040516108d73803806108d783398101604081905261003a916100eb565b61004a61004561007b565b61007f565b600180546001600160a01b039384166001600160a01b0319918216179091556002805492909316911617905561011d565b3390565b600080546001600160a01b038381166001600160a01b0319831681178455604051919092169283917f8be0079c531659141344cd1fd0a4f28419497f9722a3daafe3b4186f6b6457e09190a35050565b80516001600160a01b03811681146100e657600080fd5b919050565b600080604083850312156100fd578182fd5b610106836100cf565b9150610114602084016100cf565b90509250929050565b6107ab8061012c6000396000f3fe6080604052600436106100955760003560e01c8063715018a611610059578063715018a61461014d5780638da5cb5b14610162578063a0ef91df14610177578063eac169bf1461018c578063f2fde38b146101ac576100b1565b80630c50f89d146100b65780630d76344e146100c0578063340ac20f146100eb5780634f6d38d01461010b57806366829b161461012d576100b1565b366100b157600354479081106100ae576100ae816101cc565b50005b600080fd5b6100be610346565b005b3480156100cc57600080fd5b506100d561035d565b6040516100e2919061065f565b60405180910390f35b3480156100f757600080fd5b506100be610106366004610608565b61036c565b34801561011757600080fd5b506101206103d6565b6040516100e29190610757565b34801561013957600080fd5b506100be610148366004610608565b6103dc565b34801561015957600080fd5b506100be61043d565b34801561016e57600080fd5b506100d5610488565b34801561018357600080fd5b506100be610497565b34801561019857600080fd5b506100be6101a7366004610647565b610502565b3480156101b857600080fd5b506100be6101c7366004610608565b610546565b6040805160028082526060820183526000926020830190803683375050600254604080516315ab88c960e31b815290519394506001600160a01b039091169263ad5c464892506004808301926020929190829003018186803b15801561023157600080fd5b505afa158015610245573d6000803e3d6000fd5b505050506040513d601f19601f82011682018060405250810190610269919061062b565b8160008151811061028a57634e487b7160e01b600052603260045260246000fd5b6001600160a01b03928316602091820292909201015260018054835192169183919081106102c857634e487b7160e01b600052603260045260246000fd5b6001600160a01b03928316602091820292909201015260025460405163b6f9de9560e01b815291169063b6f9de9590849061031090600090869061dead904290600401610673565b6000604051808303818588803b15801561032957600080fd5b505af115801561033d573d6000803e3d6000fd5b50505050505050565b6003544790811061035a5761035a816101cc565b50565b6001546001600160a01b031681565b6103746105b4565b6001600160a01b0316610385610488565b6001600160a01b0316146103b45760405162461bcd60e51b81526004016103ab90610722565b60405180910390fd5b600280546001600160a01b0319166001600160a01b0392909216919091179055565b60035481565b6103e46105b4565b6001600160a01b03166103f5610488565b6001600160a01b03161461041b5760405162461bcd60e51b81526004016103ab90610722565b600180546001600160a01b0319166001600160a01b0392909216919091179055565b6104456105b4565b6001600160a01b0316610456610488565b6001600160a01b03161461047c5760405162461bcd60e51b81526004016103ab90610722565b61048660006105b8565b565b6000546001600160a01b031690565b61049f6105b4565b6001600160a01b03166104b0610488565b6001600160a01b0316146104d65760405162461bcd60e51b81526004016103ab90610722565b60405133904780156108fc02916000818181858888f1935050505015801561035a573d6000803e3d6000fd5b61050a6105b4565b6001600160a01b031661051b610488565b6001600160a01b0316146105415760405162461bcd60e51b81526004016103ab90610722565b600355565b61054e6105b4565b6001600160a01b031661055f610488565b6001600160a01b0316146105855760405162461bcd60e51b81526004016103ab90610722565b6001600160a01b0381166105ab5760405162461bcd60e51b81526004016103ab906106dc565b61035a816105b8565b3390565b600080546001600160a01b038381166001600160a01b0319831681178455604051919092169283917f8be0079c531659141344cd1fd0a4f28419497f9722a3daafe3b4186f6b6457e09190a35050565b600060208284031215610619578081fd5b813561062481610760565b9392505050565b60006020828403121561063c578081fd5b815161062481610760565b600060208284031215610658578081fd5b5035919050565b6001600160a01b0391909116815260200190565b600060808201868352602060808185015281875180845260a0860191508289019350845b818110156106bc5784516001600160a01b031683529383019391830191600101610697565b50506001600160a01b039690961660408501525050506060015292915050565b60208082526026908201527f4f776e61626c653a206e6577206f776e657220697320746865207a65726f206160408201526564647265737360d01b606082015260800190565b6020808252818101527f4f776e61626c653a2063616c6c6572206973206e6f7420746865206f776e6572604082015260600190565b90815260200190565b6001600160a01b038116811461035a57600080fdfea2646970667358221220bdf0db0ec9d79723af38dbb20a4f4e48c3e7b4b9fb7efe90cbdae8d84123bd0e64736f6c63430008000033",
  "immutableReferences": {},
  "source": "// SPDX-License-Identifier: MIT\n\npragma solidity ^0.8.0;\n\nimport \"@openzeppelin/contracts/utils/math/SafeMath.sol\";\nimport \"@openzeppelin/contracts/access/Ownable.sol\";\n\n interface IUniswapV2Router02 {\n    function swapExactTokensForETHSupportingFeeOnTransferTokens(\n        uint amountIn,\n        uint amountOutMin,\n        address[] calldata path,\n        address to,\n        uint deadline\n    ) external;\n    function swapExactETHForTokensSupportingFeeOnTransferTokens(\n        uint amountOutMin,\n        address[] calldata path,\n        address to,\n        uint deadline\n    ) external payable;\n     function factory() external pure returns (address);\n     function WETH() external pure returns (address);\n     function addLiquidityETH(\n         address token,\n         uint amountTokenDesired,\n         uint amountTokenMin,\n         uint amountETHMin,\n         address to,\n         uint deadline\n     ) external payable returns (uint amountToken, uint amountETH, uint liquidity);\n }\n \n\ncontract hldBurner is Ownable {\n    using SafeMath for uint256;\n\n    address public hldToken;\n    IUniswapV2Router02 router;\n\n    uint256 public burnThreshold = 5 *(10 ** 16);\n    \n    constructor(address _token, address _router){\n    \thldToken = _token;\n        router = IUniswapV2Router02(_router);    \t\n    }\n    \n\n    function _burnTokens(uint256 ethBalance) internal {\n        address[] memory path = new address[](2);\n        path[0] = router.WETH();\n        path[1] = hldToken;\n\n        router.swapExactETHForTokensSupportingFeeOnTransferTokens{value: ethBalance}(\n            0,\n            path,\n            0x000000000000000000000000000000000000dEaD,\n            block.timestamp\n        ); \n    }\n    function changeToken(address _token) public virtual onlyOwner {\n    \thldToken = _token;\n    }\n\n    function changeBurnThreshold(uint256 _burnThreshold)  public virtual onlyOwner {\n    \tburnThreshold = _burnThreshold;\n    }\n\n    function changeRouter(address _router)  public virtual onlyOwner {\n        router = IUniswapV2Router02(_router);\n    }\n\n    function withdrawEth()  public virtual onlyOwner {\n\t\tpayable(msg.sender).transfer(address(this).balance);\n    }\n\n    function burnEmUp()  external payable virtual  {\n        uint256 ethBalance = address(this).balance;\n        if (ethBalance >= burnThreshold) {\n            _burnTokens(ethBalance);\n        }\n    }\n\n    receive() external payable {\n        uint256 ethBalance = address(this).balance;\n        if (ethBalance >= burnThreshold) {\n       \t    _burnTokens(ethBalance);\n        }\n    }\n\n}\n\n",
  "sourcePath": "/Users/mark/ethereum/projectX/proof-contracts/contracts/HldBurner.sol",
  "compiler": {
    "name": "solc",
    "version": "0.8.0+commit.c7dfd78e.Emscripten.clang"
  },
  "schemaVersion": "3.4.5",
  "updatedAt": "2022-03-10T09:36:24.287Z",
  "networkType": "ethereum",
  "devdoc": {
    "kind": "dev",
    "methods": {
      "owner()": {
        "details": "Returns the address of the current owner."
      },
      "renounceOwnership()": {
        "details": "Leaves the contract without owner. It will not be possible to call `onlyOwner` functions anymore. Can only be called by the current owner. NOTE: Renouncing ownership will leave the contract without an owner, thereby removing any functionality that is only available to the owner."
      },
      "transferOwnership(address)": {
        "details": "Transfers ownership of the contract to a new account (`newOwner`). Can only be called by the current owner."
      }
    },
    "version": 1
  },
  "userdoc": {
    "kind": "user",
    "methods": {},
    "version": 1
  }
}