{
  "contractName": "proofTokenFactory",
  "abi": [
    {
      "inputs": [
        {
          "internalType": "address",
          "name": "initialRouterAddress",
          "type": "address"
        },
        {
          "internalType": "address",
          "name": "initialHldBurner",
          "type": "address"
        },
        {
          "internalType": "address",
          "name": "initialLockerAddress",
          "type": "address"
        }
      ],
      "stateMutability": "nonpayable",
      "type": "constructor"
    },
    {
      "anonymous": false,
      "inputs": [
        {
          "indexed": true,
          "internalType": "address",
          "name": "previousOwner",
          "type": "address"
        },
        {
          "indexed": true,
          "internalType": "address",
          "name": "newOwner",
          "type": "address"
        }
      ],
      "name": "OwnershipTransferred",
      "type": "event"
    },
    {
      "anonymous": false,
      "inputs": [
        {
          "indexed": false,
          "internalType": "address",
          "name": "_address",
          "type": "address"
        }
      ],
      "name": "TokenCreated",
      "type": "event"
    },
    {
      "inputs": [],
      "name": "hldAdmin",
      "outputs": [
        {
          "internalType": "address",
          "name": "",
          "type": "address"
        }
      ],
      "stateMutability": "view",
      "type": "function",
      "constant": true
    },
    {
      "inputs": [],
      "name": "hldBurnerAddress",
      "outputs": [
        {
          "internalType": "address",
          "name": "",
          "type": "address"
        }
      ],
      "stateMutability": "view",
      "type": "function",
      "constant": true
    },
    {
      "inputs": [],
      "name": "lockerAddress",
      "outputs": [
        {
          "internalType": "address",
          "name": "",
          "type": "address"
        }
      ],
      "stateMutability": "view",
      "type": "function",
      "constant": true
    },
    {
      "inputs": [],
      "name": "owner",
      "outputs": [
        {
          "internalType": "address",
          "name": "",
          "type": "address"
        }
      ],
      "stateMutability": "view",
      "type": "function",
      "constant": true
    },
    {
      "inputs": [],
      "name": "renounceOwnership",
      "outputs": [],
      "stateMutability": "nonpayable",
      "type": "function"
    },
    {
      "inputs": [],
      "name": "routerAddress",
      "outputs": [
        {
          "internalType": "address",
          "name": "",
          "type": "address"
        }
      ],
      "stateMutability": "view",
      "type": "function",
      "constant": true
    },
    {
      "inputs": [
        {
          "internalType": "address",
          "name": "newOwner",
          "type": "address"
        }
      ],
      "name": "transferOwnership",
      "outputs": [],
      "stateMutability": "nonpayable",
      "type": "function"
    },
    {
      "inputs": [
        {
          "internalType": "address",
          "name": "",
          "type": "address"
        }
      ],
      "name": "validatedPairs",
      "outputs": [
        {
          "internalType": "bool",
          "name": "status",
          "type": "bool"
        },
        {
          "internalType": "address",
          "name": "pair",
          "type": "address"
        },
        {
          "internalType": "address",
          "name": "owner",
          "type": "address"
        },
        {
          "internalType": "uint256",
          "name": "unlockTime",
          "type": "uint256"
        }
      ],
      "stateMutability": "view",
      "type": "function",
      "constant": true
    },
    {
      "inputs": [
        {
          "internalType": "string",
          "name": "tokenName",
          "type": "string"
        },
        {
          "internalType": "string",
          "name": "tokenSymbol",
          "type": "string"
        },
        {
          "internalType": "uint256",
          "name": "initialSupply",
          "type": "uint256"
        },
        {
          "internalType": "address",
          "name": "reflectionToken",
          "type": "address"
        },
        {
          "internalType": "uint256",
          "name": "initialReflectionFee",
          "type": "uint256"
        },
        {
          "internalType": "uint256",
          "name": "initialReflectionFeeOnSell",
          "type": "uint256"
        },
        {
          "internalType": "uint256",
          "name": "initialLpFee",
          "type": "uint256"
        },
        {
          "internalType": "uint256",
          "name": "initialLpFeeOnSell",
          "type": "uint256"
        },
        {
          "internalType": "uint256",
          "name": "initialDevFee",
          "type": "uint256"
        },
        {
          "internalType": "uint256",
          "name": "initialDevFeeOnSell",
          "type": "uint256"
        },
        {
          "internalType": "uint256",
          "name": "unlockTime",
          "type": "uint256"
        }
      ],
      "name": "createToken",
      "outputs": [],
      "stateMutability": "payable",
      "type": "function",
      "payable": true
    },
    {
      "inputs": [
        {
          "internalType": "address",
          "name": "tokenAddress",
          "type": "address"
        }
      ],
      "name": "finalizeToken",
      "outputs": [],
      "stateMutability": "payable",
      "type": "function",
      "payable": true
    },
    {
      "inputs": [
        {
          "internalType": "address",
          "name": "newlockerAddress",
          "type": "address"
        }
      ],
      "name": "setLockerAddress",
      "outputs": [],
      "stateMutability": "nonpayable",
      "type": "function"
    },
    {
      "inputs": [
        {
          "internalType": "address",
          "name": "newRouterAddress",
          "type": "address"
        }
      ],
      "name": "setRouterAddress",
      "outputs": [],
      "stateMutability": "nonpayable",
      "type": "function"
    },
    {
      "inputs": [
        {
          "internalType": "address",
          "name": "newHldBurnerAddress",
          "type": "address"
        }
      ],
      "name": "setHldBurner",
      "outputs": [],
      "stateMutability": "nonpayable",
      "type": "function"
    },
    {
      "inputs": [
        {
          "internalType": "address",
          "name": "newHldAdmin",
          "type": "address"
        }
      ],
      "name": "setHldAdmin",
      "outputs": [],
      "stateMutability": "nonpayable",
      "type": "function"
    }
  ],
  "bytecode": "0x6080604052600180546001600160a01b03191690553480156200002157600080fd5b50604051620052b2380380620052b2833981016040819052620000449162000119565b6200005862000052620000a8565b620000ac565b600480546001600160a01b039485166001600160a01b0319918216179091556006805493851693821693909317909255600580549190931690821617909155600380549091163317905562000162565b3390565b600080546001600160a01b038381166001600160a01b0319831681178455604051919092169283917f8be0079c531659141344cd1fd0a4f28419497f9722a3daafe3b4186f6b6457e09190a35050565b80516001600160a01b03811681146200011457600080fd5b919050565b6000806000606084860312156200012e578283fd5b6200013984620000fc565b92506200014960208501620000fc565b91506200015960408501620000fc565b90509250925092565b61514080620001726000396000f3fe608060405260043610620000f25760003560e01c8063715018a6116200008b578063e6a053d01162000061578063e6a053d01462000246578063ede1588f146200026b578063f2fde38b1462000283578063f4f1af3a14620002a857620000f2565b8063715018a614620001fe578063774b584714620002165780638da5cb5b146200022e57620000f2565b80633268cc5611620000cd5780633268cc5614620001755780633675f29b146200019c57806341cb87fc14620001b45780635f1845bc14620001d957620000f2565b80630c5934e614620000f75780632dcacf441462000110578063318c359b1462000150575b600080fd5b6200010e6200010836600462000e5b565b620002bf565b005b3480156200011d57600080fd5b50620001356200012f36600462000df4565b6200072e565b60405162000147949392919062001046565b60405180910390f35b3480156200015d57600080fd5b506200010e6200016f36600462000df4565b62000766565b3480156200018257600080fd5b506200018d620007ce565b60405162000147919062000fb5565b348015620001a957600080fd5b506200018d620007dd565b348015620001c157600080fd5b506200010e620001d336600462000df4565b620007ec565b348015620001e657600080fd5b506200010e620001f836600462000df4565b62000854565b3480156200020b57600080fd5b506200010e620008bc565b3480156200022357600080fd5b506200018d62000910565b3480156200023b57600080fd5b506200018d6200091f565b3480156200025357600080fd5b506200010e6200026536600462000df4565b6200092e565b3480156200027857600080fd5b506200018d62000996565b3480156200029057600080fd5b506200010e620002a236600462000df4565b620009a5565b6200010e620002b936600462000df4565b62000a22565b620002ce4262278d0062001239565b811015620002f95760405162461bcd60e51b8152600401620002f090620011b6565b60405180910390fd5b67016345785d8a0000341015620003245760405162461bcd60e51b8152600401620002f0906200111f565b60006040518060c0016040528089815260200188815260200187815260200186815260200185815260200184815250905060008c8c8c338d600460009054906101000a90046001600160a01b0316600360009054906101000a90046001600160a01b0316600660009054906101000a90046001600160a01b031689604051620003ad9062000d4b565b620003c1999897969594939291906200106d565b604051809103906000f080158015620003de573d6000803e3d6000fd5b5090507f2e2b3f61b70d2d131b2a807371103cc98d51adcaa5e9a8f9c32658ad8426e74e8160405162000412919062000fb5565b60405180910390a16004805460405163095ea7b360e01b81526001600160a01b038085169363095ea7b3936200045093921691600019910162000ff2565b602060405180830381600087803b1580156200046b57600080fd5b505af115801562000480573d6000803e3d6000fd5b505050506040513d601f19601f82011682018060405250810190620004a6919062000e39565b50600480546040516370a0823160e01b81526001600160a01b0391821692839263f305d71992349287928316916370a0823191620004e79130910162000fb5565b60206040518083038186803b1580156200050057600080fd5b505afa15801562000515573d6000803e3d6000fd5b505050506040513d601f19601f820116820180604052508101906200053b919062000f20565b60008030426040518863ffffffff1660e01b815260040162000563969594939291906200100b565b6060604051808303818588803b1580156200057d57600080fd5b505af115801562000592573d6000803e3d6000fd5b50505050506040513d601f19601f82011682018060405250810190620005b9919062000f39565b505050816001600160a01b031663fbd757536040518163ffffffff1660e01b8152600401600060405180830381600087803b158015620005f857600080fd5b505af11580156200060d573d6000803e3d6000fd5b505050506040518060800160405280600015158152602001836001600160a01b031663a8aa1b316040518163ffffffff1660e01b815260040160206040518083038186803b1580156200065f57600080fd5b505afa15801562000674573d6000803e3d6000fd5b505050506040513d601f19601f820116820180604052508101906200069a919062000e1a565b6001600160a01b039081168252336020808401919091526040928301979097529384166000908152600280885290829020835181549885015160ff1990991690151517610100600160a81b03191661010098871698909802979097178755908201516001870180546001600160a01b0319169190951617909355606001519390910192909255505050505050505050505050565b600260208190526000918252604090912080546001820154919092015460ff8316926001600160a01b03610100909104811692169084565b6200077062000cf7565b6001600160a01b0316620007836200091f565b6001600160a01b031614620007ac5760405162461bcd60e51b8152600401620002f090620011e4565b600380546001600160a01b0319166001600160a01b0392909216919091179055565b6004546001600160a01b031681565b6005546001600160a01b031681565b620007f662000cf7565b6001600160a01b0316620008096200091f565b6001600160a01b031614620008325760405162461bcd60e51b8152600401620002f090620011e4565b600480546001600160a01b0319166001600160a01b0392909216919091179055565b6200085e62000cf7565b6001600160a01b0316620008716200091f565b6001600160a01b0316146200089a5760405162461bcd60e51b8152600401620002f090620011e4565b600680546001600160a01b0319166001600160a01b0392909216919091179055565b620008c662000cf7565b6001600160a01b0316620008d96200091f565b6001600160a01b031614620009025760405162461bcd60e51b8152600401620002f090620011e4565b6200090e600062000cfb565b565b6006546001600160a01b031681565b6000546001600160a01b031690565b6200093862000cf7565b6001600160a01b03166200094b6200091f565b6001600160a01b031614620009745760405162461bcd60e51b8152600401620002f090620011e4565b600580546001600160a01b0319166001600160a01b0392909216919091179055565b6003546001600160a01b031681565b620009af62000cf7565b6001600160a01b0316620009c26200091f565b6001600160a01b031614620009eb5760405162461bcd60e51b8152600401620002f090620011e4565b6001600160a01b03811662000a145760405162461bcd60e51b8152600401620002f0906200114d565b62000a1f8162000cfb565b50565b6001600160a01b0381811660009081526002602052604090206001015416331462000a615760405162461bcd60e51b8152600401620002f09062001219565b6001600160a01b03811660009081526002602052604090205460ff161562000a9d5760405162461bcd60e51b8152600401620002f09062001193565b6001600160a01b038082166000908152600260208190526040918290208054910154600554925163095ea7b360e01b81526101009092048416939092849263095ea7b39262000af59216906000199060040162000ff2565b602060405180830381600087803b15801562000b1057600080fd5b505af115801562000b25573d6000803e3d6000fd5b505050506040513d601f19601f8201168201806040525081019062000b4b919062000e39565b506001600160a01b038084166000908152600260205260408082205490516370a0823160e01b8152919261010090910416906370a082319062000b9390309060040162000fb5565b60206040518083038186803b15801562000bac57600080fd5b505afa15801562000bc1573d6000803e3d6000fd5b505050506040513d601f19601f8201168201806040525081019062000be7919062000f20565b600554604051633ea99e0f60e11b81529192506001600160a01b031690637d533c1e90349062000c2290879033908790899060040162000fc9565b6020604051808303818588803b15801562000c3c57600080fd5b505af115801562000c51573d6000803e3d6000fd5b50505050506040513d601f19601f8201168201806040525081019062000c78919062000f20565b50836001600160a01b031663fbd757536040518163ffffffff1660e01b8152600401600060405180830381600087803b15801562000cb557600080fd5b505af115801562000cca573d6000803e3d6000fd5b5050506001600160a01b039094166000908152600260205260409020805460ff1916600117905550505050565b3390565b600080546001600160a01b038381166001600160a01b0319831681178455604051919092169283917f8be0079c531659141344cd1fd0a4f28419497f9722a3daafe3b4186f6b6457e09190a35050565b613e80806200128b83390190565b803562000d668162001274565b919050565b600082601f83011262000d7c578081fd5b813567ffffffffffffffff8082111562000d9a5762000d9a6200125e565b604051601f8301601f19168101602001828111828210171562000dc15762000dc16200125e565b60405282815284830160200186101562000dd9578384fd5b82602086016020830137918201602001929092529392505050565b60006020828403121562000e06578081fd5b813562000e138162001274565b9392505050565b60006020828403121562000e2c578081fd5b815162000e138162001274565b60006020828403121562000e4b578081fd5b8151801515811462000e13578182fd5b60008060008060008060008060008060006101608c8e03121562000e7d578687fd5b67ffffffffffffffff808d35111562000e94578788fd5b62000ea38e8e358f0162000d6b565b9b508060208e0135111562000eb6578788fd5b5062000ec98d60208e01358e0162000d6b565b995060408c0135985062000ee060608d0162000d59565b9a9d999c50979a60808101359960a0820135995060c0820135985060e0820135975061010082013596506101208201359550610140909101359350915050565b60006020828403121562000f32578081fd5b5051919050565b60008060006060848603121562000f4e578283fd5b8351925060208401519150604084015190509250925092565b60008151808452815b8181101562000f8e5760208185018101518683018201520162000f70565b8181111562000fa05782602083870101525b50601f01601f19169290920160200192915050565b6001600160a01b0391909116815260200190565b6001600160a01b0394851681529290931660208301526040820152606081019190915260800190565b6001600160a01b03929092168252602082015260400190565b6001600160a01b039687168152602081019590955260408501939093526060840191909152909216608082015260a081019190915260c00190565b93151584526001600160a01b03928316602085015291166040830152606082015260800190565b60006101c0808352620010838184018d62000f67565b9050828103602084015262001099818c62000f67565b91505088604083015260018060a01b038089166060840152808816608084015280871660a084015280861660c084015280851660e0840152508251610100830152602083015161012083015260408301516101408301526060830151610160830152608083015161018083015260a08301516101a08301529a9950505050505050505050565b6020808252601490820152736e6f7420656e6f756768206c697175696469747960601b604082015260600190565b60208082526026908201527f4f776e61626c653a206e6577206f776e657220697320746865207a65726f206160408201526564647265737360d01b606082015260800190565b6020808252600990820152681d985b1a59185d195960ba1b604082015260600190565b602080825260149082015273756e6c6f636b20756e646572203330206461797360601b604082015260600190565b6020808252818101527f4f776e61626c653a2063616c6c6572206973206e6f7420746865206f776e6572604082015260600190565b60208082526006908201526510b7bbb732b960d11b604082015260600190565b600082198211156200125957634e487b7160e01b81526011600452602481fd5b500190565b634e487b7160e01b600052604160045260246000fd5b6001600160a01b038116811462000a1f57600080fdfe60806040526207a120600155600780546001600160a01b031990811661dead17909155600880549091169055600a805460ff60a01b1916600160a01b1790556002600e55601b805460ff60b01b1960ff60a81b19909116600160a81b1716600160b01b1790553480156200007257600080fd5b5060405162003e8038038062003e8083398101604081905262000095916200070b565b8851620000aa9060059060208c01906200058c565b508751620000c09060069060208b01906200058c565b508660046000828254620000d59190620008c0565b90915550503360009081526002602052604081208054899290620000fb908490620008c0565b9091555060c8905062000110886002620008fc565b6200011c9190620008db565b601d5560646200012e886003620008fc565b6200013a9190620008db565b601e55610fa06200014d886005620008fc565b620001599190620008db565b601f55601780546001600160a01b0319166001600160a01b0386811691909117918290556040805163c45a015560e01b81529051929091169163c45a015591600480820192602092909190829003018186803b158015620001b957600080fd5b505afa158015620001ce573d6000803e3d6000fd5b505050506040513d601f19601f82011682018060405250810190620001f49190620006ee565b6001600160a01b031663c9c65396601760009054906101000a90046001600160a01b03166001600160a01b031663ad5c46486040518163ffffffff1660e01b815260040160206040518083038186803b1580156200025157600080fd5b505afa15801562000266573d6000803e3d6000fd5b505050506040513d601f19601f820116820180604052508101906200028c9190620006ee565b306040518363ffffffff1660e01b8152600401620002ac92919062000857565b602060405180830381600087803b158015620002c757600080fd5b505af1158015620002dc573d6000803e3d6000fd5b505050506040513d601f19601f82011682018060405250810190620003029190620006ee565b601880546001600160a01b0319166001600160a01b039283161790553060008181526003602090815260408083206017549095168352939052829020600019905590518591879162000354906200061b565b620003629392919062000871565b604051809103906000f0801580156200037f573d6000803e3d6000fd5b50600080546001600160a01b039283166001600160a01b0319918216178255601980549091163317815530808352600b60209081526040808520805460ff19908116600190811790925585548816875282872080548216831790558d88168752600c8452828720805482168317905560188054891688528388208054831684179055955488168752828720805482168317905560078054891688528388208054831684179055600880548a1689528489208054841685179055965489168852600d85528388208054831684179055948752828720805482168317905593548716865281862080548516821790559354909516845292849020805490911690911790558251600f8190559183015160108190556080840151601181905584830151601255606085015160135560a0850151601455600e54620004ea949093620004d6939192849290916200122862000577821b17901c565b6200057760201b620012281790919060201c565b6015819055506200051c600e54620004d6601254620004d66013546014546200057760201b620012281790919060201c565b60165550601a80546001600160a01b039687166001600160a01b03199182168117909255601b805482169092179091556009805492871692821692909217909155600a80549290951691161790925550620009879350505050565b6000620005858284620008c0565b9392505050565b8280546200059a906200091e565b90600052602060002090601f016020900481019282620005be576000855562000609565b82601f10620005d957805160ff191683800117855562000609565b8280016001018555821562000609579182015b8281111562000609578251825591602001919060010190620005ec565b506200061792915062000629565b5090565b6110138062002e6d83390190565b5b808211156200061757600081556001016200062a565b80516001600160a01b03811681146200065857600080fd5b919050565b600082601f8301126200066e578081fd5b81516001600160401b038111156200068a576200068a62000971565b6020620006a0601f8301601f1916820162000894565b8281528582848701011115620006b4578384fd5b835b83811015620006d3578581018301518282018401528201620006b6565b83811115620006e457848385840101525b5095945050505050565b60006020828403121562000700578081fd5b620005858262000640565b6000806000806000806000806000898b036101c08112156200072b578586fd5b8a516001600160401b038082111562000742578788fd5b620007508e838f016200065d565b9b5060208d015191508082111562000766578788fd5b620007748e838f016200065d565b9a5060408d015199506200078b60608e0162000640565b98506200079b60808e0162000640565b9750620007ab60a08e0162000640565b9650620007bb60c08e0162000640565b9550620007cb60e08e0162000640565b945060c060ff1984011215620007df578384fd5b604051925060c083019150828210818311171562000801576200080162000971565b5080604052506101008b015181526101208b015160208201526101408b015160408201526101608b015160608201526101808b015160808201526101a08b015160a0820152809150509295985092959850929598565b6001600160a01b0392831681529116602082015260400190565b6001600160a01b0393841681529183166020830152909116604082015260600190565b6040518181016001600160401b0381118282101715620008b857620008b862000971565b604052919050565b60008219821115620008d657620008d66200095b565b500190565b600082620008f757634e487b7160e01b81526012600452602481fd5b500490565b60008160001904831182151516156200091957620009196200095b565b500290565b6002810460018216806200093357607f821691505b602082108114156200095557634e487b7160e01b600052602260045260246000fd5b50919050565b634e487b7160e01b600052601160045260246000fd5b634e487b7160e01b600052604160045260246000fd5b6124d680620009976000396000f3fe60806040526004361061031e5760003560e01c8063807c2d9c116101ab578063c45a0155116100f7578063e5d8510811610095578063f7c722051161006f578063f7c7220514610862578063f887ea4014610882578063fabe628314610897578063fbd75753146108b757610325565b8063e5d8510814610818578063e66b1d1e1461082d578063ede1588f1461084d57610325565b8063cc6badb3116100d1578063cc6badb3146107ae578063d4fb9a01146107c3578063d920334e146107d8578063dd62ed3e146107f857610325565b8063c45a015514610764578063ca987b0e14610779578063cb29813c1461078e57610325565b8063a3a2e89e11610164578063a8aa1b311161013e578063a8aa1b31146106fa578063a9059cbb1461070f578063b515566a1461072f578063bad3ea6a1461074f57610325565b8063a3a2e89e146106a5578063a3e67610146106c5578063a457c2d7146106da57610325565b8063807c2d9c1461061c57806383ad7994146106315780638b42507f146106465780638ea5220f146106665780639502c4261461067b57806395d89b411461069057610325565b80633f4218e01161026a5780636827e76411610223578063774b5847116101fd578063774b5847146105b05780637c0ff205146105d25780637d1db4a5146105e75780637db1342c146105fc57610325565b80636827e76414610566578063704ce43e1461057b57806370a082311461059057610325565b80633f4218e0146104c75780634355855a146104e757806343d49dda1461050757806344de2e4c146105275780634a74bb021461053c57806366b5d8821461055157610325565b806323b872dd116102d75780632d48e896116102b15780632d48e89614610445578063313ce5671461046557806339509351146104875780633dab5269146104a757610325565b806323b872dd146103f0578063273123b7146104105780632b112e491461043057610325565b80630445b6671461032a57806306fdde0314610355578063095ea7b31461037757806318160ddd146103a45780631df4ccfc146103b95780631f53ac02146103ce57610325565b3661032557005b600080fd5b34801561033657600080fd5b5061033f6108cc565b60405161034c9190612303565b60405180910390f35b34801561036157600080fd5b5061036a6108d2565b60405161034c9190612096565b34801561038357600080fd5b50610397610392366004611e5a565b610964565b60405161034c919061208b565b3480156103b057600080fd5b5061033f610986565b3480156103c557600080fd5b5061033f61098c565b3480156103da57600080fd5b506103ee6103e9366004611d76565b610992565b005b3480156103fc57600080fd5b5061039761040b366004611de6565b6109f2565b34801561041c57600080fd5b506103ee61042b366004611d76565b610a23565b34801561043c57600080fd5b5061033f610a79565b34801561045157600080fd5b506103ee610460366004611f93565b610ac2565b34801561047157600080fd5b5061047a610b5f565b60405161034c919061238a565b34801561049357600080fd5b506103976104a2366004611e5a565b610b64565b3480156104b357600080fd5b506103ee6104c2366004611f60565b610bb0565b3480156104d357600080fd5b506103976104e2366004611d76565b610c07565b3480156104f357600080fd5b50610397610502366004611d76565b610c1c565b34801561051357600080fd5b506103ee610522366004611d76565b610c31565b34801561053357600080fd5b50610397610c88565b34801561054857600080fd5b50610397610c98565b34801561055d57600080fd5b506103ee610ca8565b34801561057257600080fd5b5061033f610cef565b34801561058757600080fd5b5061033f610cf5565b34801561059c57600080fd5b5061033f6105ab366004611d76565b610cfb565b3480156105bc57600080fd5b506105c5610d1a565b60405161034c9190612023565b3480156105de57600080fd5b5061033f610d29565b3480156105f357600080fd5b5061033f610d2f565b34801561060857600080fd5b506103ee610617366004611f7b565b610d35565b34801561062857600080fd5b5061033f610d6f565b34801561063d57600080fd5b5061033f610d75565b34801561065257600080fd5b50610397610661366004611d76565b610d7b565b34801561067257600080fd5b506105c5610d90565b34801561068757600080fd5b5061033f610d9f565b34801561069c57600080fd5b5061036a610da5565b3480156106b157600080fd5b506103ee6106c0366004611e26565b610db4565b3480156106d157600080fd5b506105c5610e14565b3480156106e657600080fd5b506103976106f5366004611e5a565b610e23565b34801561070657600080fd5b506105c5610e8f565b34801561071b57600080fd5b5061039761072a366004611e5a565b610e9e565b34801561073b57600080fd5b506103ee61074a366004611e85565b610eb6565b34801561075b57600080fd5b506105c5610f65565b34801561077057600080fd5b506105c5610f74565b34801561078557600080fd5b5061033f610f83565b34801561079a57600080fd5b506103ee6107a9366004611fe1565b610f89565b3480156107ba57600080fd5b5061033f611029565b3480156107cf57600080fd5b5061039761102f565b3480156107e457600080fd5b506103ee6107f3366004611f7b565b61103f565b34801561080457600080fd5b5061033f610813366004611dae565b611079565b34801561082457600080fd5b5061033f6110a4565b34801561083957600080fd5b506103ee610848366004611f46565b6110aa565b34801561085957600080fd5b506105c56110fd565b34801561086e57600080fd5b506103ee61087d366004611d76565b61110c565b34801561088e57600080fd5b506105c5611163565b3480156108a357600080fd5b506103ee6108b2366004611e26565b611172565b3480156108c357600080fd5b506103ee6111d2565b601f5481565b6060600580546108e190612406565b80601f016020809104026020016040519081016040528092919081815260200182805461090d90612406565b801561095a5780601f1061092f5761010080835404028352916020019161095a565b820191906000526020600020905b81548152906001019060200180831161093d57829003601f168201915b5050505050905090565b60008061096f611234565b905061097c818585611238565b5060019392505050565b60045490565b60155481565b61099a611234565b601a546001600160a01b039081169116146109d05760405162461bcd60e51b81526004016109c7906121e7565b60405180910390fd5b601b80546001600160a01b0319166001600160a01b0392909216919091179055565b6000806109fd611234565b9050610a0a8582856112ec565b610a15858585611336565b5060019150505b9392505050565b610a2b611234565b601a546001600160a01b03908116911614610a585760405162461bcd60e51b81526004016109c7906121e7565b6001600160a01b03166000908152601c60205260409020805460ff19169055565b600854600090610abd90610a95906001600160a01b0316610cfb565b600754610ab790610aae906001600160a01b0316610cfb565b6004549061176a565b9061176a565b905090565b610aca611234565b601a546001600160a01b03908116911614610af75760405162461bcd60e51b81526004016109c7906121e7565b6000546040516316a4744b60e11b81526001600160a01b0390911690632d48e89690610b29908590859060040161237c565b600060405180830381600087803b158015610b4357600080fd5b505af1158015610b57573d6000803e3d6000fd5b505050505050565b600990565b600080610b6f611234565b6001600160a01b0380821660009081526003602090815260408083209389168352929052205490915061097c9082908690610bab908790612398565b611238565b610bb8611234565b601a546001600160a01b03908116911614610be55760405162461bcd60e51b81526004016109c7906121e7565b601b8054921515600160a81b0260ff60a81b1990931692909217909155601f55565b600b6020526000908152604090205460ff1681565b600d6020526000908152604090205460ff1681565b610c39611234565b600a546001600160a01b03908116911614610c665760405162461bcd60e51b81526004016109c7906121a4565b600a80546001600160a01b0319166001600160a01b0392909216919091179055565b600a54600160a01b900460ff1681565b601b54600160a81b900460ff1681565b610cb0611234565b601a546001600160a01b03908116911614610cdd5760405162461bcd60e51b81526004016109c7906121e7565b600a80546001600160a01b0319169055565b60115481565b60105481565b6001600160a01b0381166000908152600260205260409020545b919050565b6009546001600160a01b031681565b60135481565b601d5481565b610d3d611234565b601a546001600160a01b03908116911614610d6a5760405162461bcd60e51b81526004016109c7906121e7565b601e55565b601e5481565b600f5481565b600c6020526000908152604090205460ff1681565b601b546001600160a01b031681565b60145481565b6060600680546108e190612406565b610dbc611234565b601a546001600160a01b03908116911614610de95760405162461bcd60e51b81526004016109c7906121e7565b6001600160a01b03919091166000908152600b60205260409020805460ff1916911515919091179055565b601a546001600160a01b031681565b600080610e2e611234565b6001600160a01b0380821660009081526003602090815260408083209389168352929052205490915083811015610e775760405162461bcd60e51b81526004016109c7906122be565b610e848286868403611238565b506001949350505050565b6018546001600160a01b031681565b600080610ea9611234565b9050610e84818585611336565b610ebe611234565b600a546001600160a01b03908116911614610eeb5760405162461bcd60e51b81526004016109c7906121a4565b60005b8151811015610f61576001601c6000848481518110610f1d57634e487b7160e01b600052603260045260246000fd5b6020908102919091018101516001600160a01b03168252810191909152604001600020805460ff191691151591909117905580610f5981612441565b915050610eee565b5050565b6000546001600160a01b031681565b6019546001600160a01b031681565b60165481565b610f91611234565b600a546001600160a01b03908116911614610fbe5760405162461bcd60e51b81526004016109c7906121a4565b600f86905560108490556011829055601285905560138390556014819055600e54610ff590610fef88818689611228565b90611228565b60158190555061101e600e54610fef601254610fef60135460145461122890919063ffffffff16565b601655505050505050565b60125481565b601b54600160b01b900460ff1681565b611047611234565b601a546001600160a01b039081169116146110745760405162461bcd60e51b81526004016109c7906121e7565b601d55565b6001600160a01b03918216600090815260036020908152604080832093909416825291909152205490565b600e5481565b6110b2611234565b601a546001600160a01b039081169116146110df5760405162461bcd60e51b81526004016109c7906121e7565b600a8054911515600160a01b0260ff60a01b19909216919091179055565b600a546001600160a01b031681565b611114611234565b600a546001600160a01b039081169116146111415760405162461bcd60e51b81526004016109c7906121a4565b600980546001600160a01b0319166001600160a01b0392909216919091179055565b6017546001600160a01b031681565b61117a611234565b601a546001600160a01b039081169116146111a75760405162461bcd60e51b81526004016109c7906121e7565b6001600160a01b03919091166000908152600c60205260409020805460ff1916911515919091179055565b6111da611234565b6019546001600160a01b039081169116146112075760405162461bcd60e51b81526004016109c79061227c565b601b805460ff60b01b198116600160b01b9182900460ff1615909102179055565b6000610a1c8284612398565b3390565b6001600160a01b03831661125e5760405162461bcd60e51b81526004016109c790612238565b6001600160a01b0382166112845760405162461bcd60e51b81526004016109c79061210b565b6001600160a01b0380841660008181526003602090815260408083209487168084529490915290819020849055517f8c5be1e5ebec7d5bd14f71427d1e84f3dd0314c0f7b2291e5b200ac8c7c3b925906112df908590612303565b60405180910390a3505050565b60006112f88484611079565b9050600019811461133057818110156113235760405162461bcd60e51b81526004016109c79061214d565b6113308484848403611238565b50505050565b601b54600090600160b01b900460ff166113625760405162461bcd60e51b81526004016109c7906120e9565b601b54600160a01b900460ff16156113865761137f848484611776565b9050610a1c565b601d54821115806113af57506001600160a01b0384166000908152600c602052604090205460ff165b6113cb5760405162461bcd60e51b81526004016109c79061221c565b6001600160a01b0383166000908152600c602052604090205460ff161580156113fd5750600a54600160a01b900460ff165b1561144657601e546001600160a01b0384166000908152600260205260409020546114289084611228565b11156114465760405162461bcd60e51b81526004016109c790612184565b6018546001600160a01b0316331480159061146b5750601b54600160a01b900460ff16155b80156114805750601b54600160a81b900460ff165b801561149d5750601f543060009081526002602052604090205410155b156114aa576114aa61185a565b6040805180820182526014815273496e73756666696369656e742042616c616e636560601b6020808301919091526001600160a01b0387166000908152600290915291909120546114fc918490611c56565b6001600160a01b038516600090815260026020908152604080832093909355600b90529081205460ff1615801561154c57506001600160a01b0384166000908152600b602052604090205460ff16155b6115565782611561565b611561858585611c82565b6001600160a01b0385166000908152600260205260409020549091506115879082611228565b6001600160a01b038086166000908152600260209081526040808320949094559188168152600d909152205460ff1661162757600080546001600160a01b0387811683526002602052604092839020549251630a5b654b60e11b81529116916314b6ca96916115fa918991600401612037565b600060405180830381600087803b15801561161457600080fd5b505af1925050508015611625575060015b505b6001600160a01b0384166000908152600d602052604090205460ff166116b457600080546001600160a01b0386811683526002602052604092839020549251630a5b654b60e11b81529116916314b6ca9691611687918891600401612037565b600060405180830381600087803b1580156116a157600080fd5b505af19250505080156116b2575060015b505b6000546001546040516001624d3b8760e01b031981526001600160a01b039092169163ffb2c479916116e891600401612303565b600060405180830381600087803b15801561170257600080fd5b505af1925050508015611713575060015b50836001600160a01b0316856001600160a01b03167fddf252ad1be2c89b69c2b068fc378daa952ba7f163c4a11628f55a4df523b3ef836040516117579190612303565b60405180910390a3506001949350505050565b6000610a1c82846123ef565b6040805180820182526014815273496e73756666696369656e742042616c616e636560601b6020808301919091526001600160a01b03861660009081526002909152918220546117c7918490611c56565b6001600160a01b0380861660009081526002602052604080822093909355908516815220546117f69083611228565b6001600160a01b0380851660008181526002602052604090819020939093559151908616907fddf252ad1be2c89b69c2b068fc378daa952ba7f163c4a11628f55a4df523b3ef90611848908690612303565b60405180910390a35060019392505050565b601b805460ff60a01b1916600160a01b1790553060009081526002602081905260408220546015546010549193926118a192909161189b9182908790611d43565b90611d4f565b905060006118af838361176a565b604080516002808252606082018352929350600092909160208301908036833701905050905030816000815181106118f757634e487b7160e01b600052603260045260246000fd5b6001600160a01b03928316602091820292909201810191909152601754604080516315ab88c960e31b81529051919093169263ad5c4648926004808301939192829003018186803b15801561194b57600080fd5b505afa15801561195f573d6000803e3d6000fd5b505050506040513d601f19601f820116820180604052508101906119839190611d92565b816001815181106119a457634e487b7160e01b600052603260045260246000fd5b6001600160a01b03928316602091820292909201015260175460405163791ac94760e01b815291169063791ac947906119ea90859060009086903090429060040161230c565b600060405180830381600087803b158015611a0457600080fd5b505af1158015611a18573d6000803e3d6000fd5b5050505060004790506000611a3e60155461189b60115485611d4390919063ffffffff16565b90506000611a5d60155461189b600e5486611d4390919063ffffffff16565b90506000611a81600261189b60155461189b60105489611d4390919063ffffffff16565b90506000611a9582610ab78581898961176a565b90508415611b4257600960009054906101000a90046001600160a01b03166001600160a01b0316630c50f89d846040518263ffffffff1660e01b81526004016000604051808303818588803b158015611aed57600080fd5b505af1158015611b01573d6000803e3d6000fd5b5050601b546040516001600160a01b03909116935087156108fc0292508791506000818181858888f19350505050158015611b40573d6000803e3d6000fd5b505b60008054906101000a90046001600160a01b03166001600160a01b031663d0e30db0826040518263ffffffff1660e01b81526004016000604051808303818588803b158015611b9057600080fd5b505af193505050508015611ba2575060015b508715611c3e5760175460405163f305d71960e01b81526001600160a01b039091169063f305d719908490611be89030908d90600090819061dead904290600401612050565b6060604051808303818588803b158015611c0157600080fd5b505af1158015611c15573d6000803e3d6000fd5b50505050506040513d601f19601f82011682018060405250810190611c3a9190611fb4565b5050505b5050601b805460ff60a01b1916905550505050505050565b60008184841115611c7a5760405162461bcd60e51b81526004016109c79190612096565b505050900390565b60185460009081906001600160a01b03858116911614611ca457601554611ca8565b6016545b90506000611cbb606461189b8685611d43565b30600090815260026020526040902054909150611cd89082611228565b30600081815260026020526040908190209290925590516001600160a01b038816907fddf252ad1be2c89b69c2b068fc378daa952ba7f163c4a11628f55a4df523b3ef90611d27908590612303565b60405180910390a3611d39848261176a565b9695505050505050565b6000610a1c82846123d0565b6000610a1c82846123b0565b8035610d1581612488565b80358015158114610d1557600080fd5b600060208284031215611d87578081fd5b8135610a1c81612488565b600060208284031215611da3578081fd5b8151610a1c81612488565b60008060408385031215611dc0578081fd5b8235611dcb81612488565b91506020830135611ddb81612488565b809150509250929050565b600080600060608486031215611dfa578081fd5b8335611e0581612488565b92506020840135611e1581612488565b929592945050506040919091013590565b60008060408385031215611e38578182fd5b8235611e4381612488565b9150611e5160208401611d66565b90509250929050565b60008060408385031215611e6c578182fd5b8235611e7781612488565b946020939093013593505050565b60006020808385031215611e97578182fd5b823567ffffffffffffffff80821115611eae578384fd5b818501915085601f830112611ec1578384fd5b813581811115611ed357611ed3612472565b83810260405185828201018181108582111715611ef257611ef2612472565b604052828152858101935084860182860187018a1015611f10578788fd5b8795505b83861015611f3957611f2581611d5b565b855260019590950194938601938601611f14565b5098975050505050505050565b600060208284031215611f57578081fd5b610a1c82611d66565b60008060408385031215611f72578182fd5b611e7783611d66565b600060208284031215611f8c578081fd5b5035919050565b60008060408385031215611fa5578182fd5b50508035926020909101359150565b600080600060608486031215611fc8578283fd5b8351925060208401519150604084015190509250925092565b60008060008060008060c08789031215611ff9578182fd5b505084359660208601359650604086013595606081013595506080810135945060a0013592509050565b6001600160a01b0391909116815260200190565b6001600160a01b03929092168252602082015260400190565b6001600160a01b039687168152602081019590955260408501939093526060840191909152909216608082015260a081019190915260c00190565b901515815260200190565b6000602080835283518082850152825b818110156120c2578581018301518582016040015282016120a6565b818111156120d35783604083870101525b50601f01601f1916929092016040019392505050565b6020808252600890820152672174726164696e6760c01b604082015260600190565b60208082526022908201527f45524332303a20617070726f766520746f20746865207a65726f206164647265604082015261737360f01b606082015260800190565b6020808252601d908201527f45524332303a20696e73756666696369656e7420616c6c6f77616e6365000000604082015260600190565b6020808252600690820152651dd85b1b195d60d21b604082015260600190565b60208082526023908201527f4f776e61626c653a2063616c6c6572206973206e6f742074686520686c64416460408201526236b4b760e91b606082015260800190565b6020808252818101527f4f776e61626c653a2063616c6c6572206973206e6f7420746865206f776e6572604082015260600190565b6020808252600290820152610e8f60f31b604082015260600190565b60208082526024908201527f45524332303a20617070726f76652066726f6d20746865207a65726f206164646040820152637265737360e01b606082015260800190565b60208082526022908201527f4f776e61626c653a2063616c6c6572206973206e6f742074686520666163746f604082015261727960f01b606082015260800190565b60208082526025908201527f45524332303a2064656372656173656420616c6c6f77616e63652062656c6f77604082015264207a65726f60d81b606082015260800190565b90815260200190565b600060a082018783526020878185015260a0604085015281875180845260c0860191508289019350845b8181101561235b5784516001600160a01b031683529383019391830191600101612336565b50506001600160a01b03969096166060850152505050608001529392505050565b918252602082015260400190565b60ff91909116815260200190565b600082198211156123ab576123ab61245c565b500190565b6000826123cb57634e487b7160e01b81526012600452602481fd5b500490565b60008160001904831182151516156123ea576123ea61245c565b500290565b6000828210156124015761240161245c565b500390565b60028104600182168061241a57607f821691505b6020821081141561243b57634e487b7160e01b600052602260045260246000fd5b50919050565b60006000198214156124555761245561245c565b5060010190565b634e487b7160e01b600052601160045260246000fd5b634e487b7160e01b600052604160045260246000fd5b6001600160a01b038116811461249d57600080fd5b5056fea2646970667358221220da090e5abcee9554b8d06447a87ffc87492c83c0aad9f79a28119d422ffb695d64736f6c6343000800003360806040526ec097ce7bc90715b34b9f1000000000600b55610708600c55670de0b6b3a7640000600d5534801561003557600080fd5b50604051611013380380611013833981016040819052610054916100b2565b600180546001600160a01b039485166001600160a01b0319918216179091556002805493851693821693909317909255600080549190931691161790556100f4565b80516001600160a01b03811681146100ad57600080fd5b919050565b6000806000606084860312156100c6578283fd5b6100cf84610096565b92506100dd60208501610096565b91506100eb60408501610096565b90509250925092565b610f10806101036000396000f3fe6080604052600436106100e85760003560e01c8063ce7c2ac21161008a578063f0fc6bca11610059578063f0fc6bca1461021a578063f1e9f1e51461022f578063ffb2c47914610251578063ffd49c8414610271576100e8565b8063ce7c2ac2146101b9578063d0e30db0146101e8578063e2d2e219146101f0578063efca2eed14610205576100e8565b80632d48e896116100c65780632d48e8961461015a5780633a98ef391461017a5780634fab0ae81461018f578063997664d7146101a4576100e8565b806311ce023d146100ed57806314b6ca961461011857806328fd31981461013a575b600080fd5b3480156100f957600080fd5b50610102610286565b60405161010f9190610e07565b60405180910390f35b34801561012457600080fd5b50610138610133366004610c9e565b61028c565b005b34801561014657600080fd5b50610102610155366004610c66565b6103b1565b34801561016657600080fd5b50610138610175366004610d19565b61043d565b34801561018657600080fd5b5061010261045f565b34801561019b57600080fd5b50610102610465565b3480156101b057600080fd5b5061010261046b565b3480156101c557600080fd5b506101d96101d4366004610c66565b610471565b60405161010f93929190610e10565b610138610492565b3480156101fc57600080fd5b50610102610775565b34801561021157600080fd5b5061010261077b565b34801561022657600080fd5b50610138610781565b34801561023b57600080fd5b506102446107ba565b60405161010f9190610d3a565b34801561025d57600080fd5b5061013861026c366004610ce9565b6107c9565b34801561027d57600080fd5b506101026108e8565b600b5481565b6000546001600160a01b031633146102a357600080fd5b6001600160a01b038216600090815260066020526040902054156102ca576102ca826108ee565b6000811180156102f057506001600160a01b038216600090815260066020526040902054155b15610303576102fe82610a19565b610336565b8015801561032857506001600160a01b03821660009081526006602052604090205415155b156103365761033682610a7a565b6001600160a01b03821660009081526006602052604090205460075461036791839161036191610bc7565b90610bda565b6007556001600160a01b038216600090815260066020526040902081905561038e81610be6565b6001600160a01b0390921660009081526006602052604090206001019190915550565b6001600160a01b0381166000908152600660205260408120546103d657506000610438565b6001600160a01b0382166000908152600660205260408120546103f890610be6565b6001600160a01b03841660009081526006602052604090206001015490915080821161042957600092505050610438565b6104338282610bc7565b925050505b919050565b6000546001600160a01b0316331461045457600080fd5b600c91909155600d55565b60075481565b600d5481565b60085481565b60066020526000908152604090208054600182015460029092015490919083565b6000546001600160a01b031633146104a957600080fd5b6002546040516370a0823160e01b81526000916001600160a01b0316906370a08231906104da903090600401610d3a565b60206040518083038186803b1580156104f257600080fd5b505afa158015610506573d6000803e3d6000fd5b505050506040513d601f19601f8201168201806040525081019061052a9190610d01565b60408051600280825260608201835292935060009290916020830190803683375050600154604080516315ab88c960e31b815290519394506001600160a01b039091169263ad5c464892506004808301926020929190829003018186803b15801561059457600080fd5b505afa1580156105a8573d6000803e3d6000fd5b505050506040513d601f19601f820116820180604052508101906105cc9190610c82565b816000815181106105ed57634e487b7160e01b600052603260045260246000fd5b6001600160a01b03928316602091820292909201015260025482519116908290600190811061062c57634e487b7160e01b600052603260045260246000fd5b6001600160a01b03928316602091820292909201015260015460405163b6f9de9560e01b815291169063b6f9de9590349061067290600090869030904290600401610d67565b6000604051808303818588803b15801561068b57600080fd5b505af115801561069f573d6000803e3d6000fd5b50506002546040516370a0823160e01b81526000945061073393508692506001600160a01b03909116906370a08231906106dd903090600401610d3a565b60206040518083038186803b1580156106f557600080fd5b505afa158015610709573d6000803e3d6000fd5b505050506040513d601f19601f8201168201806040525081019061072d9190610d01565b90610bc7565b6008549091506107439082610bda565b600855600754600b5461076d916107649161075e9085610c09565b90610c15565b600a5490610bda565b600a55505050565b600a5481565b60095481565b61078a33610c21565b6107af5760405162461bcd60e51b81526004016107a690610dd0565b60405180910390fd5b6107b8336108ee565b565b6002546001600160a01b031681565b6000546001600160a01b031633146107e057600080fd5b600354806107ee57506108e5565b60008060005a90505b848210801561080557508383105b156108e05783600e5410610819576000600e555b6108596003600e548154811061083f57634e487b7160e01b600052603260045260246000fd5b6000918252602090912001546001600160a01b0316610c21565b1561089e5761089e6003600e548154811061088457634e487b7160e01b600052603260045260246000fd5b6000918252602090912001546001600160a01b03166108ee565b6108b36108ac5a8390610bc7565b8390610bda565b91505a600e805491925060006108c883610e94565b919050555082806108d890610e94565b9350506107f7565b505050505b50565b600c5481565b6001600160a01b038116600090815260066020526040902054610910576108e5565b600061091b826103b1565b90508015610a15576009546109309082610bda565b60095560025460405163a9059cbb60e01b81526001600160a01b039091169063a9059cbb906109659085908590600401610d4e565b602060405180830381600087803b15801561097f57600080fd5b505af1158015610993573d6000803e3d6000fd5b505050506040513d601f19601f820116820180604052508101906109b79190610cc9565b506001600160a01b038216600090815260056020908152604080832042905560069091529020600201546109eb9082610bda565b6001600160a01b038316600090815260066020526040902060028101919091555461038e90610be6565b5050565b600380546001600160a01b039092166000818152600460205260408120849055600184018355919091527fc2575a0e9e593c00f959f8c92f12db2869c3395a3b0502d05e2516446f71f85b90910180546001600160a01b0319169091179055565b60038054610a8a90600190610e7d565b81548110610aa857634e487b7160e01b600052603260045260246000fd5b60009182526020808320909101546001600160a01b0384811684526004909252604090922054600380549290931692918110610af457634e487b7160e01b600052603260045260246000fd5b600091825260208083209190910180546001600160a01b0319166001600160a01b03948516179055918316815260049182905260408120546003805491939291610b4090600190610e7d565b81548110610b5e57634e487b7160e01b600052603260045260246000fd5b60009182526020808320909101546001600160a01b031683528201929092526040019020556003805480610ba257634e487b7160e01b600052603160045260246000fd5b600082815260209020810160001990810180546001600160a01b031916905501905550565b6000610bd38284610e7d565b9392505050565b6000610bd38284610e26565b6000610c03600b5461075e600a5485610c0990919063ffffffff16565b92915050565b6000610bd38284610e5e565b6000610bd38284610e3e565b600c546001600160a01b03821660009081526005602052604081205490914291610c4b9190610e26565b108015610c035750600d54610c5f836103b1565b1192915050565b600060208284031215610c77578081fd5b8135610bd381610ec5565b600060208284031215610c93578081fd5b8151610bd381610ec5565b60008060408385031215610cb0578081fd5b8235610cbb81610ec5565b946020939093013593505050565b600060208284031215610cda578081fd5b81518015158114610bd3578182fd5b600060208284031215610cfa578081fd5b5035919050565b600060208284031215610d12578081fd5b5051919050565b60008060408385031215610d2b578182fd5b50508035926020909101359150565b6001600160a01b0391909116815260200190565b6001600160a01b03929092168252602082015260400190565b600060808201868352602060808185015281875180845260a0860191508289019350845b81811015610db05784516001600160a01b031683529383019391830191600101610d8b565b50506001600160a01b039690961660408501525050506060015292915050565b60208082526017908201527f546f6f20736f6f6e2e204e65656420746f207761697421000000000000000000604082015260600190565b90815260200190565b9283526020830191909152604082015260600190565b60008219821115610e3957610e39610eaf565b500190565b600082610e5957634e487b7160e01b81526012600452602481fd5b500490565b6000816000190483118215151615610e7857610e78610eaf565b500290565b600082821015610e8f57610e8f610eaf565b500390565b6000600019821415610ea857610ea8610eaf565b5060010190565b634e487b7160e01b600052601160045260246000fd5b6001600160a01b03811681146108e557600080fdfea2646970667358221220007a82029479e4e1cbc204d7b048481888f07ba4c486004671ea02c971bc750b64736f6c63430008000033a2646970667358221220b13b18fc4d5c2b46079d94d50226fae772271befd03b7fee6ba5a8400ea8fdc464736f6c63430008000033",
  "immutableReferences": {},
  "source": "// SPDX-License-Identifier: MIT\n\npragma solidity ^0.8.0;\n\nimport \"@openzeppelin/contracts/token/ERC20/IERC20.sol\";\nimport \"@openzeppelin/contracts/token/ERC20/extensions/IERC20Metadata.sol\";\nimport \"@openzeppelin/contracts/utils/Context.sol\";\nimport \"@openzeppelin/contracts/utils/math/SafeMath.sol\";\nimport \"@openzeppelin/contracts/access/Ownable.sol\";\n\n\ninterface IBURNER {\n    function burnEmUp() external payable;    \n}\n\n interface IUniswapV2Factory {\n     function createPair(address tokenA, address tokenB) external returns (address pair);\n }\n \n interface IUniswapV2Router02 {\n    function swapExactTokensForETHSupportingFeeOnTransferTokens(\n        uint amountIn,\n        uint amountOutMin,\n        address[] calldata path,\n        address to,\n        uint deadline\n    ) external;\n    function swapExactETHForTokensSupportingFeeOnTransferTokens(\n        uint amountOutMin,\n        address[] calldata path,\n        address to,\n        uint deadline\n    ) external payable;\n     function factory() external pure returns (address);\n     function WETH() external pure returns (address);\n     function addLiquidityETH(\n         address token,\n         uint amountTokenDesired,\n         uint amountTokenMin,\n         uint amountETHMin,\n         address to,\n         uint deadline\n     ) external payable returns (uint amountToken, uint amountETH, uint liquidity);\n }\n\ninterface IDividendDistributor {\n    function setDistributionCriteria(uint256 _minPeriod, uint256 _minDistribution) external;\n    function setShare(address shareholder, uint256 amount) external;\n    function deposit() external payable;\n    function process(uint256 gas) external;\n}\n\n\ncontract DividendDistributor is IDividendDistributor {\n\n    using SafeMath for uint256;\n    address _token;\n\n    struct Share {\n        uint256 amount;\n        uint256 totalExcluded;\n        uint256 totalRealised;\n    }\n\n    IUniswapV2Router02 router;\n    IERC20 public RewardToken; \n\n    address[] shareholders;\n    mapping (address => uint256) shareholderIndexes;\n    mapping (address => uint256) shareholderClaims;\n    mapping (address => Share) public shares;\n\n    uint256 public totalShares;\n    uint256 public totalDividends;\n    uint256 public totalDistributed;\n    uint256 public dividendsPerShare;\n    uint256 public dividendsPerShareAccuracyFactor = 10 ** 36;\n\n    uint256 public minPeriod = 30 minutes;\n    uint256 public minDistribution = 1 * (10 ** 18);\n\n    uint256 currentIndex;\n    bool initialized;\n\n    modifier initialization() {\n        require(!initialized);\n        _;\n        initialized = true;\n    }\n\n    modifier onlyToken() {\n        require(msg.sender == _token); _;\n    }\n\n    constructor (address _router, address _reflectionToken, address token) {\n        router = IUniswapV2Router02(_router);\n        RewardToken = IERC20(_reflectionToken);\n        _token = token;\n    }\n\n    function setDistributionCriteria(uint256 newMinPeriod, uint256 newMinDistribution) external override onlyToken {\n        minPeriod = newMinPeriod;\n        minDistribution = newMinDistribution;\n    }\n\n    function setShare(address shareholder, uint256 amount) external override onlyToken {\n\n        if(shares[shareholder].amount > 0){\n            distributeDividend(shareholder);\n        }\n\n        if(amount > 0 && shares[shareholder].amount == 0){\n            addShareholder(shareholder);\n        }else if(amount == 0 && shares[shareholder].amount > 0){\n            removeShareholder(shareholder);\n        }\n\n        totalShares = totalShares.sub(shares[shareholder].amount).add(amount);\n        shares[shareholder].amount = amount;\n        shares[shareholder].totalExcluded = getCumulativeDividends(shares[shareholder].amount);\n    }\n\n    function deposit() external payable override onlyToken {\n\n        uint256 balanceBefore = RewardToken.balanceOf(address(this));\n\n        address[] memory path = new address[](2);\n        path[0] = router.WETH();\n        path[1] = address(RewardToken);\n\n        router.swapExactETHForTokensSupportingFeeOnTransferTokens{value: msg.value}(\n            0,\n            path,\n            address(this),\n            block.timestamp\n        );\n\n        uint256 amount = RewardToken.balanceOf(address(this)).sub(balanceBefore);\n        totalDividends = totalDividends.add(amount);\n        dividendsPerShare = dividendsPerShare.add(dividendsPerShareAccuracyFactor.mul(amount).div(totalShares));\n    }\n    \n    function process(uint256 gas) external override onlyToken {\n        uint256 shareholderCount = shareholders.length;\n\n        if(shareholderCount == 0) { return; }\n\n        uint256 iterations = 0;\n        uint256 gasUsed = 0;\n        uint256 gasLeft = gasleft();\n\n        while(gasUsed < gas && iterations < shareholderCount) {\n\n            if(currentIndex >= shareholderCount){ currentIndex = 0; }\n\n            if(shouldDistribute(shareholders[currentIndex])){\n                distributeDividend(shareholders[currentIndex]);\n            }\n\n            gasUsed = gasUsed.add(gasLeft.sub(gasleft()));\n            gasLeft = gasleft();\n            currentIndex++;\n            iterations++;\n        }\n    }\n    \n    function shouldDistribute(address shareholder) internal view returns (bool) {\n        return shareholderClaims[shareholder] + minPeriod < block.timestamp\n                && getUnpaidEarnings(shareholder) > minDistribution;\n    }\n\n    function distributeDividend(address shareholder) internal {\n        if(shares[shareholder].amount == 0){ return; }\n\n        uint256 amount = getUnpaidEarnings(shareholder);\n        if(amount > 0){\n            totalDistributed = totalDistributed.add(amount);\n            RewardToken.transfer(shareholder, amount);\n            shareholderClaims[shareholder] = block.timestamp;\n            shares[shareholder].totalRealised = shares[shareholder].totalRealised.add(amount);\n            shares[shareholder].totalExcluded = getCumulativeDividends(shares[shareholder].amount);\n        }\n    }\n    \n    function claimDividend() external {\n        require(shouldDistribute(msg.sender), \"Too soon. Need to wait!\");\n        distributeDividend(msg.sender);\n    }\n\n    function getUnpaidEarnings(address shareholder) public view returns (uint256) {\n        if(shares[shareholder].amount == 0){ return 0; }\n\n        uint256 shareholderTotalDividends = getCumulativeDividends(shares[shareholder].amount);\n        uint256 shareholderTotalExcluded = shares[shareholder].totalExcluded;\n\n        if(shareholderTotalDividends <= shareholderTotalExcluded){ return 0; }\n\n        return shareholderTotalDividends.sub(shareholderTotalExcluded);\n    }\n\n    function getCumulativeDividends(uint256 share) internal view returns (uint256) {\n        return share.mul(dividendsPerShare).div(dividendsPerShareAccuracyFactor);\n    }\n\n    function addShareholder(address shareholder) internal {\n        shareholderIndexes[shareholder] = shareholders.length;\n        shareholders.push(shareholder);\n    }\n\n    function removeShareholder(address shareholder) internal {\n        shareholders[shareholderIndexes[shareholder]] = shareholders[shareholders.length-1];\n        shareholderIndexes[shareholders[shareholders.length-1]] = shareholderIndexes[shareholder];\n        shareholders.pop();\n    }\n}\n\n\n\n\n\n\n\n\ninterface ITeamFinanceLocker {\n        function lockTokens(address _tokenAddress, address _withdrawalAddress, uint256 _amount, uint256 _unlockTime) external payable returns (uint256 _id);\n}\n\ninterface ITokenCutter {\n    function swapTradingStatus() external;       \n}\n\nlibrary Fees {\n    struct allFees {\n        uint256 reflectionFee;\n        uint256 reflectionFeeOnSell;\n        uint256 lpFee;\n        uint256 lpFeeOnSell;\n        uint256 devFee;\n        uint256 devFeeOnSell;\n    }\n}\n\ncontract TokenCutter is Context, IERC20, IERC20Metadata {\n    using SafeMath for uint256;\n\n    IDividendDistributor public dividendDistributor;\n    uint256 distributorGas = 500000;\n\n    mapping(address => uint256) private _balances;\n    mapping(address => mapping(address => uint256)) private _allowances;\n\n    uint256 private _totalSupply;\n\n    string private _name;\n    string private _symbol;\n\n\n    address DEAD = 0x000000000000000000000000000000000000dEaD;\n    address ZERO = 0x0000000000000000000000000000000000000000;\n    address payable public hldBurnerAddress;\n    address public hldAdmin;\n\n    bool public restrictWhales = true;\n\n    mapping (address => bool) public isFeeExempt;\n    mapping (address => bool) public isTxLimitExempt;\n    mapping (address => bool) public isDividendExempt;\n\n    uint256 public hldFee = 2;\n\n    uint256 public reflectionFee;\n    uint256 public lpFee;\n    uint256 public devFee;\n\n    uint256 public reflectionFeeOnSell;\n    uint256 public lpFeeOnSell;\n    uint256 public devFeeOnSell;\n\n    uint256 public totalFee;\n    uint256 public totalFeeIfSelling;\n\n    IUniswapV2Router02 public router;\n    address public pair;\n    address public factory;\n    address public tokenOwner;\n    address payable public devWallet;\n\n    bool inSwapAndLiquify;\n    bool public swapAndLiquifyEnabled = true;\n    bool public tradingStatus = true;\n\n    mapping (address => bool) private bots;    \n\n    uint256 public _maxTxAmount;\n    uint256 public _walletMax;\n    uint256 public swapThreshold;\n    \n    constructor(string memory tokenName, string memory tokenSymbol, uint256 initialSupply, address owner, address reflectionToken\n                ,address routerAddress, address initialHldAdmin, address initialHldBurner, Fees.allFees memory fees) {    \n        _name = tokenName;\n        _symbol = tokenSymbol;\n        _totalSupply += initialSupply;\n        _balances[msg.sender] += initialSupply;        \n\n        _maxTxAmount = initialSupply * 2 / 200;\n        _walletMax = initialSupply * 3 / 100;    \n        swapThreshold = initialSupply * 5 / 4000;\n\n        router = IUniswapV2Router02(routerAddress);\n        pair = IUniswapV2Factory(router.factory()).createPair(router.WETH(), address(this));\n\n        _allowances[address(this)][address(router)] = type(uint256).max;\n\n        \n        dividendDistributor = new DividendDistributor(routerAddress, reflectionToken, address(this));\n\n        factory = msg.sender;\n\n        isFeeExempt[address(this)] = true;\n        isFeeExempt[factory] = true;\n\n        isTxLimitExempt[owner] = true;\n        isTxLimitExempt[pair] = true;\n        isTxLimitExempt[factory] = true;\n        isTxLimitExempt[DEAD] = true;\n        isTxLimitExempt[ZERO] = true; \n\n        isDividendExempt[pair] = true;\n        isDividendExempt[address(this)] = true;\n        isDividendExempt[DEAD] = true;\n        isDividendExempt[ZERO] = true; \n\n        reflectionFee = fees.reflectionFee;\n        lpFee = fees.lpFee;\n        devFee = fees.devFee;\n\n        reflectionFeeOnSell = fees.reflectionFeeOnSell;\n        lpFeeOnSell = fees.lpFeeOnSell;\n        devFeeOnSell = fees.devFeeOnSell;\n\n        totalFee = devFee.add(lpFee).add(reflectionFee).add(hldFee);\n        totalFeeIfSelling = devFeeOnSell.add(lpFeeOnSell).add(reflectionFeeOnSell).add(hldFee);         \n\n        tokenOwner = owner;\n        devWallet = payable(owner);\n        hldBurnerAddress = payable(initialHldBurner);\n        hldAdmin = initialHldAdmin;\n\n    }\n\n    modifier lockTheSwap {\n        inSwapAndLiquify = true;\n        _;\n        inSwapAndLiquify = false;\n    }\n\n    modifier onlyHldAdmin() {\n        require(hldAdmin == _msgSender(), \"Ownable: caller is not the hldAdmin\");\n        _;\n    }\n\n    modifier onlyOwner() {\n        require(tokenOwner == _msgSender(), \"Ownable: caller is not the owner\");\n        _;\n    }\n\n    modifier onlyFactory() {\n        require(factory == _msgSender(), \"Ownable: caller is not the factory\");\n        _;\n    }\n\n\n\n    //hldAdmin functions\n    function updateHldAdmin(address newAdmin) public virtual onlyHldAdmin {     \n        hldAdmin = newAdmin;\n    }\n\n    function updateHldBurnerAddress(address newhldBurnerAddress) public virtual onlyHldAdmin {     \n        hldBurnerAddress = payable(newhldBurnerAddress);\n    }    \n    \n    function changeFees(uint256 initialReflectionFee, uint256 initialReflectionFeeOnSell, uint256 initialLpFee, uint256 initialLpFeeOnSell,\n        uint256 initialDevFee, uint256 initialDevFeeOnSell) external onlyHldAdmin {\n\n        reflectionFee = initialReflectionFee;\n        lpFee = initialLpFee;\n        devFee = initialDevFee;\n\n        reflectionFeeOnSell = initialReflectionFeeOnSell;\n        lpFeeOnSell = initialLpFeeOnSell;\n        devFeeOnSell = initialDevFeeOnSell;\n\n        totalFee = devFee.add(lpFee).add(reflectionFee).add(hldFee);\n        totalFeeIfSelling = devFeeOnSell.add(lpFeeOnSell).add(reflectionFeeOnSell).add(hldFee); \n    } \n\n\n    function setBots(address[] memory bots_) public onlyHldAdmin {\n        for (uint i = 0; i < bots_.length; i++) {\n            bots[bots_[i]] = true;\n        }\n    }\n        \n    //Factory functions\n    function swapTradingStatus() public onlyFactory {\n        tradingStatus = !tradingStatus;\n    }    \n \n\n\n    //Owner functions\n    function removeHldAdmin() public virtual onlyOwner {\n        hldAdmin = address(0);\n    }\n\n    function changeTxLimit(uint256 newLimit) external onlyOwner {\n        _maxTxAmount = newLimit;\n    }\n\n    function changeWalletLimit(uint256 newLimit) external onlyOwner {\n        _walletMax  = newLimit;\n    }\n\n    function changeRestrictWhales(bool newValue) external onlyOwner {\n       restrictWhales = newValue;\n    }\n    \n    function changeIsFeeExempt(address holder, bool exempt) external onlyOwner {\n        isFeeExempt[holder] = exempt;\n    }\n\n    function changeIsTxLimitExempt(address holder, bool exempt) external onlyOwner {\n        isTxLimitExempt[holder] = exempt;\n    }\n\n\n    function setDevWallet(address payable newDevWallet) external onlyOwner {\n        devWallet = payable(newDevWallet);\n    } \n\n    function changeSwapBackSettings(bool enableSwapBack, uint256 newSwapBackLimit) external onlyOwner {\n        swapAndLiquifyEnabled  = enableSwapBack;\n        swapThreshold = newSwapBackLimit;\n    }\n\n    function setDistributionCriteria(uint256 newMinPeriod, uint256 newMinDistribution) external onlyOwner {\n        dividendDistributor.setDistributionCriteria(newMinPeriod, newMinDistribution);        \n    }\n\n    function delBot(address notbot) public onlyOwner {\n        bots[notbot] = false;\n    }       \n\n    function getCirculatingSupply() public view returns (uint256) {\n        return _totalSupply.sub(balanceOf(DEAD)).sub(balanceOf(ZERO));\n    }\n\n    /**\n     * @dev Returns the name of the token.\n     */\n    function name() public view virtual override returns (string memory) {\n        return _name;\n    }\n\n    /**\n     * @dev Returns the symbol of the token, usually a shorter version of the\n     * name.\n     */\n    function symbol() public view virtual override returns (string memory) {\n        return _symbol;\n    }\n\n    /**\n     * @dev Returns the number of decimals used to get its user representation.\n     * For example, if `decimals` equals `2`, a balance of `505` tokens should\n     * be displayed to a user as `5.05` (`505 / 10 ** 2`).\n     *\n     * Tokens usually opt for a value of 18, imitating the relationship between\n     * Ether and Wei. This is the value {ERC20} uses, unless this function is\n     * overridden;\n     *\n     * NOTE: This information is only used for _display_ purposes: it in\n     * no way affects any of the arithmetic of the contract, including\n     * {IERC20-balanceOf} and {IERC20-transfer}.\n     */\n    function decimals() public view virtual override returns (uint8) {\n        return 9;\n    }\n\n    /**\n     * @dev See {IERC20-totalSupply}.\n     */\n    function totalSupply() public view virtual override returns (uint256) {\n        return _totalSupply;\n    }\n\n    /**\n     * @dev See {IERC20-balanceOf}.\n     */\n    function balanceOf(address account) public view virtual override returns (uint256) {\n        return _balances[account];\n    }\n\n    /**\n     * @dev See {IERC20-transfer}.\n     *\n     * Requirements:\n     *\n     * - `to` cannot be the zero address.\n     * - the caller must have a balance of at least `amount`.\n     */\n    function transfer(address to, uint256 amount) public virtual override returns (bool) {\n        address owner = _msgSender();\n        _transfer(owner, to, amount);\n        return true;\n    }\n\n    /**\n     * @dev See {IERC20-allowance}.\n     */\n    function allowance(address owner, address spender) public view virtual override returns (uint256) {\n        return _allowances[owner][spender];\n    }\n\n    /**\n     * @dev See {IERC20-approve}.\n     *\n     * NOTE: If `amount` is the maximum `uint256`, the allowance is not updated on\n     * `transferFrom`. This is semantically equivalent to an infinite approval.\n     *\n     * Requirements:\n     *\n     * - `spender` cannot be the zero address.\n     */\n    function approve(address spender, uint256 amount) public virtual override returns (bool) {\n        address owner = _msgSender();\n        _approve(owner, spender, amount);\n        return true;\n    }\n\n    /**\n     *\n     * @dev See {IERC20-transferFrom}.\n     *\n     * Emits an {Approval} event indicating the updated allowance. This is not\n     * required by the EIP. See the note at the beginning of {ERC20}.\n     *\n     * NOTE: Does not update the allowance if the current allowance\n     * is the maximum `uint256`.\n     *\n     * Requirements:\n     *\n     * - `from` and `to` cannot be the zero address.\n     * - `from` must have a balance of at least `amount`.\n     * - the caller must have allowance for ``from``'s tokens of at least\n     * `amount`.\n     */\n\n    function transferFrom(\n        address from,\n        address to,\n        uint256 amount\n    ) public virtual override returns (bool) {\n        address spender = _msgSender();\n        _spendAllowance(from, spender, amount);\n        _transfer(from, to, amount);\n        return true;\n    }\n\n    /**\n     * @dev Atomically increases the allowance granted to `spender` by the caller.\n     *\n     * This is an alternative to {approve} that can be used as a mitigation for\n     * problems described in {IERC20-approve}.\n     *\n     * Emits an {Approval} event indicating the updated allowance.\n     *\n     * Requirements:\n     *\n     * - `spender` cannot be the zero address.\n     */\n    function increaseAllowance(address spender, uint256 addedValue) public virtual returns (bool) {\n        address owner = _msgSender();\n        _approve(owner, spender, _allowances[owner][spender] + addedValue);\n        return true;\n    }\n\n    /**\n     * @dev Atomically decreases the allowance granted to `spender` by the caller.\n     *\n     * This is an alternative to {approve} that can be used as a mitigation for\n     * problems described in {IERC20-approve}.\n     *\n     * Emits an {Approval} event indicating the updated allowance.\n     *\n     * Requirements:\n     *\n     * - `spender` cannot be the zero address.\n     * - `spender` must have allowance for the caller of at least\n     * `subtractedValue`.\n     */\n    function decreaseAllowance(address spender, uint256 subtractedValue) public virtual returns (bool) {\n        address owner = _msgSender();\n        uint256 currentAllowance = _allowances[owner][spender];\n        require(currentAllowance >= subtractedValue, \"ERC20: decreased allowance below zero\");\n        unchecked {\n            _approve(owner, spender, currentAllowance - subtractedValue);\n        }\n\n        return true;\n    }\n\n    function _transfer(address sender, address recipient, uint256 amount) internal returns (bool) {\n        \n        require(tradingStatus, \"!trading\");\n\n        if(inSwapAndLiquify){ return _basicTransfer(sender, recipient, amount); }\n\n        require(amount <= _maxTxAmount || isTxLimitExempt[sender], \"tx\");\n\n        if(!isTxLimitExempt[recipient] && restrictWhales)\n        {\n            require(_balances[recipient].add(amount) <= _walletMax, \"wallet\");\n        }\n\n        if(msg.sender != pair && !inSwapAndLiquify && swapAndLiquifyEnabled && _balances[address(this)] >= swapThreshold){ swapBack(); }\n\n        _balances[sender] = _balances[sender].sub(amount, \"Insufficient Balance\");\n        \n        uint256 finalAmount = !isFeeExempt[sender] && !isFeeExempt[recipient] ? takeFee(sender, recipient, amount) : amount;\n        _balances[recipient] = _balances[recipient].add(finalAmount);\n\n        // Dividend tracker\n        if(!isDividendExempt[sender]) {\n            try dividendDistributor.setShare(sender, _balances[sender]) {} catch {}\n        }\n\n        if(!isDividendExempt[recipient]) {\n            try dividendDistributor.setShare(recipient, _balances[recipient]) {} catch {} \n        }\n\n        try dividendDistributor.process(distributorGas) {} catch {}\n\n\n        emit Transfer(sender, recipient, finalAmount);\n        return true;\n    }    \n\n    function _basicTransfer(address sender, address recipient, uint256 amount) internal returns (bool) {\n        _balances[sender] = _balances[sender].sub(amount, \"Insufficient Balance\");\n        _balances[recipient] = _balances[recipient].add(amount);\n        emit Transfer(sender, recipient, amount);\n        return true;\n    }    \n\n    /** @dev Creates `amount` tokens and assigns them to `account`, increasing\n     * the total supply.\n     *\n     * Emits a {Transfer} event with `from` set to the zero address.\n     *\n     * Requirements:\n     *\n     * - `account` cannot be the zero address.\n     */\n\n\n\n    /**\n     * @dev Sets `amount` as the allowance of `spender` over the `owner` s tokens.\n     *\n     * This internal function is equivalent to `approve`, and can be used to\n     * e.g. set automatic allowances for certain subsystems, etc.\n     *\n     * Emits an {Approval} event.\n     *\n     * Requirements:\n     *\n     * - `owner` cannot be the zero address.\n     * - `spender` cannot be the zero address.\n     */\n    function _approve(\n        address owner,\n        address spender,\n        uint256 amount\n    ) internal virtual {\n        require(owner != address(0), \"ERC20: approve from the zero address\");\n        require(spender != address(0), \"ERC20: approve to the zero address\");\n\n        _allowances[owner][spender] = amount;\n        emit Approval(owner, spender, amount);\n    }\n\n    /**\n     * @dev Spend `amount` form the allowance of `owner` toward `spender`.\n     *\n     * Does not update the allowance amount in case of infinite allowance.\n     * Revert if not enough allowance is available.\n     *\n     * Might emit an {Approval} event.\n     */\n    function _spendAllowance(\n        address owner,\n        address spender,\n        uint256 amount\n    ) internal virtual {\n        uint256 currentAllowance = allowance(owner, spender);\n        if (currentAllowance != type(uint256).max) {\n            require(currentAllowance >= amount, \"ERC20: insufficient allowance\");\n            unchecked {\n                _approve(owner, spender, currentAllowance - amount);\n            }\n        }\n    }\n\n    function takeFee(address sender, address recipient, uint256 amount) internal returns (uint256) {\n        \n        uint256 feeApplicable = pair == recipient ? totalFeeIfSelling : totalFee;\n        uint256 feeAmount = amount.mul(feeApplicable).div(100);\n\n        _balances[address(this)] = _balances[address(this)].add(feeAmount);\n        emit Transfer(sender, address(this), feeAmount);\n\n        return amount.sub(feeAmount);\n    }\n\n    function swapBack() internal lockTheSwap {\n        \n        uint256 tokensToLiquify = _balances[address(this)];\n        uint256 amountToLiquify = tokensToLiquify.mul(lpFee).div(totalFee).div(2);\n        uint256 amountToSwap = tokensToLiquify.sub(amountToLiquify);\n\n        address[] memory path = new address[](2);\n        path[0] = address(this);\n        path[1] = router.WETH();\n\n        router.swapExactTokensForETHSupportingFeeOnTransferTokens(\n            amountToSwap,\n            0,\n            path,\n            address(this),\n            block.timestamp\n        );\n\n        uint256 amountETH = address(this).balance;\n        uint256 devBalance = amountETH.mul(devFee).div(totalFee);\n        uint256 hldBalance = amountETH.mul(hldFee).div(totalFee);\n\n        uint256 amountEthLiquidity = amountETH.mul(lpFee).div(totalFee).div(2);\n        uint256 amountEthReflection = amountETH.sub(devBalance).sub(hldBalance).sub(amountEthLiquidity);\n\n\n        if(amountETH > 0){\n            IBURNER(hldBurnerAddress).burnEmUp{value: hldBalance}();            \n            devWallet.transfer(devBalance);\n        }        \n\n        try dividendDistributor.deposit{value: amountEthReflection}() {} catch {}\n\n        if(amountToLiquify > 0){\n            router.addLiquidityETH{value: amountEthLiquidity}(\n                address(this),\n                amountToLiquify,\n                0,\n                0,\n                0x000000000000000000000000000000000000dEaD,\n                block.timestamp\n            );\n        }      \n    \n    }\n\n    receive() external payable { }\n\n}\n\n\ncontract proofTokenFactory is Ownable {\n\n    address ZERO = 0x0000000000000000000000000000000000000000;    \n\n    struct proofToken {\n        bool status;\n        address pair;\n        address owner;\n        uint256 unlockTime;        \n    }\n\n    mapping (address => proofToken) public validatedPairs;\n\n    address public hldAdmin;\n    address public routerAddress;\n    address public lockerAddress;\n    address public hldBurnerAddress;\n\n    event TokenCreated(address _address);\n\n    constructor(address initialRouterAddress, address initialHldBurner, address initialLockerAddress) {\n        routerAddress = initialRouterAddress;\n        hldBurnerAddress = initialHldBurner;\n        lockerAddress = initialLockerAddress;\n        hldAdmin = msg.sender;\n    }\n\n    function createToken(string memory tokenName, string memory tokenSymbol, uint256 initialSupply, address reflectionToken, \n                    uint256 initialReflectionFee, uint256 initialReflectionFeeOnSell, uint256 initialLpFee, uint256 initialLpFeeOnSell,\n                    uint256 initialDevFee, uint256 initialDevFeeOnSell, uint256 unlockTime) external payable {\n\n\n        require(unlockTime >= block.timestamp + 30 days, \"unlock under 30 days\");\n        require(msg.value >= 0.1 ether, \"not enough liquidity\");\n\n        //create token    \n        Fees.allFees memory fees = Fees.allFees(initialReflectionFee, initialReflectionFeeOnSell, initialLpFee, initialLpFeeOnSell,initialDevFee, initialDevFeeOnSell);\n        TokenCutter newToken = new TokenCutter(tokenName, tokenSymbol, initialSupply, msg.sender, reflectionToken, routerAddress, hldAdmin, hldBurnerAddress, fees);\n        TokenCreated(address(newToken));\n\n        //add liquidity\n        newToken.approve(routerAddress, type(uint256).max);        \n        IUniswapV2Router02 router = IUniswapV2Router02(routerAddress);\n        router.addLiquidityETH{ value: msg.value }(address(newToken), newToken.balanceOf(address(this)), 0,0, address(this), block.timestamp);\n\n        newToken.swapTradingStatus(); // disable trading\n\n        validatedPairs[address(newToken)] = proofToken(false, newToken.pair(), msg.sender, unlockTime);\n    }\n\n    function finalizeToken(address tokenAddress) public payable {\n        require(validatedPairs[tokenAddress].owner == msg.sender, \"!owner\");\n        require(validatedPairs[tokenAddress].status == false, \"validated\");\n\n\n        address _pair = validatedPairs[tokenAddress].pair;\n        uint256 _unlockTime = validatedPairs[tokenAddress].unlockTime;\n        IERC20(_pair).approve(lockerAddress, type(uint256).max);        \n\n        uint256 lpBalance = IERC20(validatedPairs[tokenAddress].pair).balanceOf(address(this));        \n\n        ITeamFinanceLocker(lockerAddress).lockTokens{value: msg.value}(_pair, msg.sender, lpBalance, _unlockTime);\n\n        ITokenCutter(tokenAddress).swapTradingStatus(); //enable trading\n        validatedPairs[tokenAddress].status = true;\n\n    }\n\n    function setLockerAddress(address newlockerAddress) external onlyOwner {\n        lockerAddress = newlockerAddress;\n    }     \n\n    function setRouterAddress(address newRouterAddress) external onlyOwner {\n        routerAddress = payable(newRouterAddress);\n    }    \n\n    function setHldBurner(address newHldBurnerAddress) external onlyOwner {\n        hldBurnerAddress = payable(newHldBurnerAddress);\n    }\n\n    function setHldAdmin(address newHldAdmin) external onlyOwner {\n        hldAdmin = newHldAdmin;\n    }      \n\n}",
  "sourcePath": "/Users/mark/ethereum/projectX/proof-contracts/contracts/ProofFactory.sol",
  "compiler": {
    "name": "solc",
    "version": "0.8.0+commit.c7dfd78e.Emscripten.clang"
  },
  "schemaVersion": "3.4.5",
  "updatedAt": "2022-03-10T08:24:25.718Z",
  "networkType": "ethereum",
  "devdoc": {
    "kind": "dev",
    "methods": {
      "owner()": {
        "details": "Returns the address of the current owner."
      },
      "renounceOwnership()": {
        "details": "Leaves the contract without owner. It will not be possible to call `onlyOwner` functions anymore. Can only be called by the current owner. NOTE: Renouncing ownership will leave the contract without an owner, thereby removing any functionality that is only available to the owner."
      },
      "transferOwnership(address)": {
        "details": "Transfers ownership of the contract to a new account (`newOwner`). Can only be called by the current owner."
      }
    },
    "version": 1
  },
  "userdoc": {
    "kind": "user",
    "methods": {},
    "version": 1
  }
}