{
  "contractName": "proofTokenFactory",
  "abi": [
    {
      "inputs": [
        {
          "internalType": "address",
          "name": "initialRouterAddress",
          "type": "address"
        },
        {
          "internalType": "address",
          "name": "initialHldBurner",
          "type": "address"
        },
        {
          "internalType": "address",
          "name": "initialLockerAddress",
          "type": "address"
        }
      ],
      "stateMutability": "nonpayable",
      "type": "constructor"
    },
    {
      "anonymous": false,
      "inputs": [
        {
          "indexed": true,
          "internalType": "address",
          "name": "previousOwner",
          "type": "address"
        },
        {
          "indexed": true,
          "internalType": "address",
          "name": "newOwner",
          "type": "address"
        }
      ],
      "name": "OwnershipTransferred",
      "type": "event"
    },
    {
      "anonymous": false,
      "inputs": [
        {
          "indexed": false,
          "internalType": "address",
          "name": "_address",
          "type": "address"
        }
      ],
      "name": "TokenCreated",
      "type": "event"
    },
    {
      "inputs": [],
      "name": "hldAdmin",
      "outputs": [
        {
          "internalType": "address",
          "name": "",
          "type": "address"
        }
      ],
      "stateMutability": "view",
      "type": "function",
      "constant": true
    },
    {
      "inputs": [],
      "name": "hldBurnerAddress",
      "outputs": [
        {
          "internalType": "address",
          "name": "",
          "type": "address"
        }
      ],
      "stateMutability": "view",
      "type": "function",
      "constant": true
    },
    {
      "inputs": [],
      "name": "lockerAddress",
      "outputs": [
        {
          "internalType": "address",
          "name": "",
          "type": "address"
        }
      ],
      "stateMutability": "view",
      "type": "function",
      "constant": true
    },
    {
      "inputs": [],
      "name": "owner",
      "outputs": [
        {
          "internalType": "address",
          "name": "",
          "type": "address"
        }
      ],
      "stateMutability": "view",
      "type": "function",
      "constant": true
    },
    {
      "inputs": [],
      "name": "renounceOwnership",
      "outputs": [],
      "stateMutability": "nonpayable",
      "type": "function"
    },
    {
      "inputs": [],
      "name": "routerAddress",
      "outputs": [
        {
          "internalType": "address",
          "name": "",
          "type": "address"
        }
      ],
      "stateMutability": "view",
      "type": "function",
      "constant": true
    },
    {
      "inputs": [
        {
          "internalType": "address",
          "name": "newOwner",
          "type": "address"
        }
      ],
      "name": "transferOwnership",
      "outputs": [],
      "stateMutability": "nonpayable",
      "type": "function"
    },
    {
      "inputs": [
        {
          "internalType": "address",
          "name": "",
          "type": "address"
        }
      ],
      "name": "validatedPairs",
      "outputs": [
        {
          "internalType": "bool",
          "name": "status",
          "type": "bool"
        },
        {
          "internalType": "address",
          "name": "pair",
          "type": "address"
        },
        {
          "internalType": "address",
          "name": "owner",
          "type": "address"
        },
        {
          "internalType": "uint256",
          "name": "unlockTime",
          "type": "uint256"
        },
        {
          "internalType": "uint256",
          "name": "lockId",
          "type": "uint256"
        }
      ],
      "stateMutability": "view",
      "type": "function",
      "constant": true
    },
    {
      "inputs": [
        {
          "internalType": "string",
          "name": "tokenName",
          "type": "string"
        },
        {
          "internalType": "string",
          "name": "tokenSymbol",
          "type": "string"
        },
        {
          "internalType": "uint256",
          "name": "initialSupply",
          "type": "uint256"
        },
        {
          "internalType": "address",
          "name": "reflectionToken",
          "type": "address"
        },
        {
          "internalType": "uint256",
          "name": "initialReflectionFee",
          "type": "uint256"
        },
        {
          "internalType": "uint256",
          "name": "initialReflectionFeeOnSell",
          "type": "uint256"
        },
        {
          "internalType": "uint256",
          "name": "initialLpFee",
          "type": "uint256"
        },
        {
          "internalType": "uint256",
          "name": "initialLpFeeOnSell",
          "type": "uint256"
        },
        {
          "internalType": "uint256",
          "name": "initialDevFee",
          "type": "uint256"
        },
        {
          "internalType": "uint256",
          "name": "initialDevFeeOnSell",
          "type": "uint256"
        },
        {
          "internalType": "uint256",
          "name": "unlockTime",
          "type": "uint256"
        }
      ],
      "name": "createToken",
      "outputs": [],
      "stateMutability": "payable",
      "type": "function",
      "payable": true
    },
    {
      "inputs": [
        {
          "internalType": "address",
          "name": "tokenAddress",
          "type": "address"
        }
      ],
      "name": "finalizeToken",
      "outputs": [],
      "stateMutability": "payable",
      "type": "function",
      "payable": true
    },
    {
      "inputs": [
        {
          "internalType": "address",
          "name": "tokenAddress",
          "type": "address"
        }
      ],
      "name": "cancelToken",
      "outputs": [],
      "stateMutability": "nonpayable",
      "type": "function"
    },
    {
      "inputs": [
        {
          "internalType": "address",
          "name": "newlockerAddress",
          "type": "address"
        }
      ],
      "name": "setLockerAddress",
      "outputs": [],
      "stateMutability": "nonpayable",
      "type": "function"
    },
    {
      "inputs": [
        {
          "internalType": "address",
          "name": "newRouterAddress",
          "type": "address"
        }
      ],
      "name": "setRouterAddress",
      "outputs": [],
      "stateMutability": "nonpayable",
      "type": "function"
    },
    {
      "inputs": [
        {
          "internalType": "address",
          "name": "newHldBurnerAddress",
          "type": "address"
        }
      ],
      "name": "setHldBurner",
      "outputs": [],
      "stateMutability": "nonpayable",
      "type": "function"
    },
    {
      "inputs": [
        {
          "internalType": "address",
          "name": "newHldAdmin",
          "type": "address"
        }
      ],
      "name": "setHldAdmin",
      "outputs": [],
      "stateMutability": "nonpayable",
      "type": "function"
    }
  ],
  "bytecode": "0x6080604052600180546001600160a01b03191690553480156200002157600080fd5b5060405162005a4738038062005a47833981016040819052620000449162000119565b6200005862000052620000a8565b620000ac565b600480546001600160a01b039485166001600160a01b0319918216179091556006805493851693821693909317909255600580549190931690821617909155600380549091163317905562000162565b3390565b600080546001600160a01b038381166001600160a01b0319831681178455604051919092169283917f8be0079c531659141344cd1fd0a4f28419497f9722a3daafe3b4186f6b6457e09190a35050565b80516001600160a01b03811681146200011457600080fd5b919050565b6000806000606084860312156200012e578283fd5b6200013984620000fc565b92506200014960208501620000fc565b91506200015960408501620000fc565b90509250925092565b6158d580620001726000396000f3fe608060405260043610620000fe5760003560e01c8063653ed5d41162000097578063e6a053d01162000061578063e6a053d01462000278578063ede1588f146200029d578063f2fde38b14620002b5578063f4f1af3a14620002da57620000fe565b8063653ed5d4146200020b578063715018a61462000230578063774b584714620002485780638da5cb5b146200026057620000fe565b80633268cc5611620000d95780633268cc5614620001825780633675f29b14620001a957806341cb87fc14620001c15780635f1845bc14620001e657620000fe565b80630c5934e614620001035780632dcacf44146200011c578063318c359b146200015d575b600080fd5b6200011a620001143660046200123e565b620002f1565b005b3480156200012957600080fd5b50620001416200013b366004620011d7565b62000771565b604051620001549594939291906200144d565b60405180910390f35b3480156200016a57600080fd5b506200011a6200017c366004620011d7565b620007b0565b3480156200018f57600080fd5b506200019a62000818565b604051620001549190620013bc565b348015620001b657600080fd5b506200019a62000827565b348015620001ce57600080fd5b506200011a620001e0366004620011d7565b62000836565b348015620001f357600080fd5b506200011a62000205366004620011d7565b6200089e565b3480156200021857600080fd5b506200011a6200022a366004620011d7565b62000906565b3480156200023d57600080fd5b506200011a62000c41565b3480156200025557600080fd5b506200019a62000c95565b3480156200026d57600080fd5b506200019a62000ca4565b3480156200028557600080fd5b506200011a62000297366004620011d7565b62000cb3565b348015620002aa57600080fd5b506200019a62000d1b565b348015620002c257600080fd5b506200011a620002d4366004620011d7565b62000d2a565b6200011a620002eb366004620011d7565b62000da7565b620003004262278d006200164a565b8110156200032b5760405162461bcd60e51b81526004016200032290620015c7565b60405180910390fd5b6702c68af0bb140000341015620003565760405162461bcd60e51b8152600401620003229062001530565b60006040518060c0016040528089815260200188815260200187815260200186815260200185815260200184815250905060008c8c8c338d600460009054906101000a90046001600160a01b0316600360009054906101000a90046001600160a01b0316600660009054906101000a90046001600160a01b031689604051620003df906200112e565b620003f3999897969594939291906200147e565b604051809103906000f08015801562000410573d6000803e3d6000fd5b5090507f2e2b3f61b70d2d131b2a807371103cc98d51adcaa5e9a8f9c32658ad8426e74e81604051620004449190620013bc565b60405180910390a16004805460405163095ea7b360e01b81526001600160a01b038085169363095ea7b39362000482939216916000199101620013f9565b602060405180830381600087803b1580156200049d57600080fd5b505af1158015620004b2573d6000803e3d6000fd5b505050506040513d601f19601f82011682018060405250810190620004d891906200121c565b50600480546040516370a0823160e01b81526001600160a01b0391821692839263f305d71992349287928316916370a08231916200051991309101620013bc565b60206040518083038186803b1580156200053257600080fd5b505afa15801562000547573d6000803e3d6000fd5b505050506040513d601f19601f820116820180604052508101906200056d919062001303565b60008030426040518863ffffffff1660e01b8152600401620005959695949392919062001412565b6060604051808303818588803b158015620005af57600080fd5b505af1158015620005c4573d6000803e3d6000fd5b50505050506040513d601f19601f82011682018060405250810190620005eb919062001340565b505050816001600160a01b031663fbd757536040518163ffffffff1660e01b8152600401600060405180830381600087803b1580156200062a57600080fd5b505af11580156200063f573d6000803e3d6000fd5b505050506040518060a00160405280600015158152602001836001600160a01b031663a8aa1b316040518163ffffffff1660e01b815260040160206040518083038186803b1580156200069157600080fd5b505afa158015620006a6573d6000803e3d6000fd5b505050506040513d601f19601f82011682018060405250810190620006cc9190620011fd565b6001600160a01b03908116825233602080840191909152604080840198909852600060609384018190529582168652600280825295889020845181549286015160ff1990931690151517610100600160a81b03191661010092841692909202919091178155968301516001880180546001600160a01b031916919092161790558101519285019290925550608001516003909201919091555050505050505050505050565b6002602081905260009182526040909120805460018201549282015460039092015460ff8216936001600160a01b036101009093048316939216919085565b620007ba620010da565b6001600160a01b0316620007cd62000ca4565b6001600160a01b031614620007f65760405162461bcd60e51b81526004016200032290620015f5565b600380546001600160a01b0319166001600160a01b0392909216919091179055565b6004546001600160a01b031681565b6005546001600160a01b031681565b62000840620010da565b6001600160a01b03166200085362000ca4565b6001600160a01b0316146200087c5760405162461bcd60e51b81526004016200032290620015f5565b600480546001600160a01b0319166001600160a01b0392909216919091179055565b620008a8620010da565b6001600160a01b0316620008bb62000ca4565b6001600160a01b031614620008e45760405162461bcd60e51b81526004016200032290620015f5565b600680546001600160a01b0319166001600160a01b0392909216919091179055565b6001600160a01b03818116600090815260026020526040902060010154163314620009455760405162461bcd60e51b815260040162000322906200162a565b6001600160a01b03811660009081526002602052604090205460ff1615620009815760405162461bcd60e51b81526004016200032290620015a4565b6001600160a01b0380821660009081526002602052604090819020805460019091015460048054935163095ea7b360e01b81526101009093048516949182169390911691849163095ea7b391620009df9185916000199101620013f9565b602060405180830381600087803b158015620009fa57600080fd5b505af115801562000a0f573d6000803e3d6000fd5b505050506040513d601f19601f8201168201806040525081019062000a3591906200121c565b506040516370a0823160e01b81526000906001600160a01b038516906370a082319062000a67903090600401620013bc565b60206040518083038186803b15801562000a8057600080fd5b505afa15801562000a95573d6000803e3d6000fd5b505050506040513d601f19601f8201168201806040525081019062000abb919062001303565b9050846001600160a01b031663546a88116040518163ffffffff1660e01b8152600401600060405180830381600087803b15801562000af957600080fd5b505af115801562000b0e573d6000803e3d6000fd5b5050604051629d473b60e21b81526001600160a01b03851692506302751cec915062000b4a908890859060009081908a90429060040162001412565b6040805180830381600087803b15801562000b6457600080fd5b505af115801562000b79573d6000803e3d6000fd5b505050506040513d601f19601f8201168201806040525081019062000b9f91906200131c565b5050846001600160a01b031663fbd757536040518163ffffffff1660e01b8152600401600060405180830381600087803b15801562000bdd57600080fd5b505af115801562000bf2573d6000803e3d6000fd5b5050506001600160a01b039095166000908152600260208190526040822080546001600160a81b03191681556001810180546001600160a01b0319169055908101829055600301555050505050565b62000c4b620010da565b6001600160a01b031662000c5e62000ca4565b6001600160a01b03161462000c875760405162461bcd60e51b81526004016200032290620015f5565b62000c936000620010de565b565b6006546001600160a01b031681565b6000546001600160a01b031690565b62000cbd620010da565b6001600160a01b031662000cd062000ca4565b6001600160a01b03161462000cf95760405162461bcd60e51b81526004016200032290620015f5565b600580546001600160a01b0319166001600160a01b0392909216919091179055565b6003546001600160a01b031681565b62000d34620010da565b6001600160a01b031662000d4762000ca4565b6001600160a01b03161462000d705760405162461bcd60e51b81526004016200032290620015f5565b6001600160a01b03811662000d995760405162461bcd60e51b815260040162000322906200155e565b62000da481620010de565b50565b6001600160a01b0381811660009081526002602052604090206001015416331462000de65760405162461bcd60e51b815260040162000322906200162a565b6001600160a01b03811660009081526002602052604090205460ff161562000e225760405162461bcd60e51b81526004016200032290620015a4565b6001600160a01b038082166000908152600260208190526040918290208054910154600554925163095ea7b360e01b81526101009092048416939092849263095ea7b39262000e7a92169060001990600401620013f9565b602060405180830381600087803b15801562000e9557600080fd5b505af115801562000eaa573d6000803e3d6000fd5b505050506040513d601f19601f8201168201806040525081019062000ed091906200121c565b506040516370a0823160e01b81526000906001600160a01b038416906370a082319062000f02903090600401620013bc565b60206040518083038186803b15801562000f1b57600080fd5b505afa15801562000f30573d6000803e3d6000fd5b505050506040513d601f19601f8201168201806040525081019062000f56919062001303565b600554604051633ea99e0f60e11b81529192506000916001600160a01b0390911690637d533c1e90349062000f96908890339088908a90600401620013d0565b6020604051808303818588803b15801562000fb057600080fd5b505af115801562000fc5573d6000803e3d6000fd5b50505050506040513d601f19601f8201168201806040525081019062000fec919062001303565b6001600160a01b038616600081815260026020526040808220600301849055805163fbd7575360e01b81529051939450919263fbd7575392600480820193929182900301818387803b1580156200104257600080fd5b505af115801562001057573d6000803e3d6000fd5b50505050846001600160a01b03166327193bc46040518163ffffffff1660e01b8152600401600060405180830381600087803b1580156200109757600080fd5b505af1158015620010ac573d6000803e3d6000fd5b5050506001600160a01b039095166000908152600260205260409020805460ff191660011790555050505050565b3390565b600080546001600160a01b038381166001600160a01b0319831681178455604051919092169283917f8be0079c531659141344cd1fd0a4f28419497f9722a3daafe3b4186f6b6457e09190a35050565b614204806200169c83390190565b8035620011498162001685565b919050565b600082601f8301126200115f578081fd5b813567ffffffffffffffff808211156200117d576200117d6200166f565b604051601f8301601f191681016020018281118282101715620011a457620011a46200166f565b604052828152848301602001861015620011bc578384fd5b82602086016020830137918201602001929092529392505050565b600060208284031215620011e9578081fd5b8135620011f68162001685565b9392505050565b6000602082840312156200120f578081fd5b8151620011f68162001685565b6000602082840312156200122e578081fd5b81518015158114620011f6578182fd5b60008060008060008060008060008060006101608c8e03121562001260578687fd5b67ffffffffffffffff808d35111562001277578788fd5b620012868e8e358f016200114e565b9b508060208e0135111562001299578788fd5b50620012ac8d60208e01358e016200114e565b995060408c01359850620012c360608d016200113c565b9a9d999c50979a60808101359960a0820135995060c0820135985060e0820135975061010082013596506101208201359550610140909101359350915050565b60006020828403121562001315578081fd5b5051919050565b600080604083850312156200132f578182fd5b505080516020909101519092909150565b60008060006060848603121562001355578283fd5b8351925060208401519150604084015190509250925092565b60008151808452815b81811015620013955760208185018101518683018201520162001377565b81811115620013a75782602083870101525b50601f01601f19169290920160200192915050565b6001600160a01b0391909116815260200190565b6001600160a01b0394851681529290931660208301526040820152606081019190915260800190565b6001600160a01b03929092168252602082015260400190565b6001600160a01b039687168152602081019590955260408501939093526060840191909152909216608082015260a081019190915260c00190565b94151585526001600160a01b0393841660208601529190921660408401526060830191909152608082015260a00190565b60006101c0808352620014948184018d6200136e565b90508281036020840152620014aa818c6200136e565b91505088604083015260018060a01b038089166060840152808816608084015280871660a084015280861660c084015280851660e0840152508251610100830152602083015161012083015260408301516101408301526060830151610160830152608083015161018083015260a08301516101a08301529a9950505050505050505050565b6020808252601490820152736e6f7420656e6f756768206c697175696469747960601b604082015260600190565b60208082526026908201527f4f776e61626c653a206e6577206f776e657220697320746865207a65726f206160408201526564647265737360d01b606082015260800190565b6020808252600990820152681d985b1a59185d195960ba1b604082015260600190565b602080825260149082015273756e6c6f636b20756e646572203330206461797360601b604082015260600190565b6020808252818101527f4f776e61626c653a2063616c6c6572206973206e6f7420746865206f776e6572604082015260600190565b60208082526006908201526510b7bbb732b960d11b604082015260600190565b600082198211156200166a57634e487b7160e01b81526011600452602481fd5b500190565b634e487b7160e01b600052604160045260246000fd5b6001600160a01b038116811462000da457600080fdfe60806040526207a120600155600780546001600160a01b031990811661dead17909155600880549091169055600a805460ff60a01b1916600160a01b1790556002600f55601c805460ff60b01b1960ff60a81b19909116600160a81b1716600160b01b1790553480156200007257600080fd5b506040516200420438038062004204833981016040819052620000959162000707565b8851620000aa9060059060208c019062000588565b508751620000c09060069060208b019062000588565b508660046000828254620000d59190620008bc565b90915550503360009081526002602052604081208054899290620000fb908490620008bc565b9091555060c8905062000110886002620008f8565b6200011c9190620008d7565b601e5560646200012e886003620008f8565b6200013a9190620008d7565b601f55610fa06200014d886005620008f8565b620001599190620008d7565b6020908155601880546001600160a01b0319166001600160a01b0387811691909117918290556040805163c45a015560e01b81529051929091169263c45a015592600480840193829003018186803b158015620001b557600080fd5b505afa158015620001ca573d6000803e3d6000fd5b505050506040513d601f19601f82011682018060405250810190620001f09190620006ea565b6001600160a01b031663c9c65396601860009054906101000a90046001600160a01b03166001600160a01b031663ad5c46486040518163ffffffff1660e01b815260040160206040518083038186803b1580156200024d57600080fd5b505afa15801562000262573d6000803e3d6000fd5b505050506040513d601f19601f82011682018060405250810190620002889190620006ea565b306040518363ffffffff1660e01b8152600401620002a892919062000853565b602060405180830381600087803b158015620002c357600080fd5b505af1158015620002d8573d6000803e3d6000fd5b505050506040513d601f19601f82011682018060405250810190620002fe9190620006ea565b601980546001600160a01b0319166001600160a01b0392831617905530600081815260036020908152604080832060185490951683529390528290206000199055905185918791620003509062000617565b6200035e939291906200086d565b604051809103906000f0801580156200037b573d6000803e3d6000fd5b50600080546001600160a01b039283166001600160a01b0319918216178255601a80549091163317815530808352600b60209081526040808520805460ff19908116600190811790925585548816875282872080548216831790558d88168752600c8452828720805482168317905560198054891688528388208054831684179055955488168752828720805482168317905560078054891688528388208054831684179055600880548a1689528489208054841685179055965489168852600d8552838820805483168417905594875282872080548216831790559354871686528186208054851682179055935490951684529284902080549091169091179055825160108190559183015160118190556080840151601281905584830151601355606085015160145560a0850151601555600f54620004e6949093620004d293919284929091620014f462000573821b17901c565b6200057360201b620014f41790919060201c565b60168190555062000518600f54620004d2601354620004d26014546015546200057360201b620014f41790919060201c565b60175550601b80546001600160a01b039687166001600160a01b03199182168117909255601c805482169092179091556009805492871692821692909217909155600a80549290951691161790925550620009839350505050565b6000620005818284620008bc565b9392505050565b82805462000596906200091a565b90600052602060002090601f016020900481019282620005ba576000855562000605565b82601f10620005d557805160ff191683800117855562000605565b8280016001018555821562000605579182015b8281111562000605578251825591602001919060010190620005e8565b506200061392915062000625565b5090565b61101380620031f183390190565b5b8082111562000613576000815560010162000626565b80516001600160a01b03811681146200065457600080fd5b919050565b600082601f8301126200066a578081fd5b81516001600160401b038111156200068657620006866200096d565b60206200069c601f8301601f1916820162000890565b8281528582848701011115620006b0578384fd5b835b83811015620006cf578581018301518282018401528201620006b2565b83811115620006e057848385840101525b5095945050505050565b600060208284031215620006fc578081fd5b62000581826200063c565b6000806000806000806000806000898b036101c081121562000727578586fd5b8a516001600160401b03808211156200073e578788fd5b6200074c8e838f0162000659565b9b5060208d015191508082111562000762578788fd5b620007708e838f0162000659565b9a5060408d015199506200078760608e016200063c565b98506200079760808e016200063c565b9750620007a760a08e016200063c565b9650620007b760c08e016200063c565b9550620007c760e08e016200063c565b945060c060ff1984011215620007db578384fd5b604051925060c0830191508282108183111715620007fd57620007fd6200096d565b5080604052506101008b015181526101208b015160208201526101408b015160408201526101608b015160608201526101808b015160808201526101a08b015160a0820152809150509295985092959850929598565b6001600160a01b0392831681529116602082015260400190565b6001600160a01b0393841681529183166020830152909116604082015260600190565b6040518181016001600160401b0381118282101715620008b457620008b46200096d565b604052919050565b60008219821115620008d257620008d262000957565b500190565b600082620008f357634e487b7160e01b81526012600452602481fd5b500490565b600081600019048311821515161562000915576200091562000957565b500290565b6002810460018216806200092f57607f821691505b602082108114156200095157634e487b7160e01b600052602260045260246000fd5b50919050565b634e487b7160e01b600052601160045260246000fd5b634e487b7160e01b600052604160045260246000fd5b61285e80620009936000396000f3fe60806040526004361061036f5760003560e01c8063807c2d9c116101c6578063c45a0155116100f7578063e5d8510811610095578063f7c722051161006f578063f7c72205146108f2578063f887ea4014610912578063fabe628314610927578063fbd757531461094757610376565b8063e5d85108146108a8578063e66b1d1e146108bd578063ede1588f146108dd57610376565b8063cc6badb3116100d1578063cc6badb31461083e578063d4fb9a0114610853578063d920334e14610868578063dd62ed3e1461088857610376565b8063c45a0155146107f4578063ca987b0e14610809578063cb29813c1461081e57610376565b8063a3e6761011610164578063a9059cbb1161013e578063a9059cbb1461078a578063b515566a146107aa578063bad3ea6a146107ca578063bf56b371146107df57610376565b8063a3e6761014610740578063a457c2d714610755578063a8aa1b311461077557610376565b80638ea5220f116101a05780638ea5220f146106e15780639502c426146106f657806395d89b411461070b578063a3a2e89e1461072057610376565b8063807c2d9c1461069757806383ad7994146106ac5780638b42507f146106c157610376565b80633f4218e0116102a05780636827e7641161023e578063774b584711610218578063774b58471461062b5780637c0ff2051461064d5780637d1db4a5146106625780637db1342c1461067757610376565b80636827e764146105e1578063704ce43e146105f657806370a082311461060b57610376565b806344de2e4c1161027a57806344de2e4c1461058d5780634a74bb02146105a2578063546a8811146105b757806366b5d882146105cc57610376565b80633f4218e01461052d5780634355855a1461054d57806343d49dda1461056d57610376565b806327193bc41161030d5780632d48e896116102e75780632d48e896146104ab578063313ce567146104cb57806339509351146104ed5780633dab52691461050d57610376565b806327193bc414610461578063273123b7146104765780632b112e491461049657610376565b806318160ddd1161034957806318160ddd146103f55780631df4ccfc1461040a5780631f53ac021461041f57806323b872dd1461044157610376565b80630445b6671461037b57806306fdde03146103a6578063095ea7b3146103c857610376565b3661037657005b600080fd5b34801561038757600080fd5b5061039061095c565b60405161039d919061268b565b60405180910390f35b3480156103b257600080fd5b506103bb610962565b60405161039d91906123af565b3480156103d457600080fd5b506103e86103e3366004612173565b6109f4565b60405161039d91906123a4565b34801561040157600080fd5b50610390610a16565b34801561041657600080fd5b50610390610a1c565b34801561042b57600080fd5b5061043f61043a36600461208f565b610a22565b005b34801561044d57600080fd5b506103e861045c3660046120ff565b610a82565b34801561046d57600080fd5b5061043f610ab3565b34801561048257600080fd5b5061043f61049136600461208f565b610b0e565b3480156104a257600080fd5b50610390610b64565b3480156104b757600080fd5b5061043f6104c63660046122ac565b610bad565b3480156104d757600080fd5b506104e0610c4a565b60405161039d9190612712565b3480156104f957600080fd5b506103e8610508366004612173565b610c4f565b34801561051957600080fd5b5061043f610528366004612279565b610c9b565b34801561053957600080fd5b506103e861054836600461208f565b610cf2565b34801561055957600080fd5b506103e861056836600461208f565b610d07565b34801561057957600080fd5b5061043f61058836600461208f565b610d1c565b34801561059957600080fd5b506103e8610d73565b3480156105ae57600080fd5b506103e8610d83565b3480156105c357600080fd5b5061043f610d93565b3480156105d857600080fd5b5061043f610e36565b3480156105ed57600080fd5b50610390610e7d565b34801561060257600080fd5b50610390610e83565b34801561061757600080fd5b5061039061062636600461208f565b610e89565b34801561063757600080fd5b50610640610ea8565b60405161039d919061233c565b34801561065957600080fd5b50610390610eb7565b34801561066e57600080fd5b50610390610ebd565b34801561068357600080fd5b5061043f610692366004612294565b610ec3565b3480156106a357600080fd5b50610390610f4b565b3480156106b857600080fd5b50610390610f51565b3480156106cd57600080fd5b506103e86106dc36600461208f565b610f57565b3480156106ed57600080fd5b50610640610f6c565b34801561070257600080fd5b50610390610f7b565b34801561071757600080fd5b506103bb610f81565b34801561072c57600080fd5b5061043f61073b36600461213f565b610f90565b34801561074c57600080fd5b50610640610ff0565b34801561076157600080fd5b506103e8610770366004612173565b610fff565b34801561078157600080fd5b5061064061106b565b34801561079657600080fd5b506103e86107a5366004612173565b61107a565b3480156107b657600080fd5b5061043f6107c536600461219e565b611092565b3480156107d657600080fd5b50610640611141565b3480156107eb57600080fd5b50610390611150565b34801561080057600080fd5b50610640611156565b34801561081557600080fd5b50610390611165565b34801561082a57600080fd5b5061043f6108393660046122fa565b61116b565b34801561084a57600080fd5b5061039061120b565b34801561085f57600080fd5b506103e8611211565b34801561087457600080fd5b5061043f610883366004612294565b611221565b34801561089457600080fd5b506103906108a33660046120c7565b6112a9565b3480156108b457600080fd5b506103906112d4565b3480156108c957600080fd5b5061043f6108d836600461225f565b6112da565b3480156108e957600080fd5b5061064061137b565b3480156108fe57600080fd5b5061043f61090d36600461208f565b61138a565b34801561091e57600080fd5b506106406113e1565b34801561093357600080fd5b5061043f61094236600461213f565b6113f0565b34801561095357600080fd5b5061043f61149e565b60205481565b6060600580546109719061278e565b80601f016020809104026020016040519081016040528092919081815260200182805461099d9061278e565b80156109ea5780601f106109bf576101008083540402835291602001916109ea565b820191906000526020600020905b8154815290600101906020018083116109cd57829003601f168201915b5050505050905090565b6000806109ff611500565b9050610a0c818585611504565b5060019392505050565b60045490565b60165481565b610a2a611500565b601b546001600160a01b03908116911614610a605760405162461bcd60e51b8152600401610a5790612545565b60405180910390fd5b601c80546001600160a01b0319166001600160a01b0392909216919091179055565b600080610a8d611500565b9050610a9a8582856115b8565b610aa5858585611602565b5060019150505b9392505050565b610abb611500565b601a546001600160a01b03908116911614610ae85760405162461bcd60e51b8152600401610a5790612604565b600e5415610b085760405162461bcd60e51b8152600401610a579061257a565b42600e55565b610b16611500565b601b546001600160a01b03908116911614610b435760405162461bcd60e51b8152600401610a5790612545565b6001600160a01b03166000908152601d60205260409020805460ff19169055565b600854600090610ba890610b80906001600160a01b0316610e89565b600754610ba290610b99906001600160a01b0316610e89565b60045490611a83565b90611a83565b905090565b610bb5611500565b601b546001600160a01b03908116911614610be25760405162461bcd60e51b8152600401610a5790612545565b6000546040516316a4744b60e11b81526001600160a01b0390911690632d48e89690610c149085908590600401612704565b600060405180830381600087803b158015610c2e57600080fd5b505af1158015610c42573d6000803e3d6000fd5b505050505050565b600990565b600080610c5a611500565b6001600160a01b03808216600090815260036020908152604080832093891683529290522054909150610a0c9082908690610c96908790612720565b611504565b610ca3611500565b601b546001600160a01b03908116911614610cd05760405162461bcd60e51b8152600401610a5790612545565b601c8054921515600160a81b0260ff60a81b1990931692909217909155602055565b600b6020526000908152604090205460ff1681565b600d6020526000908152604090205460ff1681565b610d24611500565b600a546001600160a01b03908116911614610d515760405162461bcd60e51b8152600401610a5790612502565b600a80546001600160a01b0319166001600160a01b0392909216919091179055565b600a54600160a01b900460ff1681565b601c54600160a81b900460ff1681565b610d9b611500565b601a546001600160a01b03908116911614610dc85760405162461bcd60e51b8152600401610a5790612604565b601880546001600160a01b039081166000908152600b60209081526040808320805460ff199081166001908117909255955485168452600c9092528083208054861683179055601b5490931682529190208054909216179055601c805460ff60b01b1916600160b01b179055565b610e3e611500565b601b546001600160a01b03908116911614610e6b5760405162461bcd60e51b8152600401610a5790612545565b600a80546001600160a01b0319169055565b60125481565b60115481565b6001600160a01b0381166000908152600260205260409020545b919050565b6009546001600160a01b031681565b60145481565b601e5481565b610ecb611500565b601b546001600160a01b03908116911614610ef85760405162461bcd60e51b8152600401610a5790612545565b600e54610f175760405162461bcd60e51b8152600401610a57906124df565b600e54610f279062015180612720565b421015610f465760405162461bcd60e51b8152600401610a579061249d565b601f55565b601f5481565b60105481565b600c6020526000908152604090205460ff1681565b601c546001600160a01b031681565b60155481565b6060600680546109719061278e565b610f98611500565b601b546001600160a01b03908116911614610fc55760405162461bcd60e51b8152600401610a5790612545565b6001600160a01b03919091166000908152600b60205260409020805460ff1916911515919091179055565b601b546001600160a01b031681565b60008061100a611500565b6001600160a01b03808216600090815260036020908152604080832093891683529290522054909150838110156110535760405162461bcd60e51b8152600401610a5790612646565b6110608286868403611504565b506001949350505050565b6019546001600160a01b031681565b600080611085611500565b9050611060818585611602565b61109a611500565b600a546001600160a01b039081169116146110c75760405162461bcd60e51b8152600401610a5790612502565b60005b815181101561113d576001601d60008484815181106110f957634e487b7160e01b600052603260045260246000fd5b6020908102919091018101516001600160a01b03168252810191909152604001600020805460ff191691151591909117905580611135816127c9565b9150506110ca565b5050565b6000546001600160a01b031681565b600e5481565b601a546001600160a01b031681565b60175481565b611173611500565b600a546001600160a01b039081169116146111a05760405162461bcd60e51b8152600401610a5790612502565b601086905560118490556012829055601385905560148390556015819055600f546111d7906111d1888186896114f4565b906114f4565b601681905550611200600f546111d16013546111d16014546015546114f490919063ffffffff16565b601755505050505050565b60135481565b601c54600160b01b900460ff1681565b611229611500565b601b546001600160a01b039081169116146112565760405162461bcd60e51b8152600401610a5790612545565b600e546112755760405162461bcd60e51b8152600401610a57906124df565b600e546112859062015180612720565b4210156112a45760405162461bcd60e51b8152600401610a579061249d565b601e55565b6001600160a01b03918216600090815260036020908152604080832093909416825291909152205490565b600f5481565b6112e2611500565b601b546001600160a01b0390811691161461130f5760405162461bcd60e51b8152600401610a5790612545565b600e5461132e5760405162461bcd60e51b8152600401610a57906124df565b600e5461133e9062015180612720565b42101561135d5760405162461bcd60e51b8152600401610a579061249d565b600a8054911515600160a01b0260ff60a01b19909216919091179055565b600a546001600160a01b031681565b611392611500565b600a546001600160a01b039081169116146113bf5760405162461bcd60e51b8152600401610a5790612502565b600980546001600160a01b0319166001600160a01b0392909216919091179055565b6018546001600160a01b031681565b6113f8611500565b601b546001600160a01b039081169116146114255760405162461bcd60e51b8152600401610a5790612545565b600e546114445760405162461bcd60e51b8152600401610a57906124df565b600e546114549062015180612720565b4210156114735760405162461bcd60e51b8152600401610a579061249d565b6001600160a01b03919091166000908152600c60205260409020805460ff1916911515919091179055565b6114a6611500565b601a546001600160a01b039081169116146114d35760405162461bcd60e51b8152600401610a5790612604565b601c805460ff60b01b198116600160b01b9182900460ff1615909102179055565b6000610aac8284612720565b3390565b6001600160a01b03831661152a5760405162461bcd60e51b8152600401610a57906125c0565b6001600160a01b0382166115505760405162461bcd60e51b8152600401610a5790612424565b6001600160a01b0380841660008181526003602090815260408083209487168084529490915290819020849055517f8c5be1e5ebec7d5bd14f71427d1e84f3dd0314c0f7b2291e5b200ac8c7c3b925906115ab90859061268b565b60405180910390a3505050565b60006115c484846112a9565b905060001981146115fc57818110156115ef5760405162461bcd60e51b8152600401610a5790612466565b6115fc8484848403611504565b50505050565b601c54600090600160b01b900460ff1661162e5760405162461bcd60e51b8152600401610a5790612402565b6001600160a01b0384166000908152601d602052604090205460ff1615801561167057506001600160a01b0383166000908152601d602052604090205460ff16155b61167957600080fd5b601c54600160a01b900460ff161561169d57611696848484611a8f565b9050610aac565b601e54821115806116c657506001600160a01b0384166000908152600c602052604090205460ff165b6116e25760405162461bcd60e51b8152600401610a57906125a4565b6001600160a01b0383166000908152600c602052604090205460ff161580156117145750600a54600160a01b900460ff165b1561175d57601f546001600160a01b03841660009081526002602052604090205461173f90846114f4565b111561175d5760405162461bcd60e51b8152600401610a57906124bf565b6019546001600160a01b031633148015906117825750601c54600160a01b900460ff16155b80156117975750601c54600160a81b900460ff165b80156117b6575060208054306000908152600290925260409091205410155b156117c3576117c3611b73565b6040805180820182526014815273496e73756666696369656e742042616c616e636560601b6020808301919091526001600160a01b038716600090815260029091529190912054611815918490611f6f565b6001600160a01b038516600090815260026020908152604080832093909355600b90529081205460ff1615801561186557506001600160a01b0384166000908152600b602052604090205460ff16155b61186f578261187a565b61187a858585611f9b565b6001600160a01b0385166000908152600260205260409020549091506118a090826114f4565b6001600160a01b038086166000908152600260209081526040808320949094559188168152600d909152205460ff1661194057600080546001600160a01b0387811683526002602052604092839020549251630a5b654b60e11b81529116916314b6ca9691611913918991600401612350565b600060405180830381600087803b15801561192d57600080fd5b505af192505050801561193e575060015b505b6001600160a01b0384166000908152600d602052604090205460ff166119cd57600080546001600160a01b0386811683526002602052604092839020549251630a5b654b60e11b81529116916314b6ca96916119a0918891600401612350565b600060405180830381600087803b1580156119ba57600080fd5b505af19250505080156119cb575060015b505b6000546001546040516001624d3b8760e01b031981526001600160a01b039092169163ffb2c47991611a019160040161268b565b600060405180830381600087803b158015611a1b57600080fd5b505af1925050508015611a2c575060015b50836001600160a01b0316856001600160a01b03167fddf252ad1be2c89b69c2b068fc378daa952ba7f163c4a11628f55a4df523b3ef83604051611a70919061268b565b60405180910390a3506001949350505050565b6000610aac8284612777565b6040805180820182526014815273496e73756666696369656e742042616c616e636560601b6020808301919091526001600160a01b0386166000908152600290915291822054611ae0918490611f6f565b6001600160a01b038086166000908152600260205260408082209390935590851681522054611b0f90836114f4565b6001600160a01b0380851660008181526002602052604090819020939093559151908616907fddf252ad1be2c89b69c2b068fc378daa952ba7f163c4a11628f55a4df523b3ef90611b6190869061268b565b60405180910390a35060019392505050565b601c805460ff60a01b1916600160a01b179055306000908152600260208190526040822054601654601154919392611bba929091611bb4918290879061205c565b90612068565b90506000611bc88383611a83565b60408051600280825260608201835292935060009290916020830190803683370190505090503081600081518110611c1057634e487b7160e01b600052603260045260246000fd5b6001600160a01b03928316602091820292909201810191909152601854604080516315ab88c960e31b81529051919093169263ad5c4648926004808301939192829003018186803b158015611c6457600080fd5b505afa158015611c78573d6000803e3d6000fd5b505050506040513d601f19601f82011682018060405250810190611c9c91906120ab565b81600181518110611cbd57634e487b7160e01b600052603260045260246000fd5b6001600160a01b03928316602091820292909201015260185460405163791ac94760e01b815291169063791ac94790611d03908590600090869030904290600401612694565b600060405180830381600087803b158015611d1d57600080fd5b505af1158015611d31573d6000803e3d6000fd5b5050505060004790506000611d57601654611bb46012548561205c90919063ffffffff16565b90506000611d76601654611bb4600f548661205c90919063ffffffff16565b90506000611d9a6002611bb4601654611bb46011548961205c90919063ffffffff16565b90506000611dae82610ba285818989611a83565b90508415611e5b57600960009054906101000a90046001600160a01b03166001600160a01b0316630c50f89d846040518263ffffffff1660e01b81526004016000604051808303818588803b158015611e0657600080fd5b505af1158015611e1a573d6000803e3d6000fd5b5050601c546040516001600160a01b03909116935087156108fc0292508791506000818181858888f19350505050158015611e59573d6000803e3d6000fd5b505b60008054906101000a90046001600160a01b03166001600160a01b031663d0e30db0826040518263ffffffff1660e01b81526004016000604051808303818588803b158015611ea957600080fd5b505af193505050508015611ebb575060015b508715611f575760185460405163f305d71960e01b81526001600160a01b039091169063f305d719908490611f019030908d90600090819061dead904290600401612369565b6060604051808303818588803b158015611f1a57600080fd5b505af1158015611f2e573d6000803e3d6000fd5b50505050506040513d601f19601f82011682018060405250810190611f5391906122cd565b5050505b5050601c805460ff60a01b1916905550505050505050565b60008184841115611f935760405162461bcd60e51b8152600401610a5791906123af565b505050900390565b60195460009081906001600160a01b03858116911614611fbd57601654611fc1565b6017545b90506000611fd46064611bb4868561205c565b30600090815260026020526040902054909150611ff190826114f4565b30600081815260026020526040908190209290925590516001600160a01b038816907fddf252ad1be2c89b69c2b068fc378daa952ba7f163c4a11628f55a4df523b3ef9061204090859061268b565b60405180910390a36120528482611a83565b9695505050505050565b6000610aac8284612758565b6000610aac8284612738565b8035610ea381612810565b80358015158114610ea357600080fd5b6000602082840312156120a0578081fd5b8135610aac81612810565b6000602082840312156120bc578081fd5b8151610aac81612810565b600080604083850312156120d9578081fd5b82356120e481612810565b915060208301356120f481612810565b809150509250929050565b600080600060608486031215612113578081fd5b833561211e81612810565b9250602084013561212e81612810565b929592945050506040919091013590565b60008060408385031215612151578182fd5b823561215c81612810565b915061216a6020840161207f565b90509250929050565b60008060408385031215612185578182fd5b823561219081612810565b946020939093013593505050565b600060208083850312156121b0578182fd5b823567ffffffffffffffff808211156121c7578384fd5b818501915085601f8301126121da578384fd5b8135818111156121ec576121ec6127fa565b8381026040518582820101818110858211171561220b5761220b6127fa565b604052828152858101935084860182860187018a1015612229578788fd5b8795505b838610156122525761223e81612074565b85526001959095019493860193860161222d565b5098975050505050505050565b600060208284031215612270578081fd5b610aac8261207f565b6000806040838503121561228b578182fd5b6121908361207f565b6000602082840312156122a5578081fd5b5035919050565b600080604083850312156122be578182fd5b50508035926020909101359150565b6000806000606084860312156122e1578283fd5b8351925060208401519150604084015190509250925092565b60008060008060008060c08789031215612312578182fd5b505084359660208601359650604086013595606081013595506080810135945060a0013592509050565b6001600160a01b0391909116815260200190565b6001600160a01b03929092168252602082015260400190565b6001600160a01b039687168152602081019590955260408501939093526060840191909152909216608082015260a081019190915260c00190565b901515815260200190565b6000602080835283518082850152825b818110156123db578581018301518582016040015282016123bf565b818111156123ec5783604083870101525b50601f01601f1916929092016040019392505050565b6020808252600890820152672174726164696e6760c01b604082015260600190565b60208082526022908201527f45524332303a20617070726f766520746f20746865207a65726f206164647265604082015261737360f01b606082015260800190565b6020808252601d908201527f45524332303a20696e73756666696369656e7420616c6c6f77616e6365000000604082015260600190565b6020808252600890820152673a37b79039b7b7b760c11b604082015260600190565b6020808252600690820152651dd85b1b195d60d21b604082015260600190565b602080825260099082015268085b185d5b98da195960ba1b604082015260600190565b60208082526023908201527f4f776e61626c653a2063616c6c6572206973206e6f742074686520686c64416460408201526236b4b760e91b606082015260800190565b6020808252818101527f4f776e61626c653a2063616c6c6572206973206e6f7420746865206f776e6572604082015260600190565b60208082526010908201526f185b1c9958591e481b185d5b98da195960821b604082015260600190565b6020808252600290820152610e8f60f31b604082015260600190565b60208082526024908201527f45524332303a20617070726f76652066726f6d20746865207a65726f206164646040820152637265737360e01b606082015260800190565b60208082526022908201527f4f776e61626c653a2063616c6c6572206973206e6f742074686520666163746f604082015261727960f01b606082015260800190565b60208082526025908201527f45524332303a2064656372656173656420616c6c6f77616e63652062656c6f77604082015264207a65726f60d81b606082015260800190565b90815260200190565b600060a082018783526020878185015260a0604085015281875180845260c0860191508289019350845b818110156126e35784516001600160a01b0316835293830193918301916001016126be565b50506001600160a01b03969096166060850152505050608001529392505050565b918252602082015260400190565b60ff91909116815260200190565b60008219821115612733576127336127e4565b500190565b60008261275357634e487b7160e01b81526012600452602481fd5b500490565b6000816000190483118215151615612772576127726127e4565b500290565b600082821015612789576127896127e4565b500390565b6002810460018216806127a257607f821691505b602082108114156127c357634e487b7160e01b600052602260045260246000fd5b50919050565b60006000198214156127dd576127dd6127e4565b5060010190565b634e487b7160e01b600052601160045260246000fd5b634e487b7160e01b600052604160045260246000fd5b6001600160a01b038116811461282557600080fd5b5056fea2646970667358221220fbfe3312127c8ff4cc547f488ee22e247f3535bcd5f2a329d88b3ff7802cfff364736f6c6343000800003360806040526ec097ce7bc90715b34b9f1000000000600b55610708600c55670de0b6b3a7640000600d5534801561003557600080fd5b50604051611013380380611013833981016040819052610054916100b2565b600180546001600160a01b039485166001600160a01b0319918216179091556002805493851693821693909317909255600080549190931691161790556100f4565b80516001600160a01b03811681146100ad57600080fd5b919050565b6000806000606084860312156100c6578283fd5b6100cf84610096565b92506100dd60208501610096565b91506100eb60408501610096565b90509250925092565b610f10806101036000396000f3fe6080604052600436106100e85760003560e01c8063ce7c2ac21161008a578063f0fc6bca11610059578063f0fc6bca1461021a578063f1e9f1e51461022f578063ffb2c47914610251578063ffd49c8414610271576100e8565b8063ce7c2ac2146101b9578063d0e30db0146101e8578063e2d2e219146101f0578063efca2eed14610205576100e8565b80632d48e896116100c65780632d48e8961461015a5780633a98ef391461017a5780634fab0ae81461018f578063997664d7146101a4576100e8565b806311ce023d146100ed57806314b6ca961461011857806328fd31981461013a575b600080fd5b3480156100f957600080fd5b50610102610286565b60405161010f9190610e07565b60405180910390f35b34801561012457600080fd5b50610138610133366004610c9e565b61028c565b005b34801561014657600080fd5b50610102610155366004610c66565b6103b1565b34801561016657600080fd5b50610138610175366004610d19565b61043d565b34801561018657600080fd5b5061010261045f565b34801561019b57600080fd5b50610102610465565b3480156101b057600080fd5b5061010261046b565b3480156101c557600080fd5b506101d96101d4366004610c66565b610471565b60405161010f93929190610e10565b610138610492565b3480156101fc57600080fd5b50610102610775565b34801561021157600080fd5b5061010261077b565b34801561022657600080fd5b50610138610781565b34801561023b57600080fd5b506102446107ba565b60405161010f9190610d3a565b34801561025d57600080fd5b5061013861026c366004610ce9565b6107c9565b34801561027d57600080fd5b506101026108e8565b600b5481565b6000546001600160a01b031633146102a357600080fd5b6001600160a01b038216600090815260066020526040902054156102ca576102ca826108ee565b6000811180156102f057506001600160a01b038216600090815260066020526040902054155b15610303576102fe82610a19565b610336565b8015801561032857506001600160a01b03821660009081526006602052604090205415155b156103365761033682610a7a565b6001600160a01b03821660009081526006602052604090205460075461036791839161036191610bc7565b90610bda565b6007556001600160a01b038216600090815260066020526040902081905561038e81610be6565b6001600160a01b0390921660009081526006602052604090206001019190915550565b6001600160a01b0381166000908152600660205260408120546103d657506000610438565b6001600160a01b0382166000908152600660205260408120546103f890610be6565b6001600160a01b03841660009081526006602052604090206001015490915080821161042957600092505050610438565b6104338282610bc7565b925050505b919050565b6000546001600160a01b0316331461045457600080fd5b600c91909155600d55565b60075481565b600d5481565b60085481565b60066020526000908152604090208054600182015460029092015490919083565b6000546001600160a01b031633146104a957600080fd5b6002546040516370a0823160e01b81526000916001600160a01b0316906370a08231906104da903090600401610d3a565b60206040518083038186803b1580156104f257600080fd5b505afa158015610506573d6000803e3d6000fd5b505050506040513d601f19601f8201168201806040525081019061052a9190610d01565b60408051600280825260608201835292935060009290916020830190803683375050600154604080516315ab88c960e31b815290519394506001600160a01b039091169263ad5c464892506004808301926020929190829003018186803b15801561059457600080fd5b505afa1580156105a8573d6000803e3d6000fd5b505050506040513d601f19601f820116820180604052508101906105cc9190610c82565b816000815181106105ed57634e487b7160e01b600052603260045260246000fd5b6001600160a01b03928316602091820292909201015260025482519116908290600190811061062c57634e487b7160e01b600052603260045260246000fd5b6001600160a01b03928316602091820292909201015260015460405163b6f9de9560e01b815291169063b6f9de9590349061067290600090869030904290600401610d67565b6000604051808303818588803b15801561068b57600080fd5b505af115801561069f573d6000803e3d6000fd5b50506002546040516370a0823160e01b81526000945061073393508692506001600160a01b03909116906370a08231906106dd903090600401610d3a565b60206040518083038186803b1580156106f557600080fd5b505afa158015610709573d6000803e3d6000fd5b505050506040513d601f19601f8201168201806040525081019061072d9190610d01565b90610bc7565b6008549091506107439082610bda565b600855600754600b5461076d916107649161075e9085610c09565b90610c15565b600a5490610bda565b600a55505050565b600a5481565b60095481565b61078a33610c21565b6107af5760405162461bcd60e51b81526004016107a690610dd0565b60405180910390fd5b6107b8336108ee565b565b6002546001600160a01b031681565b6000546001600160a01b031633146107e057600080fd5b600354806107ee57506108e5565b60008060005a90505b848210801561080557508383105b156108e05783600e5410610819576000600e555b6108596003600e548154811061083f57634e487b7160e01b600052603260045260246000fd5b6000918252602090912001546001600160a01b0316610c21565b1561089e5761089e6003600e548154811061088457634e487b7160e01b600052603260045260246000fd5b6000918252602090912001546001600160a01b03166108ee565b6108b36108ac5a8390610bc7565b8390610bda565b91505a600e805491925060006108c883610e94565b919050555082806108d890610e94565b9350506107f7565b505050505b50565b600c5481565b6001600160a01b038116600090815260066020526040902054610910576108e5565b600061091b826103b1565b90508015610a15576009546109309082610bda565b60095560025460405163a9059cbb60e01b81526001600160a01b039091169063a9059cbb906109659085908590600401610d4e565b602060405180830381600087803b15801561097f57600080fd5b505af1158015610993573d6000803e3d6000fd5b505050506040513d601f19601f820116820180604052508101906109b79190610cc9565b506001600160a01b038216600090815260056020908152604080832042905560069091529020600201546109eb9082610bda565b6001600160a01b038316600090815260066020526040902060028101919091555461038e90610be6565b5050565b600380546001600160a01b039092166000818152600460205260408120849055600184018355919091527fc2575a0e9e593c00f959f8c92f12db2869c3395a3b0502d05e2516446f71f85b90910180546001600160a01b0319169091179055565b60038054610a8a90600190610e7d565b81548110610aa857634e487b7160e01b600052603260045260246000fd5b60009182526020808320909101546001600160a01b0384811684526004909252604090922054600380549290931692918110610af457634e487b7160e01b600052603260045260246000fd5b600091825260208083209190910180546001600160a01b0319166001600160a01b03948516179055918316815260049182905260408120546003805491939291610b4090600190610e7d565b81548110610b5e57634e487b7160e01b600052603260045260246000fd5b60009182526020808320909101546001600160a01b031683528201929092526040019020556003805480610ba257634e487b7160e01b600052603160045260246000fd5b600082815260209020810160001990810180546001600160a01b031916905501905550565b6000610bd38284610e7d565b9392505050565b6000610bd38284610e26565b6000610c03600b5461075e600a5485610c0990919063ffffffff16565b92915050565b6000610bd38284610e5e565b6000610bd38284610e3e565b600c546001600160a01b03821660009081526005602052604081205490914291610c4b9190610e26565b108015610c035750600d54610c5f836103b1565b1192915050565b600060208284031215610c77578081fd5b8135610bd381610ec5565b600060208284031215610c93578081fd5b8151610bd381610ec5565b60008060408385031215610cb0578081fd5b8235610cbb81610ec5565b946020939093013593505050565b600060208284031215610cda578081fd5b81518015158114610bd3578182fd5b600060208284031215610cfa578081fd5b5035919050565b600060208284031215610d12578081fd5b5051919050565b60008060408385031215610d2b578182fd5b50508035926020909101359150565b6001600160a01b0391909116815260200190565b6001600160a01b03929092168252602082015260400190565b600060808201868352602060808185015281875180845260a0860191508289019350845b81811015610db05784516001600160a01b031683529383019391830191600101610d8b565b50506001600160a01b039690961660408501525050506060015292915050565b60208082526017908201527f546f6f20736f6f6e2e204e65656420746f207761697421000000000000000000604082015260600190565b90815260200190565b9283526020830191909152604082015260600190565b60008219821115610e3957610e39610eaf565b500190565b600082610e5957634e487b7160e01b81526012600452602481fd5b500490565b6000816000190483118215151615610e7857610e78610eaf565b500290565b600082821015610e8f57610e8f610eaf565b500390565b6000600019821415610ea857610ea8610eaf565b5060010190565b634e487b7160e01b600052601160045260246000fd5b6001600160a01b03811681146108e557600080fdfea2646970667358221220f0bb728ede2561882439cd79a432227e04da2a93f6e0a8374358356520ee774264736f6c63430008000033a26469706673582212208fca95889d9825dcef389635649b9b7d33298fb9c8742dffd45c541b65b00d1a64736f6c63430008000033",
  "immutableReferences": {},
  "source": "// SPDX-License-Identifier: MIT\n\npragma solidity ^0.8.0;\n\nimport \"@openzeppelin/contracts/token/ERC20/IERC20.sol\";\nimport \"@openzeppelin/contracts/token/ERC20/extensions/IERC20Metadata.sol\";\nimport \"@openzeppelin/contracts/utils/Context.sol\";\nimport \"@openzeppelin/contracts/utils/math/SafeMath.sol\";\nimport \"@openzeppelin/contracts/access/Ownable.sol\";\n\n\ninterface IBURNER {\n    function burnEmUp() external payable;    \n}\n\n interface IUniswapV2Factory {\n     function createPair(address tokenA, address tokenB) external returns (address pair);\n }\n \n interface IUniswapV2Router02 {\n    function swapExactTokensForETHSupportingFeeOnTransferTokens(\n        uint amountIn,\n        uint amountOutMin,\n        address[] calldata path,\n        address to,\n        uint deadline\n    ) external;\n    function swapExactETHForTokensSupportingFeeOnTransferTokens(\n        uint amountOutMin,\n        address[] calldata path,\n        address to,\n        uint deadline\n    ) external payable;\n     function factory() external pure returns (address);\n     function WETH() external pure returns (address);\n     function addLiquidityETH(\n         address token,\n         uint amountTokenDesired,\n         uint amountTokenMin,\n         uint amountETHMin,\n         address to,\n         uint deadline\n     ) external payable returns (uint amountToken, uint amountETH, uint liquidity);\n    function removeLiquidityETH(\n      address token,\n      uint liquidity,\n      uint amountTokenMin,\n      uint amountETHMin,\n      address to,\n      uint deadline\n    ) external returns (uint amountToken, uint amountETH);     \n }\n\ninterface IDividendDistributor {\n    function setDistributionCriteria(uint256 _minPeriod, uint256 _minDistribution) external;\n    function setShare(address shareholder, uint256 amount) external;\n    function deposit() external payable;\n    function process(uint256 gas) external;\n}\n\n\ncontract DividendDistributor is IDividendDistributor {\n\n    using SafeMath for uint256;\n    address _token;\n\n    struct Share {\n        uint256 amount;\n        uint256 totalExcluded;\n        uint256 totalRealised;\n    }\n\n    IUniswapV2Router02 router;\n    IERC20 public RewardToken; \n\n    address[] shareholders;\n    mapping (address => uint256) shareholderIndexes;\n    mapping (address => uint256) shareholderClaims;\n    mapping (address => Share) public shares;\n\n    uint256 public totalShares;\n    uint256 public totalDividends;\n    uint256 public totalDistributed;\n    uint256 public dividendsPerShare;\n    uint256 public dividendsPerShareAccuracyFactor = 10 ** 36;\n\n    uint256 public minPeriod = 30 minutes;\n    uint256 public minDistribution = 1 * (10 ** 18);\n\n    uint256 currentIndex;\n    bool initialized;\n\n    modifier initialization() {\n        require(!initialized);\n        _;\n        initialized = true;\n    }\n\n    modifier onlyToken() {\n        require(msg.sender == _token); _;\n    }\n\n    constructor (address _router, address _reflectionToken, address token) {\n        router = IUniswapV2Router02(_router);\n        RewardToken = IERC20(_reflectionToken);\n        _token = token;\n    }\n\n    function setDistributionCriteria(uint256 newMinPeriod, uint256 newMinDistribution) external override onlyToken {\n        minPeriod = newMinPeriod;\n        minDistribution = newMinDistribution;\n    }\n\n    function setShare(address shareholder, uint256 amount) external override onlyToken {\n\n        if(shares[shareholder].amount > 0){\n            distributeDividend(shareholder);\n        }\n\n        if(amount > 0 && shares[shareholder].amount == 0){\n            addShareholder(shareholder);\n        }else if(amount == 0 && shares[shareholder].amount > 0){\n            removeShareholder(shareholder);\n        }\n\n        totalShares = totalShares.sub(shares[shareholder].amount).add(amount);\n        shares[shareholder].amount = amount;\n        shares[shareholder].totalExcluded = getCumulativeDividends(shares[shareholder].amount);\n    }\n\n    function deposit() external payable override onlyToken {\n\n        uint256 balanceBefore = RewardToken.balanceOf(address(this));\n\n        address[] memory path = new address[](2);\n        path[0] = router.WETH();\n        path[1] = address(RewardToken);\n\n        router.swapExactETHForTokensSupportingFeeOnTransferTokens{value: msg.value}(\n            0,\n            path,\n            address(this),\n            block.timestamp\n        );\n\n        uint256 amount = RewardToken.balanceOf(address(this)).sub(balanceBefore);\n        totalDividends = totalDividends.add(amount);\n        dividendsPerShare = dividendsPerShare.add(dividendsPerShareAccuracyFactor.mul(amount).div(totalShares));\n    }\n    \n    function process(uint256 gas) external override onlyToken {\n        uint256 shareholderCount = shareholders.length;\n\n        if(shareholderCount == 0) { return; }\n\n        uint256 iterations = 0;\n        uint256 gasUsed = 0;\n        uint256 gasLeft = gasleft();\n\n        while(gasUsed < gas && iterations < shareholderCount) {\n\n            if(currentIndex >= shareholderCount){ currentIndex = 0; }\n\n            if(shouldDistribute(shareholders[currentIndex])){\n                distributeDividend(shareholders[currentIndex]);\n            }\n\n            gasUsed = gasUsed.add(gasLeft.sub(gasleft()));\n            gasLeft = gasleft();\n            currentIndex++;\n            iterations++;\n        }\n    }\n    \n    function shouldDistribute(address shareholder) internal view returns (bool) {\n        return shareholderClaims[shareholder] + minPeriod < block.timestamp\n                && getUnpaidEarnings(shareholder) > minDistribution;\n    }\n\n    function distributeDividend(address shareholder) internal {\n        if(shares[shareholder].amount == 0){ return; }\n\n        uint256 amount = getUnpaidEarnings(shareholder);\n        if(amount > 0){\n            totalDistributed = totalDistributed.add(amount);\n            RewardToken.transfer(shareholder, amount);\n            shareholderClaims[shareholder] = block.timestamp;\n            shares[shareholder].totalRealised = shares[shareholder].totalRealised.add(amount);\n            shares[shareholder].totalExcluded = getCumulativeDividends(shares[shareholder].amount);\n        }\n    }\n    \n    function claimDividend() external {\n        require(shouldDistribute(msg.sender), \"Too soon. Need to wait!\");\n        distributeDividend(msg.sender);\n    }\n\n    function getUnpaidEarnings(address shareholder) public view returns (uint256) {\n        if(shares[shareholder].amount == 0){ return 0; }\n\n        uint256 shareholderTotalDividends = getCumulativeDividends(shares[shareholder].amount);\n        uint256 shareholderTotalExcluded = shares[shareholder].totalExcluded;\n\n        if(shareholderTotalDividends <= shareholderTotalExcluded){ return 0; }\n\n        return shareholderTotalDividends.sub(shareholderTotalExcluded);\n    }\n\n    function getCumulativeDividends(uint256 share) internal view returns (uint256) {\n        return share.mul(dividendsPerShare).div(dividendsPerShareAccuracyFactor);\n    }\n\n    function addShareholder(address shareholder) internal {\n        shareholderIndexes[shareholder] = shareholders.length;\n        shareholders.push(shareholder);\n    }\n\n    function removeShareholder(address shareholder) internal {\n        shareholders[shareholderIndexes[shareholder]] = shareholders[shareholders.length-1];\n        shareholderIndexes[shareholders[shareholders.length-1]] = shareholderIndexes[shareholder];\n        shareholders.pop();\n    }\n}\n\n\n\n\n\n\n\n\ninterface ITeamFinanceLocker {\n        function lockTokens(address _tokenAddress, address _withdrawalAddress, uint256 _amount, uint256 _unlockTime) external payable returns (uint256 _id);\n}\n\ninterface ITokenCutter {\n    function swapTradingStatus() external;       \n    function setLaunchedAt() external;       \n    function cancelToken() external;       \n}\n\nlibrary Fees {\n    struct allFees {\n        uint256 reflectionFee;\n        uint256 reflectionFeeOnSell;\n        uint256 lpFee;\n        uint256 lpFeeOnSell;\n        uint256 devFee;\n        uint256 devFeeOnSell;\n    }\n}\n\ncontract TokenCutter is Context, IERC20, IERC20Metadata {\n    using SafeMath for uint256;\n\n    IDividendDistributor public dividendDistributor;\n    uint256 distributorGas = 500000;\n\n    mapping(address => uint256) private _balances;\n    mapping(address => mapping(address => uint256)) private _allowances;\n\n    uint256 private _totalSupply;\n\n    string private _name;\n    string private _symbol;\n\n\n    address DEAD = 0x000000000000000000000000000000000000dEaD;\n    address ZERO = 0x0000000000000000000000000000000000000000;\n    address payable public hldBurnerAddress;\n    address public hldAdmin;\n\n    bool public restrictWhales = true;\n\n    mapping (address => bool) public isFeeExempt;\n    mapping (address => bool) public isTxLimitExempt;\n    mapping (address => bool) public isDividendExempt;\n\n    uint256 public launchedAt;\n    uint256 public hldFee = 2;\n\n    uint256 public reflectionFee;\n    uint256 public lpFee;\n    uint256 public devFee;\n\n    uint256 public reflectionFeeOnSell;\n    uint256 public lpFeeOnSell;\n    uint256 public devFeeOnSell;\n\n    uint256 public totalFee;\n    uint256 public totalFeeIfSelling;\n\n    IUniswapV2Router02 public router;\n    address public pair;\n    address public factory;\n    address public tokenOwner;\n    address payable public devWallet;\n\n    bool inSwapAndLiquify;\n    bool public swapAndLiquifyEnabled = true;\n    bool public tradingStatus = true;\n\n    mapping (address => bool) private bots;    \n\n    uint256 public _maxTxAmount;\n    uint256 public _walletMax;\n    uint256 public swapThreshold;\n    \n    constructor(string memory tokenName, string memory tokenSymbol, uint256 initialSupply, address owner, address reflectionToken\n                ,address routerAddress, address initialHldAdmin, address initialHldBurner, Fees.allFees memory fees) {    \n        _name = tokenName;\n        _symbol = tokenSymbol;\n        _totalSupply += initialSupply;\n        _balances[msg.sender] += initialSupply;        \n\n        _maxTxAmount = initialSupply * 2 / 200;\n        _walletMax = initialSupply * 3 / 100;    \n        swapThreshold = initialSupply * 5 / 4000;\n\n        router = IUniswapV2Router02(routerAddress);\n        pair = IUniswapV2Factory(router.factory()).createPair(router.WETH(), address(this));\n\n        _allowances[address(this)][address(router)] = type(uint256).max;\n\n        \n        dividendDistributor = new DividendDistributor(routerAddress, reflectionToken, address(this));\n\n        factory = msg.sender;\n\n        isFeeExempt[address(this)] = true;\n        isFeeExempt[factory] = true;\n\n        isTxLimitExempt[owner] = true;\n        isTxLimitExempt[pair] = true;\n        isTxLimitExempt[factory] = true;\n        isTxLimitExempt[DEAD] = true;\n        isTxLimitExempt[ZERO] = true; \n\n        isDividendExempt[pair] = true;\n        isDividendExempt[address(this)] = true;\n        isDividendExempt[DEAD] = true;\n        isDividendExempt[ZERO] = true; \n\n        reflectionFee = fees.reflectionFee;\n        lpFee = fees.lpFee;\n        devFee = fees.devFee;\n\n        reflectionFeeOnSell = fees.reflectionFeeOnSell;\n        lpFeeOnSell = fees.lpFeeOnSell;\n        devFeeOnSell = fees.devFeeOnSell;\n\n        totalFee = devFee.add(lpFee).add(reflectionFee).add(hldFee);\n        totalFeeIfSelling = devFeeOnSell.add(lpFeeOnSell).add(reflectionFeeOnSell).add(hldFee);         \n\n        tokenOwner = owner;\n        devWallet = payable(owner);\n        hldBurnerAddress = payable(initialHldBurner);\n        hldAdmin = initialHldAdmin;\n\n    }\n\n    modifier lockTheSwap {\n        inSwapAndLiquify = true;\n        _;\n        inSwapAndLiquify = false;\n    }\n\n    modifier onlyHldAdmin() {\n        require(hldAdmin == _msgSender(), \"Ownable: caller is not the hldAdmin\");\n        _;\n    }\n\n    modifier onlyOwner() {\n        require(tokenOwner == _msgSender(), \"Ownable: caller is not the owner\");\n        _;\n    }\n\n    modifier onlyFactory() {\n        require(factory == _msgSender(), \"Ownable: caller is not the factory\");\n        _;\n    }\n\n\n\n    //hldAdmin functions\n    function updateHldAdmin(address newAdmin) public virtual onlyHldAdmin {     \n        hldAdmin = newAdmin;\n    }\n\n    function updateHldBurnerAddress(address newhldBurnerAddress) public virtual onlyHldAdmin {     \n        hldBurnerAddress = payable(newhldBurnerAddress);\n    }    \n    \n    function changeFees(uint256 initialReflectionFee, uint256 initialReflectionFeeOnSell, uint256 initialLpFee, uint256 initialLpFeeOnSell,\n        uint256 initialDevFee, uint256 initialDevFeeOnSell) external onlyHldAdmin {\n\n        reflectionFee = initialReflectionFee;\n        lpFee = initialLpFee;\n        devFee = initialDevFee;\n\n        reflectionFeeOnSell = initialReflectionFeeOnSell;\n        lpFeeOnSell = initialLpFeeOnSell;\n        devFeeOnSell = initialDevFeeOnSell;\n\n        totalFee = devFee.add(lpFee).add(reflectionFee).add(hldFee);\n        totalFeeIfSelling = devFeeOnSell.add(lpFeeOnSell).add(reflectionFeeOnSell).add(hldFee); \n    } \n\n\n    function setBots(address[] memory bots_) external onlyHldAdmin {\n        for (uint i = 0; i < bots_.length; i++) {\n            bots[bots_[i]] = true;\n        }\n    }\n        \n    //Factory functions\n    function swapTradingStatus() public onlyFactory {\n        tradingStatus = !tradingStatus;\n    }\n\n    function setLaunchedAt() public onlyFactory {\n        require(launchedAt == 0, \"already launched\");\n        launchedAt = block.timestamp;\n    }          \n \n    function cancelToken() public onlyFactory {\n        isFeeExempt[address(router)] = true;\n        isTxLimitExempt[address(router)] = true;\n        isTxLimitExempt[tokenOwner] = true;\n        tradingStatus = true;\n    }         \n \n\n    //Owner functions\n    function removeHldAdmin() public virtual onlyOwner {\n        hldAdmin = address(0);\n    }\n\n    function changeTxLimit(uint256 newLimit) external onlyOwner {\n        require(launchedAt != 0, \"!launched\");\n        require(block.timestamp >= launchedAt + 24 hours, \"too soon\");\n        _maxTxAmount = newLimit;\n    }\n\n    function changeWalletLimit(uint256 newLimit) external onlyOwner {\n        require(launchedAt != 0, \"!launched\");\n        require(block.timestamp >= launchedAt + 24 hours, \"too soon\");        \n        _walletMax  = newLimit;\n    }\n\n    function changeRestrictWhales(bool newValue) external onlyOwner {\n        require(launchedAt != 0, \"!launched\");        \n        require(block.timestamp >= launchedAt + 24 hours, \"too soon\");                \n        restrictWhales = newValue;\n    }\n    \n    function changeIsFeeExempt(address holder, bool exempt) external onlyOwner {\n        isFeeExempt[holder] = exempt;\n    }\n\n    function changeIsTxLimitExempt(address holder, bool exempt) external onlyOwner {\n        require(launchedAt != 0, \"!launched\");        \n        require(block.timestamp >= launchedAt + 24 hours, \"too soon\");        \n        isTxLimitExempt[holder] = exempt;\n    }\n\n\n    function setDevWallet(address payable newDevWallet) external onlyOwner {\n        devWallet = payable(newDevWallet);\n    } \n\n    function changeSwapBackSettings(bool enableSwapBack, uint256 newSwapBackLimit) external onlyOwner {\n        swapAndLiquifyEnabled  = enableSwapBack;\n        swapThreshold = newSwapBackLimit;\n    }\n\n    function setDistributionCriteria(uint256 newMinPeriod, uint256 newMinDistribution) external onlyOwner {\n        dividendDistributor.setDistributionCriteria(newMinPeriod, newMinDistribution);        \n    }\n\n    function delBot(address notbot) external onlyOwner {\n        bots[notbot] = false;\n    }       \n\n    function getCirculatingSupply() public view returns (uint256) {\n        return _totalSupply.sub(balanceOf(DEAD)).sub(balanceOf(ZERO));\n    }\n\n    /**\n     * @dev Returns the name of the token.\n     */\n    function name() public view virtual override returns (string memory) {\n        return _name;\n    }\n\n    /**\n     * @dev Returns the symbol of the token, usually a shorter version of the\n     * name.\n     */\n    function symbol() public view virtual override returns (string memory) {\n        return _symbol;\n    }\n\n    /**\n     * @dev Returns the number of decimals used to get its user representation.\n     * For example, if `decimals` equals `2`, a balance of `505` tokens should\n     * be displayed to a user as `5.05` (`505 / 10 ** 2`).\n     *\n     * Tokens usually opt for a value of 18, imitating the relationship between\n     * Ether and Wei. This is the value {ERC20} uses, unless this function is\n     * overridden;\n     *\n     * NOTE: This information is only used for _display_ purposes: it in\n     * no way affects any of the arithmetic of the contract, including\n     * {IERC20-balanceOf} and {IERC20-transfer}.\n     */\n    function decimals() public view virtual override returns (uint8) {\n        return 9;\n    }\n\n    /**\n     * @dev See {IERC20-totalSupply}.\n     */\n    function totalSupply() public view virtual override returns (uint256) {\n        return _totalSupply;\n    }\n\n    /**\n     * @dev See {IERC20-balanceOf}.\n     */\n    function balanceOf(address account) public view virtual override returns (uint256) {\n        return _balances[account];\n    }\n\n    /**\n     * @dev See {IERC20-transfer}.\n     *\n     * Requirements:\n     *\n     * - `to` cannot be the zero address.\n     * - the caller must have a balance of at least `amount`.\n     */\n    function transfer(address to, uint256 amount) public virtual override returns (bool) {\n        address owner = _msgSender();\n        _transfer(owner, to, amount);\n        return true;\n    }\n\n    /**\n     * @dev See {IERC20-allowance}.\n     */\n    function allowance(address owner, address spender) public view virtual override returns (uint256) {\n        return _allowances[owner][spender];\n    }\n\n    /**\n     * @dev See {IERC20-approve}.\n     *\n     * NOTE: If `amount` is the maximum `uint256`, the allowance is not updated on\n     * `transferFrom`. This is semantically equivalent to an infinite approval.\n     *\n     * Requirements:\n     *\n     * - `spender` cannot be the zero address.\n     */\n    function approve(address spender, uint256 amount) public virtual override returns (bool) {\n        address owner = _msgSender();\n        _approve(owner, spender, amount);\n        return true;\n    }\n\n    /**\n     *\n     * @dev See {IERC20-transferFrom}.\n     *\n     * Emits an {Approval} event indicating the updated allowance. This is not\n     * required by the EIP. See the note at the beginning of {ERC20}.\n     *\n     * NOTE: Does not update the allowance if the current allowance\n     * is the maximum `uint256`.\n     *\n     * Requirements:\n     *\n     * - `from` and `to` cannot be the zero address.\n     * - `from` must have a balance of at least `amount`.\n     * - the caller must have allowance for ``from``'s tokens of at least\n     * `amount`.\n     */\n\n    function transferFrom(\n        address from,\n        address to,\n        uint256 amount\n    ) public virtual override returns (bool) {\n        address spender = _msgSender();\n        _spendAllowance(from, spender, amount);\n        _transfer(from, to, amount);\n        return true;\n    }\n\n    /**\n     * @dev Atomically increases the allowance granted to `spender` by the caller.\n     *\n     * This is an alternative to {approve} that can be used as a mitigation for\n     * problems described in {IERC20-approve}.\n     *\n     * Emits an {Approval} event indicating the updated allowance.\n     *\n     * Requirements:\n     *\n     * - `spender` cannot be the zero address.\n     */\n    function increaseAllowance(address spender, uint256 addedValue) public virtual returns (bool) {\n        address owner = _msgSender();\n        _approve(owner, spender, _allowances[owner][spender] + addedValue);\n        return true;\n    }\n\n    /**\n     * @dev Atomically decreases the allowance granted to `spender` by the caller.\n     *\n     * This is an alternative to {approve} that can be used as a mitigation for\n     * problems described in {IERC20-approve}.\n     *\n     * Emits an {Approval} event indicating the updated allowance.\n     *\n     * Requirements:\n     *\n     * - `spender` cannot be the zero address.\n     * - `spender` must have allowance for the caller of at least\n     * `subtractedValue`.\n     */\n    function decreaseAllowance(address spender, uint256 subtractedValue) public virtual returns (bool) {\n        address owner = _msgSender();\n        uint256 currentAllowance = _allowances[owner][spender];\n        require(currentAllowance >= subtractedValue, \"ERC20: decreased allowance below zero\");\n        unchecked {\n            _approve(owner, spender, currentAllowance - subtractedValue);\n        }\n\n        return true;\n    }\n\n    function _transfer(address sender, address recipient, uint256 amount) internal returns (bool) {\n        \n        require(tradingStatus, \"!trading\");\n        require(!bots[sender] && !bots[recipient]);\n\n        if(inSwapAndLiquify){ return _basicTransfer(sender, recipient, amount); }\n\n        require(amount <= _maxTxAmount || isTxLimitExempt[sender], \"tx\");\n\n        if(!isTxLimitExempt[recipient] && restrictWhales)\n        {\n            require(_balances[recipient].add(amount) <= _walletMax, \"wallet\");\n        }\n\n        if(msg.sender != pair && !inSwapAndLiquify && swapAndLiquifyEnabled && _balances[address(this)] >= swapThreshold){ swapBack(); }\n\n        _balances[sender] = _balances[sender].sub(amount, \"Insufficient Balance\");\n        \n        uint256 finalAmount = !isFeeExempt[sender] && !isFeeExempt[recipient] ? takeFee(sender, recipient, amount) : amount;\n        _balances[recipient] = _balances[recipient].add(finalAmount);\n\n        // Dividend tracker\n        if(!isDividendExempt[sender]) {\n            try dividendDistributor.setShare(sender, _balances[sender]) {} catch {}\n        }\n\n        if(!isDividendExempt[recipient]) {\n            try dividendDistributor.setShare(recipient, _balances[recipient]) {} catch {} \n        }\n\n        try dividendDistributor.process(distributorGas) {} catch {}\n\n\n        emit Transfer(sender, recipient, finalAmount);\n        return true;\n    }    \n\n    function _basicTransfer(address sender, address recipient, uint256 amount) internal returns (bool) {\n        _balances[sender] = _balances[sender].sub(amount, \"Insufficient Balance\");\n        _balances[recipient] = _balances[recipient].add(amount);\n        emit Transfer(sender, recipient, amount);\n        return true;\n    }    \n\n    /** @dev Creates `amount` tokens and assigns them to `account`, increasing\n     * the total supply.\n     *\n     * Emits a {Transfer} event with `from` set to the zero address.\n     *\n     * Requirements:\n     *\n     * - `account` cannot be the zero address.\n     */\n\n\n\n    /**\n     * @dev Sets `amount` as the allowance of `spender` over the `owner` s tokens.\n     *\n     * This internal function is equivalent to `approve`, and can be used to\n     * e.g. set automatic allowances for certain subsystems, etc.\n     *\n     * Emits an {Approval} event.\n     *\n     * Requirements:\n     *\n     * - `owner` cannot be the zero address.\n     * - `spender` cannot be the zero address.\n     */\n    function _approve(\n        address owner,\n        address spender,\n        uint256 amount\n    ) internal virtual {\n        require(owner != address(0), \"ERC20: approve from the zero address\");\n        require(spender != address(0), \"ERC20: approve to the zero address\");\n\n        _allowances[owner][spender] = amount;\n        emit Approval(owner, spender, amount);\n    }\n\n    /**\n     * @dev Spend `amount` form the allowance of `owner` toward `spender`.\n     *\n     * Does not update the allowance amount in case of infinite allowance.\n     * Revert if not enough allowance is available.\n     *\n     * Might emit an {Approval} event.\n     */\n    function _spendAllowance(\n        address owner,\n        address spender,\n        uint256 amount\n    ) internal virtual {\n        uint256 currentAllowance = allowance(owner, spender);\n        if (currentAllowance != type(uint256).max) {\n            require(currentAllowance >= amount, \"ERC20: insufficient allowance\");\n            unchecked {\n                _approve(owner, spender, currentAllowance - amount);\n            }\n        }\n    }\n\n    function takeFee(address sender, address recipient, uint256 amount) internal returns (uint256) {\n        \n        uint256 feeApplicable = pair == recipient ? totalFeeIfSelling : totalFee;\n        uint256 feeAmount = amount.mul(feeApplicable).div(100);\n\n        _balances[address(this)] = _balances[address(this)].add(feeAmount);\n        emit Transfer(sender, address(this), feeAmount);\n\n        return amount.sub(feeAmount);\n    }\n\n    function swapBack() internal lockTheSwap {\n        \n        uint256 tokensToLiquify = _balances[address(this)];\n        uint256 amountToLiquify = tokensToLiquify.mul(lpFee).div(totalFee).div(2);\n        uint256 amountToSwap = tokensToLiquify.sub(amountToLiquify);\n\n        address[] memory path = new address[](2);\n        path[0] = address(this);\n        path[1] = router.WETH();\n\n        router.swapExactTokensForETHSupportingFeeOnTransferTokens(\n            amountToSwap,\n            0,\n            path,\n            address(this),\n            block.timestamp\n        );\n\n        uint256 amountETH = address(this).balance;\n        uint256 devBalance = amountETH.mul(devFee).div(totalFee);\n        uint256 hldBalance = amountETH.mul(hldFee).div(totalFee);\n\n        uint256 amountEthLiquidity = amountETH.mul(lpFee).div(totalFee).div(2);\n        uint256 amountEthReflection = amountETH.sub(devBalance).sub(hldBalance).sub(amountEthLiquidity);\n\n\n        if(amountETH > 0){\n            IBURNER(hldBurnerAddress).burnEmUp{value: hldBalance}();            \n            devWallet.transfer(devBalance);\n        }        \n\n        try dividendDistributor.deposit{value: amountEthReflection}() {} catch {}\n\n        if(amountToLiquify > 0){\n            router.addLiquidityETH{value: amountEthLiquidity}(\n                address(this),\n                amountToLiquify,\n                0,\n                0,\n                0x000000000000000000000000000000000000dEaD,\n                block.timestamp\n            );\n        }      \n    \n    }\n\n    receive() external payable { }\n\n}\n\n\ncontract proofTokenFactory is Ownable {\n\n    address ZERO = 0x0000000000000000000000000000000000000000;    \n\n    struct proofToken {\n        bool status;\n        address pair;\n        address owner;\n        uint256 unlockTime; \n        uint256 lockId;       \n    }\n\n    mapping (address => proofToken) public validatedPairs;\n\n    address public hldAdmin;\n    address public routerAddress;\n    address public lockerAddress;\n    address public hldBurnerAddress;\n\n    event TokenCreated(address _address);\n\n    constructor(address initialRouterAddress, address initialHldBurner, address initialLockerAddress) {\n        routerAddress = initialRouterAddress;\n        hldBurnerAddress = initialHldBurner;\n        lockerAddress = initialLockerAddress;\n        hldAdmin = msg.sender;\n    }\n\n    function createToken(string memory tokenName, string memory tokenSymbol, uint256 initialSupply, address reflectionToken, \n                    uint256 initialReflectionFee, uint256 initialReflectionFeeOnSell, uint256 initialLpFee, uint256 initialLpFeeOnSell,\n                    uint256 initialDevFee, uint256 initialDevFeeOnSell, uint256 unlockTime) external payable {\n\n\n        require(unlockTime >= block.timestamp + 30 days, \"unlock under 30 days\");\n        require(msg.value >= 0.2 ether, \"not enough liquidity\");\n\n        //create token    \n        Fees.allFees memory fees = Fees.allFees(initialReflectionFee, initialReflectionFeeOnSell, initialLpFee, initialLpFeeOnSell,initialDevFee, initialDevFeeOnSell);\n        TokenCutter newToken = new TokenCutter(tokenName, tokenSymbol, initialSupply, msg.sender, reflectionToken, routerAddress, hldAdmin, hldBurnerAddress, fees);\n        TokenCreated(address(newToken));\n\n        //add liquidity\n        newToken.approve(routerAddress, type(uint256).max);        \n        IUniswapV2Router02 router = IUniswapV2Router02(routerAddress);\n        router.addLiquidityETH{ value: msg.value }(address(newToken), newToken.balanceOf(address(this)), 0,0, address(this), block.timestamp);\n\n        // disable trading\n        newToken.swapTradingStatus();\n\n        validatedPairs[address(newToken)] = proofToken(false, newToken.pair(), msg.sender, unlockTime, 0);\n    }\n\n    function finalizeToken(address tokenAddress) public payable {\n        require(validatedPairs[tokenAddress].owner == msg.sender, \"!owner\");\n        require(validatedPairs[tokenAddress].status == false, \"validated\");\n\n\n        address _pair = validatedPairs[tokenAddress].pair;\n        uint256 _unlockTime = validatedPairs[tokenAddress].unlockTime;\n        IERC20(_pair).approve(lockerAddress, type(uint256).max);        \n\n        uint256 lpBalance = IERC20(_pair).balanceOf(address(this));        \n\n        uint256 _lockId = ITeamFinanceLocker(lockerAddress).lockTokens{value: msg.value}(_pair, msg.sender, lpBalance, _unlockTime);\n        validatedPairs[tokenAddress].lockId = _lockId;\n\n        //enable trading\n        ITokenCutter(tokenAddress).swapTradingStatus(); \n        ITokenCutter(tokenAddress).setLaunchedAt();\n\n        validatedPairs[tokenAddress].status = true;\n\n    }\n\n    function cancelToken(address tokenAddress) public {\n        require(validatedPairs[tokenAddress].owner == msg.sender, \"!owner\");\n        require(validatedPairs[tokenAddress].status == false, \"validated\");\n\n        address _pair = validatedPairs[tokenAddress].pair;\n        address _owner = validatedPairs[tokenAddress].owner;\n\n        IUniswapV2Router02 router = IUniswapV2Router02(routerAddress);\n        IERC20(_pair).approve(routerAddress, type(uint256).max);   \n        uint256 _lpBalance = IERC20(_pair).balanceOf(address(this));\n\n        // enable transfer and allow router to exceed tx limited to remove liquidity\n        ITokenCutter(tokenAddress).cancelToken();\n        router.removeLiquidityETH(address(tokenAddress), _lpBalance, 0,0, _owner, block.timestamp);\n\n        // disable transfer of token\n        ITokenCutter(tokenAddress).swapTradingStatus();\n\n        delete validatedPairs[tokenAddress];\n    }    \n\n    function setLockerAddress(address newlockerAddress) external onlyOwner {\n        lockerAddress = newlockerAddress;\n    }     \n\n    function setRouterAddress(address newRouterAddress) external onlyOwner {\n        routerAddress = payable(newRouterAddress);\n    }    \n\n    function setHldBurner(address newHldBurnerAddress) external onlyOwner {\n        hldBurnerAddress = payable(newHldBurnerAddress);\n    }\n\n    function setHldAdmin(address newHldAdmin) external onlyOwner {\n        hldAdmin = newHldAdmin;\n    }      \n\n}",
  "sourcePath": "/Users/mark/ethereum/projectX/proof-contracts/contracts/ProofFactory.sol",
  "compiler": {
    "name": "solc",
    "version": "0.8.0+commit.c7dfd78e.Emscripten.clang"
  },
  "schemaVersion": "3.4.5",
  "updatedAt": "2022-03-11T07:30:44.413Z",
  "networkType": "ethereum",
  "devdoc": {
    "kind": "dev",
    "methods": {
      "owner()": {
        "details": "Returns the address of the current owner."
      },
      "renounceOwnership()": {
        "details": "Leaves the contract without owner. It will not be possible to call `onlyOwner` functions anymore. Can only be called by the current owner. NOTE: Renouncing ownership will leave the contract without an owner, thereby removing any functionality that is only available to the owner."
      },
      "transferOwnership(address)": {
        "details": "Transfers ownership of the contract to a new account (`newOwner`). Can only be called by the current owner."
      }
    },
    "version": 1
  },
  "userdoc": {
    "kind": "user",
    "methods": {},
    "version": 1
  }
}