{
  "contractName": "TokenCutter",
  "abi": [
    {
      "inputs": [
        {
          "internalType": "string",
          "name": "tokenName",
          "type": "string"
        },
        {
          "internalType": "string",
          "name": "tokenSymbol",
          "type": "string"
        },
        {
          "internalType": "uint256",
          "name": "initialSupply",
          "type": "uint256"
        },
        {
          "internalType": "address",
          "name": "owner",
          "type": "address"
        },
        {
          "internalType": "address",
          "name": "reflectionToken",
          "type": "address"
        },
        {
          "internalType": "address",
          "name": "routerAddress",
          "type": "address"
        },
        {
          "internalType": "address",
          "name": "initialHldAdmin",
          "type": "address"
        },
        {
          "internalType": "address",
          "name": "initialHldBurner",
          "type": "address"
        },
        {
          "components": [
            {
              "internalType": "uint256",
              "name": "reflectionFee",
              "type": "uint256"
            },
            {
              "internalType": "uint256",
              "name": "reflectionFeeOnSell",
              "type": "uint256"
            },
            {
              "internalType": "uint256",
              "name": "lpFee",
              "type": "uint256"
            },
            {
              "internalType": "uint256",
              "name": "lpFeeOnSell",
              "type": "uint256"
            },
            {
              "internalType": "uint256",
              "name": "devFee",
              "type": "uint256"
            },
            {
              "internalType": "uint256",
              "name": "devFeeOnSell",
              "type": "uint256"
            }
          ],
          "internalType": "struct Fees.allFees",
          "name": "fees",
          "type": "tuple"
        }
      ],
      "stateMutability": "nonpayable",
      "type": "constructor"
    },
    {
      "anonymous": false,
      "inputs": [
        {
          "indexed": true,
          "internalType": "address",
          "name": "owner",
          "type": "address"
        },
        {
          "indexed": true,
          "internalType": "address",
          "name": "spender",
          "type": "address"
        },
        {
          "indexed": false,
          "internalType": "uint256",
          "name": "value",
          "type": "uint256"
        }
      ],
      "name": "Approval",
      "type": "event"
    },
    {
      "anonymous": false,
      "inputs": [
        {
          "indexed": true,
          "internalType": "address",
          "name": "from",
          "type": "address"
        },
        {
          "indexed": true,
          "internalType": "address",
          "name": "to",
          "type": "address"
        },
        {
          "indexed": false,
          "internalType": "uint256",
          "name": "value",
          "type": "uint256"
        }
      ],
      "name": "Transfer",
      "type": "event"
    },
    {
      "inputs": [],
      "name": "_maxTxAmount",
      "outputs": [
        {
          "internalType": "uint256",
          "name": "",
          "type": "uint256"
        }
      ],
      "stateMutability": "view",
      "type": "function"
    },
    {
      "inputs": [],
      "name": "_walletMax",
      "outputs": [
        {
          "internalType": "uint256",
          "name": "",
          "type": "uint256"
        }
      ],
      "stateMutability": "view",
      "type": "function"
    },
    {
      "inputs": [],
      "name": "createdAt",
      "outputs": [
        {
          "internalType": "uint256",
          "name": "",
          "type": "uint256"
        }
      ],
      "stateMutability": "view",
      "type": "function"
    },
    {
      "inputs": [],
      "name": "devFee",
      "outputs": [
        {
          "internalType": "uint256",
          "name": "",
          "type": "uint256"
        }
      ],
      "stateMutability": "view",
      "type": "function"
    },
    {
      "inputs": [],
      "name": "devFeeOnSell",
      "outputs": [
        {
          "internalType": "uint256",
          "name": "",
          "type": "uint256"
        }
      ],
      "stateMutability": "view",
      "type": "function"
    },
    {
      "inputs": [],
      "name": "devWallet",
      "outputs": [
        {
          "internalType": "address payable",
          "name": "",
          "type": "address"
        }
      ],
      "stateMutability": "view",
      "type": "function"
    },
    {
      "inputs": [],
      "name": "dividendDistributor",
      "outputs": [
        {
          "internalType": "contract IDividendDistributor",
          "name": "",
          "type": "address"
        }
      ],
      "stateMutability": "view",
      "type": "function"
    },
    {
      "inputs": [],
      "name": "factory",
      "outputs": [
        {
          "internalType": "address",
          "name": "",
          "type": "address"
        }
      ],
      "stateMutability": "view",
      "type": "function"
    },
    {
      "inputs": [],
      "name": "hldAdmin",
      "outputs": [
        {
          "internalType": "address",
          "name": "",
          "type": "address"
        }
      ],
      "stateMutability": "view",
      "type": "function"
    },
    {
      "inputs": [],
      "name": "hldBurnerAddress",
      "outputs": [
        {
          "internalType": "address payable",
          "name": "",
          "type": "address"
        }
      ],
      "stateMutability": "view",
      "type": "function"
    },
    {
      "inputs": [],
      "name": "hldFee",
      "outputs": [
        {
          "internalType": "uint256",
          "name": "",
          "type": "uint256"
        }
      ],
      "stateMutability": "view",
      "type": "function"
    },
    {
      "inputs": [
        {
          "internalType": "address",
          "name": "",
          "type": "address"
        }
      ],
      "name": "isDividendExempt",
      "outputs": [
        {
          "internalType": "bool",
          "name": "",
          "type": "bool"
        }
      ],
      "stateMutability": "view",
      "type": "function"
    },
    {
      "inputs": [
        {
          "internalType": "address",
          "name": "",
          "type": "address"
        }
      ],
      "name": "isFeeExempt",
      "outputs": [
        {
          "internalType": "bool",
          "name": "",
          "type": "bool"
        }
      ],
      "stateMutability": "view",
      "type": "function"
    },
    {
      "inputs": [
        {
          "internalType": "address",
          "name": "",
          "type": "address"
        }
      ],
      "name": "isTxLimitExempt",
      "outputs": [
        {
          "internalType": "bool",
          "name": "",
          "type": "bool"
        }
      ],
      "stateMutability": "view",
      "type": "function"
    },
    {
      "inputs": [],
      "name": "lpFee",
      "outputs": [
        {
          "internalType": "uint256",
          "name": "",
          "type": "uint256"
        }
      ],
      "stateMutability": "view",
      "type": "function"
    },
    {
      "inputs": [],
      "name": "lpFeeOnSell",
      "outputs": [
        {
          "internalType": "uint256",
          "name": "",
          "type": "uint256"
        }
      ],
      "stateMutability": "view",
      "type": "function"
    },
    {
      "inputs": [],
      "name": "pair",
      "outputs": [
        {
          "internalType": "address",
          "name": "",
          "type": "address"
        }
      ],
      "stateMutability": "view",
      "type": "function"
    },
    {
      "inputs": [],
      "name": "reflectionFee",
      "outputs": [
        {
          "internalType": "uint256",
          "name": "",
          "type": "uint256"
        }
      ],
      "stateMutability": "view",
      "type": "function"
    },
    {
      "inputs": [],
      "name": "reflectionFeeOnSell",
      "outputs": [
        {
          "internalType": "uint256",
          "name": "",
          "type": "uint256"
        }
      ],
      "stateMutability": "view",
      "type": "function"
    },
    {
      "inputs": [],
      "name": "restrictWhales",
      "outputs": [
        {
          "internalType": "bool",
          "name": "",
          "type": "bool"
        }
      ],
      "stateMutability": "view",
      "type": "function"
    },
    {
      "inputs": [],
      "name": "router",
      "outputs": [
        {
          "internalType": "contract IUniswapV2Router02",
          "name": "",
          "type": "address"
        }
      ],
      "stateMutability": "view",
      "type": "function"
    },
    {
      "inputs": [],
      "name": "swapAndLiquifyEnabled",
      "outputs": [
        {
          "internalType": "bool",
          "name": "",
          "type": "bool"
        }
      ],
      "stateMutability": "view",
      "type": "function"
    },
    {
      "inputs": [],
      "name": "swapThreshold",
      "outputs": [
        {
          "internalType": "uint256",
          "name": "",
          "type": "uint256"
        }
      ],
      "stateMutability": "view",
      "type": "function"
    },
    {
      "inputs": [],
      "name": "tokenOwner",
      "outputs": [
        {
          "internalType": "address",
          "name": "",
          "type": "address"
        }
      ],
      "stateMutability": "view",
      "type": "function"
    },
    {
      "inputs": [],
      "name": "totalFee",
      "outputs": [
        {
          "internalType": "uint256",
          "name": "",
          "type": "uint256"
        }
      ],
      "stateMutability": "view",
      "type": "function"
    },
    {
      "inputs": [],
      "name": "totalFeeIfSelling",
      "outputs": [
        {
          "internalType": "uint256",
          "name": "",
          "type": "uint256"
        }
      ],
      "stateMutability": "view",
      "type": "function"
    },
    {
      "inputs": [],
      "name": "tradingStatus",
      "outputs": [
        {
          "internalType": "bool",
          "name": "",
          "type": "bool"
        }
      ],
      "stateMutability": "view",
      "type": "function"
    },
    {
      "stateMutability": "payable",
      "type": "receive"
    },
    {
      "inputs": [
        {
          "internalType": "address",
          "name": "newAdmin",
          "type": "address"
        }
      ],
      "name": "updateHldAdmin",
      "outputs": [],
      "stateMutability": "nonpayable",
      "type": "function"
    },
    {
      "inputs": [
        {
          "internalType": "address",
          "name": "newhldBurnerAddress",
          "type": "address"
        }
      ],
      "name": "updateHldBurnerAddress",
      "outputs": [],
      "stateMutability": "nonpayable",
      "type": "function"
    },
    {
      "inputs": [
        {
          "internalType": "uint256",
          "name": "initialReflectionFee",
          "type": "uint256"
        },
        {
          "internalType": "uint256",
          "name": "initialReflectionFeeOnSell",
          "type": "uint256"
        },
        {
          "internalType": "uint256",
          "name": "initialLpFee",
          "type": "uint256"
        },
        {
          "internalType": "uint256",
          "name": "initialLpFeeOnSell",
          "type": "uint256"
        },
        {
          "internalType": "uint256",
          "name": "initialDevFee",
          "type": "uint256"
        },
        {
          "internalType": "uint256",
          "name": "initialDevFeeOnSell",
          "type": "uint256"
        }
      ],
      "name": "changeFees",
      "outputs": [],
      "stateMutability": "nonpayable",
      "type": "function"
    },
    {
      "inputs": [
        {
          "internalType": "address[]",
          "name": "bots_",
          "type": "address[]"
        }
      ],
      "name": "setBots",
      "outputs": [],
      "stateMutability": "nonpayable",
      "type": "function"
    },
    {
      "inputs": [],
      "name": "swapTradingStatus",
      "outputs": [],
      "stateMutability": "nonpayable",
      "type": "function"
    },
    {
      "inputs": [],
      "name": "removeHldAdmin",
      "outputs": [],
      "stateMutability": "nonpayable",
      "type": "function"
    },
    {
      "inputs": [
        {
          "internalType": "uint256",
          "name": "newLimit",
          "type": "uint256"
        }
      ],
      "name": "changeTxLimit",
      "outputs": [],
      "stateMutability": "nonpayable",
      "type": "function"
    },
    {
      "inputs": [
        {
          "internalType": "uint256",
          "name": "newLimit",
          "type": "uint256"
        }
      ],
      "name": "changeWalletLimit",
      "outputs": [],
      "stateMutability": "nonpayable",
      "type": "function"
    },
    {
      "inputs": [
        {
          "internalType": "bool",
          "name": "newValue",
          "type": "bool"
        }
      ],
      "name": "changeRestrictWhales",
      "outputs": [],
      "stateMutability": "nonpayable",
      "type": "function"
    },
    {
      "inputs": [
        {
          "internalType": "address",
          "name": "holder",
          "type": "address"
        },
        {
          "internalType": "bool",
          "name": "exempt",
          "type": "bool"
        }
      ],
      "name": "changeIsFeeExempt",
      "outputs": [],
      "stateMutability": "nonpayable",
      "type": "function"
    },
    {
      "inputs": [
        {
          "internalType": "address",
          "name": "holder",
          "type": "address"
        },
        {
          "internalType": "bool",
          "name": "exempt",
          "type": "bool"
        }
      ],
      "name": "changeIsTxLimitExempt",
      "outputs": [],
      "stateMutability": "nonpayable",
      "type": "function"
    },
    {
      "inputs": [
        {
          "internalType": "address payable",
          "name": "newDevWallet",
          "type": "address"
        }
      ],
      "name": "setDevWallet",
      "outputs": [],
      "stateMutability": "nonpayable",
      "type": "function"
    },
    {
      "inputs": [
        {
          "internalType": "bool",
          "name": "enableSwapBack",
          "type": "bool"
        },
        {
          "internalType": "uint256",
          "name": "newSwapBackLimit",
          "type": "uint256"
        }
      ],
      "name": "changeSwapBackSettings",
      "outputs": [],
      "stateMutability": "nonpayable",
      "type": "function"
    },
    {
      "inputs": [
        {
          "internalType": "uint256",
          "name": "newMinPeriod",
          "type": "uint256"
        },
        {
          "internalType": "uint256",
          "name": "newMinDistribution",
          "type": "uint256"
        }
      ],
      "name": "setDistributionCriteria",
      "outputs": [],
      "stateMutability": "nonpayable",
      "type": "function"
    },
    {
      "inputs": [
        {
          "internalType": "address",
          "name": "notbot",
          "type": "address"
        }
      ],
      "name": "delBot",
      "outputs": [],
      "stateMutability": "nonpayable",
      "type": "function"
    },
    {
      "inputs": [],
      "name": "getCirculatingSupply",
      "outputs": [
        {
          "internalType": "uint256",
          "name": "",
          "type": "uint256"
        }
      ],
      "stateMutability": "view",
      "type": "function"
    },
    {
      "inputs": [],
      "name": "name",
      "outputs": [
        {
          "internalType": "string",
          "name": "",
          "type": "string"
        }
      ],
      "stateMutability": "view",
      "type": "function"
    },
    {
      "inputs": [],
      "name": "symbol",
      "outputs": [
        {
          "internalType": "string",
          "name": "",
          "type": "string"
        }
      ],
      "stateMutability": "view",
      "type": "function"
    },
    {
      "inputs": [],
      "name": "decimals",
      "outputs": [
        {
          "internalType": "uint8",
          "name": "",
          "type": "uint8"
        }
      ],
      "stateMutability": "view",
      "type": "function"
    },
    {
      "inputs": [],
      "name": "totalSupply",
      "outputs": [
        {
          "internalType": "uint256",
          "name": "",
          "type": "uint256"
        }
      ],
      "stateMutability": "view",
      "type": "function"
    },
    {
      "inputs": [
        {
          "internalType": "address",
          "name": "account",
          "type": "address"
        }
      ],
      "name": "balanceOf",
      "outputs": [
        {
          "internalType": "uint256",
          "name": "",
          "type": "uint256"
        }
      ],
      "stateMutability": "view",
      "type": "function"
    },
    {
      "inputs": [
        {
          "internalType": "address",
          "name": "to",
          "type": "address"
        },
        {
          "internalType": "uint256",
          "name": "amount",
          "type": "uint256"
        }
      ],
      "name": "transfer",
      "outputs": [
        {
          "internalType": "bool",
          "name": "",
          "type": "bool"
        }
      ],
      "stateMutability": "nonpayable",
      "type": "function"
    },
    {
      "inputs": [
        {
          "internalType": "address",
          "name": "owner",
          "type": "address"
        },
        {
          "internalType": "address",
          "name": "spender",
          "type": "address"
        }
      ],
      "name": "allowance",
      "outputs": [
        {
          "internalType": "uint256",
          "name": "",
          "type": "uint256"
        }
      ],
      "stateMutability": "view",
      "type": "function"
    },
    {
      "inputs": [
        {
          "internalType": "address",
          "name": "spender",
          "type": "address"
        },
        {
          "internalType": "uint256",
          "name": "amount",
          "type": "uint256"
        }
      ],
      "name": "approve",
      "outputs": [
        {
          "internalType": "bool",
          "name": "",
          "type": "bool"
        }
      ],
      "stateMutability": "nonpayable",
      "type": "function"
    },
    {
      "inputs": [
        {
          "internalType": "address",
          "name": "from",
          "type": "address"
        },
        {
          "internalType": "address",
          "name": "to",
          "type": "address"
        },
        {
          "internalType": "uint256",
          "name": "amount",
          "type": "uint256"
        }
      ],
      "name": "transferFrom",
      "outputs": [
        {
          "internalType": "bool",
          "name": "",
          "type": "bool"
        }
      ],
      "stateMutability": "nonpayable",
      "type": "function"
    },
    {
      "inputs": [
        {
          "internalType": "address",
          "name": "spender",
          "type": "address"
        },
        {
          "internalType": "uint256",
          "name": "addedValue",
          "type": "uint256"
        }
      ],
      "name": "increaseAllowance",
      "outputs": [
        {
          "internalType": "bool",
          "name": "",
          "type": "bool"
        }
      ],
      "stateMutability": "nonpayable",
      "type": "function"
    },
    {
      "inputs": [
        {
          "internalType": "address",
          "name": "spender",
          "type": "address"
        },
        {
          "internalType": "uint256",
          "name": "subtractedValue",
          "type": "uint256"
        }
      ],
      "name": "decreaseAllowance",
      "outputs": [
        {
          "internalType": "bool",
          "name": "",
          "type": "bool"
        }
      ],
      "stateMutability": "nonpayable",
      "type": "function"
    }
  ],
  "bytecode": "0x60806040526207a120600155600780546001600160a01b031990811661dead17909155600880549091169055600a805460ff60a01b1916600160a01b1790556002600f55601c805460ff60b01b1960ff60a81b19909116600160a81b1716600160b01b1790553480156200007257600080fd5b5060405162003f7238038062003f7283398101604081905262000095916200070a565b8851620000aa9060059060208c01906200058b565b508751620000c09060069060208b01906200058b565b508660046000828254620000d59190620008bf565b90915550503360009081526002602052604081208054899290620000fb908490620008bf565b909155505042600e5560c862000113886002620008fb565b6200011f9190620008da565b601e55606462000131886003620008fb565b6200013d9190620008da565b601f55610fa062000150886005620008fb565b6200015c9190620008da565b6020908155601880546001600160a01b0319166001600160a01b0387811691909117918290556040805163c45a015560e01b81529051929091169263c45a015592600480840193829003018186803b158015620001b857600080fd5b505afa158015620001cd573d6000803e3d6000fd5b505050506040513d601f19601f82011682018060405250810190620001f39190620006ed565b6001600160a01b031663c9c65396601860009054906101000a90046001600160a01b03166001600160a01b031663ad5c46486040518163ffffffff1660e01b815260040160206040518083038186803b1580156200025057600080fd5b505afa15801562000265573d6000803e3d6000fd5b505050506040513d601f19601f820116820180604052508101906200028b9190620006ed565b306040518363ffffffff1660e01b8152600401620002ab92919062000856565b602060405180830381600087803b158015620002c657600080fd5b505af1158015620002db573d6000803e3d6000fd5b505050506040513d601f19601f82011682018060405250810190620003019190620006ed565b601980546001600160a01b0319166001600160a01b039283161790553060008181526003602090815260408083206018549095168352939052829020600019905590518591879162000353906200061a565b620003619392919062000870565b604051809103906000f0801580156200037e573d6000803e3d6000fd5b50600080546001600160a01b039283166001600160a01b0319918216178255601a80549091163317815530808352600b60209081526040808520805460ff19908116600190811790925585548816875282872080548216831790558d88168752600c8452828720805482168317905560198054891688528388208054831684179055955488168752828720805482168317905560078054891688528388208054831684179055600880548a1689528489208054841685179055965489168852600d8552838820805483168417905594875282872080548216831790559354871686528186208054851682179055935490951684529284902080549091169091179055825160108190559183015160118190556080840151601281905584830151601355606085015160145560a0850151601555600f54620004e9949093620004d593919284929091620012ce62000576821b17901c565b6200057660201b620012ce1790919060201c565b6016819055506200051b600f54620004d5601354620004d56014546015546200057660201b620012ce1790919060201c565b60175550601b80546001600160a01b039687166001600160a01b03199182168117909255601c805482169092179091556009805492871692821692909217909155600a80549290951691161790925550620009869350505050565b6000620005848284620008bf565b9392505050565b82805462000599906200091d565b90600052602060002090601f016020900481019282620005bd576000855562000608565b82601f10620005d857805160ff191683800117855562000608565b8280016001018555821562000608579182015b8281111562000608578251825591602001919060010190620005eb565b506200061692915062000628565b5090565b6110138062002f5f83390190565b5b8082111562000616576000815560010162000629565b80516001600160a01b03811681146200065757600080fd5b919050565b600082601f8301126200066d578081fd5b81516001600160401b0381111562000689576200068962000970565b60206200069f601f8301601f1916820162000893565b8281528582848701011115620006b3578384fd5b835b83811015620006d2578581018301518282018401528201620006b5565b83811115620006e357848385840101525b5095945050505050565b600060208284031215620006ff578081fd5b62000584826200063f565b6000806000806000806000806000898b036101c08112156200072a578586fd5b8a516001600160401b038082111562000741578788fd5b6200074f8e838f016200065c565b9b5060208d015191508082111562000765578788fd5b620007738e838f016200065c565b9a5060408d015199506200078a60608e016200063f565b98506200079a60808e016200063f565b9750620007aa60a08e016200063f565b9650620007ba60c08e016200063f565b9550620007ca60e08e016200063f565b945060c060ff1984011215620007de578384fd5b604051925060c083019150828210818311171562000800576200080062000970565b5080604052506101008b015181526101208b015160208201526101408b015160408201526101608b015160608201526101808b015160808201526101a08b015160a0820152809150509295985092959850929598565b6001600160a01b0392831681529116602082015260400190565b6001600160a01b0393841681529183166020830152909116604082015260600190565b6040518181016001600160401b0381118282101715620008b757620008b762000970565b604052919050565b60008219821115620008d557620008d56200095a565b500190565b600082620008f657634e487b7160e01b81526012600452602481fd5b500490565b60008160001904831182151516156200091857620009186200095a565b500290565b6002810460018216806200093257607f821691505b602082108114156200095457634e487b7160e01b600052602260045260246000fd5b50919050565b634e487b7160e01b600052601160045260246000fd5b634e487b7160e01b600052604160045260246000fd5b6125c980620009966000396000f3fe6080604052600436106103395760003560e01c806383ad7994116101ab578063ca987b0e116100f7578063e5d8510811610095578063f7c722051161006f578063f7c7220514610892578063f887ea40146108b2578063fabe6283146108c7578063fbd75753146108e757610340565b8063e5d8510814610848578063e66b1d1e1461085d578063ede1588f1461087d57610340565b8063cf09e0d0116100d1578063cf09e0d0146107de578063d4fb9a01146107f3578063d920334e14610808578063dd62ed3e1461082857610340565b8063ca987b0e14610794578063cb29813c146107a9578063cc6badb3146107c957610340565b8063a3e6761011610164578063a9059cbb1161013e578063a9059cbb1461072a578063b515566a1461074a578063bad3ea6a1461076a578063c45a01551461077f57610340565b8063a3e67610146106e0578063a457c2d7146106f5578063a8aa1b311461071557610340565b806383ad79941461064c5780638b42507f146106615780638ea5220f146106815780639502c4261461069657806395d89b41146106ab578063a3a2e89e146106c057610340565b80633f4218e011610285578063704ce43e116102235780637c0ff205116101fd5780637c0ff205146105ed5780637d1db4a5146106025780637db1342c14610617578063807c2d9c1461063757610340565b8063704ce43e1461059657806370a08231146105ab578063774b5847146105cb57610340565b806344de2e4c1161025f57806344de2e4c146105425780634a74bb021461055757806366b5d8821461056c5780636827e7641461058157610340565b80633f4218e0146104e25780634355855a1461050257806343d49dda1461052257610340565b806323b872dd116102f25780632d48e896116102cc5780632d48e89614610460578063313ce5671461048057806339509351146104a25780633dab5269146104c257610340565b806323b872dd1461040b578063273123b71461042b5780632b112e491461044b57610340565b80630445b6671461034557806306fdde0314610370578063095ea7b31461039257806318160ddd146103bf5780631df4ccfc146103d45780631f53ac02146103e957610340565b3661034057005b600080fd5b34801561035157600080fd5b5061035a6108fc565b60405161036791906123f6565b60405180910390f35b34801561037c57600080fd5b50610385610902565b6040516103679190612189565b34801561039e57600080fd5b506103b26103ad366004611f4d565b610994565b604051610367919061217e565b3480156103cb57600080fd5b5061035a6109b6565b3480156103e057600080fd5b5061035a6109bc565b3480156103f557600080fd5b50610409610404366004611e69565b6109c2565b005b34801561041757600080fd5b506103b2610426366004611ed9565b610a22565b34801561043757600080fd5b50610409610446366004611e69565b610a53565b34801561045757600080fd5b5061035a610aa9565b34801561046c57600080fd5b5061040961047b366004612086565b610af2565b34801561048c57600080fd5b50610495610b8f565b604051610367919061247d565b3480156104ae57600080fd5b506103b26104bd366004611f4d565b610b94565b3480156104ce57600080fd5b506104096104dd366004612053565b610be0565b3480156104ee57600080fd5b506103b26104fd366004611e69565b610c37565b34801561050e57600080fd5b506103b261051d366004611e69565b610c4c565b34801561052e57600080fd5b5061040961053d366004611e69565b610c61565b34801561054e57600080fd5b506103b2610cb8565b34801561056357600080fd5b506103b2610cc8565b34801561057857600080fd5b50610409610cd8565b34801561058d57600080fd5b5061035a610d1f565b3480156105a257600080fd5b5061035a610d25565b3480156105b757600080fd5b5061035a6105c6366004611e69565b610d2b565b3480156105d757600080fd5b506105e0610d4a565b6040516103679190612116565b3480156105f957600080fd5b5061035a610d59565b34801561060e57600080fd5b5061035a610d5f565b34801561062357600080fd5b5061040961063236600461206e565b610d65565b34801561064357600080fd5b5061035a610dbb565b34801561065857600080fd5b5061035a610dc1565b34801561066d57600080fd5b506103b261067c366004611e69565b610dc7565b34801561068d57600080fd5b506105e0610ddc565b3480156106a257600080fd5b5061035a610deb565b3480156106b757600080fd5b50610385610df1565b3480156106cc57600080fd5b506104096106db366004611f19565b610e00565b3480156106ec57600080fd5b506105e0610e60565b34801561070157600080fd5b506103b2610710366004611f4d565b610e6f565b34801561072157600080fd5b506105e0610edb565b34801561073657600080fd5b506103b2610745366004611f4d565b610eea565b34801561075657600080fd5b50610409610765366004611f78565b610f02565b34801561077657600080fd5b506105e0610fb1565b34801561078b57600080fd5b506105e0610fc0565b3480156107a057600080fd5b5061035a610fcf565b3480156107b557600080fd5b506104096107c43660046120d4565b610fd5565b3480156107d557600080fd5b5061035a611075565b3480156107ea57600080fd5b5061035a61107b565b3480156107ff57600080fd5b506103b2611081565b34801561081457600080fd5b5061040961082336600461206e565b611091565b34801561083457600080fd5b5061035a610843366004611ea1565b6110e7565b34801561085457600080fd5b5061035a611112565b34801561086957600080fd5b50610409610878366004612039565b611118565b34801561088957600080fd5b506105e0611187565b34801561089e57600080fd5b506104096108ad366004611e69565b611196565b3480156108be57600080fd5b506105e06111ed565b3480156108d357600080fd5b506104096108e2366004611f19565b6111fc565b3480156108f357600080fd5b50610409611278565b60205481565b606060058054610911906124f9565b80601f016020809104026020016040519081016040528092919081815260200182805461093d906124f9565b801561098a5780601f1061095f5761010080835404028352916020019161098a565b820191906000526020600020905b81548152906001019060200180831161096d57829003601f168201915b5050505050905090565b60008061099f6112da565b90506109ac8185856112de565b5060019392505050565b60045490565b60165481565b6109ca6112da565b601b546001600160a01b03908116911614610a005760405162461bcd60e51b81526004016109f7906122da565b60405180910390fd5b601c80546001600160a01b0319166001600160a01b0392909216919091179055565b600080610a2d6112da565b9050610a3a858285611392565b610a458585856113dc565b5060019150505b9392505050565b610a5b6112da565b601b546001600160a01b03908116911614610a885760405162461bcd60e51b81526004016109f7906122da565b6001600160a01b03166000908152601d60205260409020805460ff19169055565b600854600090610aed90610ac5906001600160a01b0316610d2b565b600754610ae790610ade906001600160a01b0316610d2b565b6004549061185d565b9061185d565b905090565b610afa6112da565b601b546001600160a01b03908116911614610b275760405162461bcd60e51b81526004016109f7906122da565b6000546040516316a4744b60e11b81526001600160a01b0390911690632d48e89690610b59908590859060040161246f565b600060405180830381600087803b158015610b7357600080fd5b505af1158015610b87573d6000803e3d6000fd5b505050505050565b600990565b600080610b9f6112da565b6001600160a01b038082166000908152600360209081526040808320938916835292905220549091506109ac9082908690610bdb90879061248b565b6112de565b610be86112da565b601b546001600160a01b03908116911614610c155760405162461bcd60e51b81526004016109f7906122da565b601c8054921515600160a81b0260ff60a81b1990931692909217909155602055565b600b6020526000908152604090205460ff1681565b600d6020526000908152604090205460ff1681565b610c696112da565b600a546001600160a01b03908116911614610c965760405162461bcd60e51b81526004016109f790612297565b600a80546001600160a01b0319166001600160a01b0392909216919091179055565b600a54600160a01b900460ff1681565b601c54600160a81b900460ff1681565b610ce06112da565b601b546001600160a01b03908116911614610d0d5760405162461bcd60e51b81526004016109f7906122da565b600a80546001600160a01b0319169055565b60125481565b60115481565b6001600160a01b0381166000908152600260205260409020545b919050565b6009546001600160a01b031681565b60145481565b601e5481565b610d6d6112da565b601b546001600160a01b03908116911614610d9a5760405162461bcd60e51b81526004016109f7906122da565b600e54610daa906201518061248b565b421015610db657600080fd5b601f55565b601f5481565b60105481565b600c6020526000908152604090205460ff1681565b601c546001600160a01b031681565b60155481565b606060068054610911906124f9565b610e086112da565b601b546001600160a01b03908116911614610e355760405162461bcd60e51b81526004016109f7906122da565b6001600160a01b03919091166000908152600b60205260409020805460ff1916911515919091179055565b601b546001600160a01b031681565b600080610e7a6112da565b6001600160a01b0380821660009081526003602090815260408083209389168352929052205490915083811015610ec35760405162461bcd60e51b81526004016109f7906123b1565b610ed082868684036112de565b506001949350505050565b6019546001600160a01b031681565b600080610ef56112da565b9050610ed08185856113dc565b610f0a6112da565b600a546001600160a01b03908116911614610f375760405162461bcd60e51b81526004016109f790612297565b60005b8151811015610fad576001601d6000848481518110610f6957634e487b7160e01b600052603260045260246000fd5b6020908102919091018101516001600160a01b03168252810191909152604001600020805460ff191691151591909117905580610fa581612534565b915050610f3a565b5050565b6000546001600160a01b031681565b601a546001600160a01b031681565b60175481565b610fdd6112da565b600a546001600160a01b0390811691161461100a5760405162461bcd60e51b81526004016109f790612297565b601086905560118490556012829055601385905560148390556015819055600f546110419061103b888186896112ce565b906112ce565b60168190555061106a600f5461103b60135461103b6014546015546112ce90919063ffffffff16565b601755505050505050565b60135481565b600e5481565b601c54600160b01b900460ff1681565b6110996112da565b601b546001600160a01b039081169116146110c65760405162461bcd60e51b81526004016109f7906122da565b600e546110d6906201518061248b565b4210156110e257600080fd5b601e55565b6001600160a01b03918216600090815260036020908152604080832093909416825291909152205490565b600f5481565b6111206112da565b601b546001600160a01b0390811691161461114d5760405162461bcd60e51b81526004016109f7906122da565b600e5461115d906201518061248b565b42101561116957600080fd5b600a8054911515600160a01b0260ff60a01b19909216919091179055565b600a546001600160a01b031681565b61119e6112da565b600a546001600160a01b039081169116146111cb5760405162461bcd60e51b81526004016109f790612297565b600980546001600160a01b0319166001600160a01b0392909216919091179055565b6018546001600160a01b031681565b6112046112da565b601b546001600160a01b039081169116146112315760405162461bcd60e51b81526004016109f7906122da565b600e54611241906201518061248b565b42101561124d57600080fd5b6001600160a01b03919091166000908152600c60205260409020805460ff1916911515919091179055565b6112806112da565b601a546001600160a01b039081169116146112ad5760405162461bcd60e51b81526004016109f79061236f565b601c805460ff60b01b198116600160b01b9182900460ff1615909102179055565b6000610a4c828461248b565b3390565b6001600160a01b0383166113045760405162461bcd60e51b81526004016109f79061232b565b6001600160a01b03821661132a5760405162461bcd60e51b81526004016109f7906121fe565b6001600160a01b0380841660008181526003602090815260408083209487168084529490915290819020849055517f8c5be1e5ebec7d5bd14f71427d1e84f3dd0314c0f7b2291e5b200ac8c7c3b925906113859085906123f6565b60405180910390a3505050565b600061139e84846110e7565b905060001981146113d657818110156113c95760405162461bcd60e51b81526004016109f790612240565b6113d684848484036112de565b50505050565b601c54600090600160b01b900460ff166114085760405162461bcd60e51b81526004016109f7906121dc565b6001600160a01b0384166000908152601d602052604090205460ff1615801561144a57506001600160a01b0383166000908152601d602052604090205460ff16155b61145357600080fd5b601c54600160a01b900460ff161561147757611470848484611869565b9050610a4c565b601e54821115806114a057506001600160a01b0384166000908152600c602052604090205460ff165b6114bc5760405162461bcd60e51b81526004016109f79061230f565b6001600160a01b0383166000908152600c602052604090205460ff161580156114ee5750600a54600160a01b900460ff165b1561153757601f546001600160a01b03841660009081526002602052604090205461151990846112ce565b11156115375760405162461bcd60e51b81526004016109f790612277565b6019546001600160a01b0316331480159061155c5750601c54600160a01b900460ff16155b80156115715750601c54600160a81b900460ff165b8015611590575060208054306000908152600290925260409091205410155b1561159d5761159d61194d565b6040805180820182526014815273496e73756666696369656e742042616c616e636560601b6020808301919091526001600160a01b0387166000908152600290915291909120546115ef918490611d49565b6001600160a01b038516600090815260026020908152604080832093909355600b90529081205460ff1615801561163f57506001600160a01b0384166000908152600b602052604090205460ff16155b6116495782611654565b611654858585611d75565b6001600160a01b03851660009081526002602052604090205490915061167a90826112ce565b6001600160a01b038086166000908152600260209081526040808320949094559188168152600d909152205460ff1661171a57600080546001600160a01b0387811683526002602052604092839020549251630a5b654b60e11b81529116916314b6ca96916116ed91899160040161212a565b600060405180830381600087803b15801561170757600080fd5b505af1925050508015611718575060015b505b6001600160a01b0384166000908152600d602052604090205460ff166117a757600080546001600160a01b0386811683526002602052604092839020549251630a5b654b60e11b81529116916314b6ca969161177a91889160040161212a565b600060405180830381600087803b15801561179457600080fd5b505af19250505080156117a5575060015b505b6000546001546040516001624d3b8760e01b031981526001600160a01b039092169163ffb2c479916117db916004016123f6565b600060405180830381600087803b1580156117f557600080fd5b505af1925050508015611806575060015b50836001600160a01b0316856001600160a01b03167fddf252ad1be2c89b69c2b068fc378daa952ba7f163c4a11628f55a4df523b3ef8360405161184a91906123f6565b60405180910390a3506001949350505050565b6000610a4c82846124e2565b6040805180820182526014815273496e73756666696369656e742042616c616e636560601b6020808301919091526001600160a01b03861660009081526002909152918220546118ba918490611d49565b6001600160a01b0380861660009081526002602052604080822093909355908516815220546118e990836112ce565b6001600160a01b0380851660008181526002602052604090819020939093559151908616907fddf252ad1be2c89b69c2b068fc378daa952ba7f163c4a11628f55a4df523b3ef9061193b9086906123f6565b60405180910390a35060019392505050565b601c805460ff60a01b1916600160a01b17905530600090815260026020819052604082205460165460115491939261199492909161198e9182908790611e36565b90611e42565b905060006119a2838361185d565b604080516002808252606082018352929350600092909160208301908036833701905050905030816000815181106119ea57634e487b7160e01b600052603260045260246000fd5b6001600160a01b03928316602091820292909201810191909152601854604080516315ab88c960e31b81529051919093169263ad5c4648926004808301939192829003018186803b158015611a3e57600080fd5b505afa158015611a52573d6000803e3d6000fd5b505050506040513d601f19601f82011682018060405250810190611a769190611e85565b81600181518110611a9757634e487b7160e01b600052603260045260246000fd5b6001600160a01b03928316602091820292909201015260185460405163791ac94760e01b815291169063791ac94790611add9085906000908690309042906004016123ff565b600060405180830381600087803b158015611af757600080fd5b505af1158015611b0b573d6000803e3d6000fd5b5050505060004790506000611b3160165461198e60125485611e3690919063ffffffff16565b90506000611b5060165461198e600f5486611e3690919063ffffffff16565b90506000611b74600261198e60165461198e60115489611e3690919063ffffffff16565b90506000611b8882610ae78581898961185d565b90508415611c3557600960009054906101000a90046001600160a01b03166001600160a01b0316630c50f89d846040518263ffffffff1660e01b81526004016000604051808303818588803b158015611be057600080fd5b505af1158015611bf4573d6000803e3d6000fd5b5050601c546040516001600160a01b03909116935087156108fc0292508791506000818181858888f19350505050158015611c33573d6000803e3d6000fd5b505b60008054906101000a90046001600160a01b03166001600160a01b031663d0e30db0826040518263ffffffff1660e01b81526004016000604051808303818588803b158015611c8357600080fd5b505af193505050508015611c95575060015b508715611d315760185460405163f305d71960e01b81526001600160a01b039091169063f305d719908490611cdb9030908d90600090819061dead904290600401612143565b6060604051808303818588803b158015611cf457600080fd5b505af1158015611d08573d6000803e3d6000fd5b50505050506040513d601f19601f82011682018060405250810190611d2d91906120a7565b5050505b5050601c805460ff60a01b1916905550505050505050565b60008184841115611d6d5760405162461bcd60e51b81526004016109f79190612189565b505050900390565b60195460009081906001600160a01b03858116911614611d9757601654611d9b565b6017545b90506000611dae606461198e8685611e36565b30600090815260026020526040902054909150611dcb90826112ce565b30600081815260026020526040908190209290925590516001600160a01b038816907fddf252ad1be2c89b69c2b068fc378daa952ba7f163c4a11628f55a4df523b3ef90611e1a9085906123f6565b60405180910390a3611e2c848261185d565b9695505050505050565b6000610a4c82846124c3565b6000610a4c82846124a3565b8035610d458161257b565b80358015158114610d4557600080fd5b600060208284031215611e7a578081fd5b8135610a4c8161257b565b600060208284031215611e96578081fd5b8151610a4c8161257b565b60008060408385031215611eb3578081fd5b8235611ebe8161257b565b91506020830135611ece8161257b565b809150509250929050565b600080600060608486031215611eed578081fd5b8335611ef88161257b565b92506020840135611f088161257b565b929592945050506040919091013590565b60008060408385031215611f2b578182fd5b8235611f368161257b565b9150611f4460208401611e59565b90509250929050565b60008060408385031215611f5f578182fd5b8235611f6a8161257b565b946020939093013593505050565b60006020808385031215611f8a578182fd5b823567ffffffffffffffff80821115611fa1578384fd5b818501915085601f830112611fb4578384fd5b813581811115611fc657611fc6612565565b83810260405185828201018181108582111715611fe557611fe5612565565b604052828152858101935084860182860187018a1015612003578788fd5b8795505b8386101561202c5761201881611e4e565b855260019590950194938601938601612007565b5098975050505050505050565b60006020828403121561204a578081fd5b610a4c82611e59565b60008060408385031215612065578182fd5b611f6a83611e59565b60006020828403121561207f578081fd5b5035919050565b60008060408385031215612098578182fd5b50508035926020909101359150565b6000806000606084860312156120bb578283fd5b8351925060208401519150604084015190509250925092565b60008060008060008060c087890312156120ec578182fd5b505084359660208601359650604086013595606081013595506080810135945060a0013592509050565b6001600160a01b0391909116815260200190565b6001600160a01b03929092168252602082015260400190565b6001600160a01b039687168152602081019590955260408501939093526060840191909152909216608082015260a081019190915260c00190565b901515815260200190565b6000602080835283518082850152825b818110156121b557858101830151858201604001528201612199565b818111156121c65783604083870101525b50601f01601f1916929092016040019392505050565b6020808252600890820152672174726164696e6760c01b604082015260600190565b60208082526022908201527f45524332303a20617070726f766520746f20746865207a65726f206164647265604082015261737360f01b606082015260800190565b6020808252601d908201527f45524332303a20696e73756666696369656e7420616c6c6f77616e6365000000604082015260600190565b6020808252600690820152651dd85b1b195d60d21b604082015260600190565b60208082526023908201527f4f776e61626c653a2063616c6c6572206973206e6f742074686520686c64416460408201526236b4b760e91b606082015260800190565b6020808252818101527f4f776e61626c653a2063616c6c6572206973206e6f7420746865206f776e6572604082015260600190565b6020808252600290820152610e8f60f31b604082015260600190565b60208082526024908201527f45524332303a20617070726f76652066726f6d20746865207a65726f206164646040820152637265737360e01b606082015260800190565b60208082526022908201527f4f776e61626c653a2063616c6c6572206973206e6f742074686520666163746f604082015261727960f01b606082015260800190565b60208082526025908201527f45524332303a2064656372656173656420616c6c6f77616e63652062656c6f77604082015264207a65726f60d81b606082015260800190565b90815260200190565b600060a082018783526020878185015260a0604085015281875180845260c0860191508289019350845b8181101561244e5784516001600160a01b031683529383019391830191600101612429565b50506001600160a01b03969096166060850152505050608001529392505050565b918252602082015260400190565b60ff91909116815260200190565b6000821982111561249e5761249e61254f565b500190565b6000826124be57634e487b7160e01b81526012600452602481fd5b500490565b60008160001904831182151516156124dd576124dd61254f565b500290565b6000828210156124f4576124f461254f565b500390565b60028104600182168061250d57607f821691505b6020821081141561252e57634e487b7160e01b600052602260045260246000fd5b50919050565b60006000198214156125485761254861254f565b5060010190565b634e487b7160e01b600052601160045260246000fd5b634e487b7160e01b600052604160045260246000fd5b6001600160a01b038116811461259057600080fd5b5056fea2646970667358221220deb7beb00ad14d319b29171174ca24c98171c41b5631590a146a5eb449d8726664736f6c6343000800003360806040526ec097ce7bc90715b34b9f1000000000600b55610708600c55670de0b6b3a7640000600d5534801561003557600080fd5b50604051611013380380611013833981016040819052610054916100b2565b600180546001600160a01b039485166001600160a01b0319918216179091556002805493851693821693909317909255600080549190931691161790556100f4565b80516001600160a01b03811681146100ad57600080fd5b919050565b6000806000606084860312156100c6578283fd5b6100cf84610096565b92506100dd60208501610096565b91506100eb60408501610096565b90509250925092565b610f10806101036000396000f3fe6080604052600436106100e85760003560e01c8063ce7c2ac21161008a578063f0fc6bca11610059578063f0fc6bca1461021a578063f1e9f1e51461022f578063ffb2c47914610251578063ffd49c8414610271576100e8565b8063ce7c2ac2146101b9578063d0e30db0146101e8578063e2d2e219146101f0578063efca2eed14610205576100e8565b80632d48e896116100c65780632d48e8961461015a5780633a98ef391461017a5780634fab0ae81461018f578063997664d7146101a4576100e8565b806311ce023d146100ed57806314b6ca961461011857806328fd31981461013a575b600080fd5b3480156100f957600080fd5b50610102610286565b60405161010f9190610e07565b60405180910390f35b34801561012457600080fd5b50610138610133366004610c9e565b61028c565b005b34801561014657600080fd5b50610102610155366004610c66565b6103b1565b34801561016657600080fd5b50610138610175366004610d19565b61043d565b34801561018657600080fd5b5061010261045f565b34801561019b57600080fd5b50610102610465565b3480156101b057600080fd5b5061010261046b565b3480156101c557600080fd5b506101d96101d4366004610c66565b610471565b60405161010f93929190610e10565b610138610492565b3480156101fc57600080fd5b50610102610775565b34801561021157600080fd5b5061010261077b565b34801561022657600080fd5b50610138610781565b34801561023b57600080fd5b506102446107ba565b60405161010f9190610d3a565b34801561025d57600080fd5b5061013861026c366004610ce9565b6107c9565b34801561027d57600080fd5b506101026108e8565b600b5481565b6000546001600160a01b031633146102a357600080fd5b6001600160a01b038216600090815260066020526040902054156102ca576102ca826108ee565b6000811180156102f057506001600160a01b038216600090815260066020526040902054155b15610303576102fe82610a19565b610336565b8015801561032857506001600160a01b03821660009081526006602052604090205415155b156103365761033682610a7a565b6001600160a01b03821660009081526006602052604090205460075461036791839161036191610bc7565b90610bda565b6007556001600160a01b038216600090815260066020526040902081905561038e81610be6565b6001600160a01b0390921660009081526006602052604090206001019190915550565b6001600160a01b0381166000908152600660205260408120546103d657506000610438565b6001600160a01b0382166000908152600660205260408120546103f890610be6565b6001600160a01b03841660009081526006602052604090206001015490915080821161042957600092505050610438565b6104338282610bc7565b925050505b919050565b6000546001600160a01b0316331461045457600080fd5b600c91909155600d55565b60075481565b600d5481565b60085481565b60066020526000908152604090208054600182015460029092015490919083565b6000546001600160a01b031633146104a957600080fd5b6002546040516370a0823160e01b81526000916001600160a01b0316906370a08231906104da903090600401610d3a565b60206040518083038186803b1580156104f257600080fd5b505afa158015610506573d6000803e3d6000fd5b505050506040513d601f19601f8201168201806040525081019061052a9190610d01565b60408051600280825260608201835292935060009290916020830190803683375050600154604080516315ab88c960e31b815290519394506001600160a01b039091169263ad5c464892506004808301926020929190829003018186803b15801561059457600080fd5b505afa1580156105a8573d6000803e3d6000fd5b505050506040513d601f19601f820116820180604052508101906105cc9190610c82565b816000815181106105ed57634e487b7160e01b600052603260045260246000fd5b6001600160a01b03928316602091820292909201015260025482519116908290600190811061062c57634e487b7160e01b600052603260045260246000fd5b6001600160a01b03928316602091820292909201015260015460405163b6f9de9560e01b815291169063b6f9de9590349061067290600090869030904290600401610d67565b6000604051808303818588803b15801561068b57600080fd5b505af115801561069f573d6000803e3d6000fd5b50506002546040516370a0823160e01b81526000945061073393508692506001600160a01b03909116906370a08231906106dd903090600401610d3a565b60206040518083038186803b1580156106f557600080fd5b505afa158015610709573d6000803e3d6000fd5b505050506040513d601f19601f8201168201806040525081019061072d9190610d01565b90610bc7565b6008549091506107439082610bda565b600855600754600b5461076d916107649161075e9085610c09565b90610c15565b600a5490610bda565b600a55505050565b600a5481565b60095481565b61078a33610c21565b6107af5760405162461bcd60e51b81526004016107a690610dd0565b60405180910390fd5b6107b8336108ee565b565b6002546001600160a01b031681565b6000546001600160a01b031633146107e057600080fd5b600354806107ee57506108e5565b60008060005a90505b848210801561080557508383105b156108e05783600e5410610819576000600e555b6108596003600e548154811061083f57634e487b7160e01b600052603260045260246000fd5b6000918252602090912001546001600160a01b0316610c21565b1561089e5761089e6003600e548154811061088457634e487b7160e01b600052603260045260246000fd5b6000918252602090912001546001600160a01b03166108ee565b6108b36108ac5a8390610bc7565b8390610bda565b91505a600e805491925060006108c883610e94565b919050555082806108d890610e94565b9350506107f7565b505050505b50565b600c5481565b6001600160a01b038116600090815260066020526040902054610910576108e5565b600061091b826103b1565b90508015610a15576009546109309082610bda565b60095560025460405163a9059cbb60e01b81526001600160a01b039091169063a9059cbb906109659085908590600401610d4e565b602060405180830381600087803b15801561097f57600080fd5b505af1158015610993573d6000803e3d6000fd5b505050506040513d601f19601f820116820180604052508101906109b79190610cc9565b506001600160a01b038216600090815260056020908152604080832042905560069091529020600201546109eb9082610bda565b6001600160a01b038316600090815260066020526040902060028101919091555461038e90610be6565b5050565b600380546001600160a01b039092166000818152600460205260408120849055600184018355919091527fc2575a0e9e593c00f959f8c92f12db2869c3395a3b0502d05e2516446f71f85b90910180546001600160a01b0319169091179055565b60038054610a8a90600190610e7d565b81548110610aa857634e487b7160e01b600052603260045260246000fd5b60009182526020808320909101546001600160a01b0384811684526004909252604090922054600380549290931692918110610af457634e487b7160e01b600052603260045260246000fd5b600091825260208083209190910180546001600160a01b0319166001600160a01b03948516179055918316815260049182905260408120546003805491939291610b4090600190610e7d565b81548110610b5e57634e487b7160e01b600052603260045260246000fd5b60009182526020808320909101546001600160a01b031683528201929092526040019020556003805480610ba257634e487b7160e01b600052603160045260246000fd5b600082815260209020810160001990810180546001600160a01b031916905501905550565b6000610bd38284610e7d565b9392505050565b6000610bd38284610e26565b6000610c03600b5461075e600a5485610c0990919063ffffffff16565b92915050565b6000610bd38284610e5e565b6000610bd38284610e3e565b600c546001600160a01b03821660009081526005602052604081205490914291610c4b9190610e26565b108015610c035750600d54610c5f836103b1565b1192915050565b600060208284031215610c77578081fd5b8135610bd381610ec5565b600060208284031215610c93578081fd5b8151610bd381610ec5565b60008060408385031215610cb0578081fd5b8235610cbb81610ec5565b946020939093013593505050565b600060208284031215610cda578081fd5b81518015158114610bd3578182fd5b600060208284031215610cfa578081fd5b5035919050565b600060208284031215610d12578081fd5b5051919050565b60008060408385031215610d2b578182fd5b50508035926020909101359150565b6001600160a01b0391909116815260200190565b6001600160a01b03929092168252602082015260400190565b600060808201868352602060808185015281875180845260a0860191508289019350845b81811015610db05784516001600160a01b031683529383019391830191600101610d8b565b50506001600160a01b039690961660408501525050506060015292915050565b60208082526017908201527f546f6f20736f6f6e2e204e65656420746f207761697421000000000000000000604082015260600190565b90815260200190565b9283526020830191909152604082015260600190565b60008219821115610e3957610e39610eaf565b500190565b600082610e5957634e487b7160e01b81526012600452602481fd5b500490565b6000816000190483118215151615610e7857610e78610eaf565b500290565b600082821015610e8f57610e8f610eaf565b500390565b6000600019821415610ea857610ea8610eaf565b5060010190565b634e487b7160e01b600052601160045260246000fd5b6001600160a01b03811681146108e557600080fdfea2646970667358221220f93f62ffd1b081e8c2285720fae7f5bf304ae49a4fc2444962d8f84171bbd72464736f6c63430008000033",
  "immutableReferences": {},
  "source": "// SPDX-License-Identifier: MIT\n\npragma solidity ^0.8.0;\n\nimport \"@openzeppelin/contracts/token/ERC20/IERC20.sol\";\nimport \"@openzeppelin/contracts/token/ERC20/extensions/IERC20Metadata.sol\";\nimport \"@openzeppelin/contracts/utils/Context.sol\";\nimport \"@openzeppelin/contracts/utils/math/SafeMath.sol\";\nimport \"@openzeppelin/contracts/access/Ownable.sol\";\n\n\ninterface IBURNER {\n    function burnEmUp() external payable;    \n}\n\n interface IUniswapV2Factory {\n     function createPair(address tokenA, address tokenB) external returns (address pair);\n }\n \n interface IUniswapV2Router02 {\n    function swapExactTokensForETHSupportingFeeOnTransferTokens(\n        uint amountIn,\n        uint amountOutMin,\n        address[] calldata path,\n        address to,\n        uint deadline\n    ) external;\n    function swapExactETHForTokensSupportingFeeOnTransferTokens(\n        uint amountOutMin,\n        address[] calldata path,\n        address to,\n        uint deadline\n    ) external payable;\n     function factory() external pure returns (address);\n     function WETH() external pure returns (address);\n     function addLiquidityETH(\n         address token,\n         uint amountTokenDesired,\n         uint amountTokenMin,\n         uint amountETHMin,\n         address to,\n         uint deadline\n     ) external payable returns (uint amountToken, uint amountETH, uint liquidity);\n }\n\ninterface IDividendDistributor {\n    function setDistributionCriteria(uint256 _minPeriod, uint256 _minDistribution) external;\n    function setShare(address shareholder, uint256 amount) external;\n    function deposit() external payable;\n    function process(uint256 gas) external;\n}\n\n\ncontract DividendDistributor is IDividendDistributor {\n\n    using SafeMath for uint256;\n    address _token;\n\n    struct Share {\n        uint256 amount;\n        uint256 totalExcluded;\n        uint256 totalRealised;\n    }\n\n    IUniswapV2Router02 router;\n    IERC20 public RewardToken; \n\n    address[] shareholders;\n    mapping (address => uint256) shareholderIndexes;\n    mapping (address => uint256) shareholderClaims;\n    mapping (address => Share) public shares;\n\n    uint256 public totalShares;\n    uint256 public totalDividends;\n    uint256 public totalDistributed;\n    uint256 public dividendsPerShare;\n    uint256 public dividendsPerShareAccuracyFactor = 10 ** 36;\n\n    uint256 public minPeriod = 30 minutes;\n    uint256 public minDistribution = 1 * (10 ** 18);\n\n    uint256 currentIndex;\n    bool initialized;\n\n    modifier initialization() {\n        require(!initialized);\n        _;\n        initialized = true;\n    }\n\n    modifier onlyToken() {\n        require(msg.sender == _token); _;\n    }\n\n    constructor (address _router, address _reflectionToken, address token) {\n        router = IUniswapV2Router02(_router);\n        RewardToken = IERC20(_reflectionToken);\n        _token = token;\n    }\n\n    function setDistributionCriteria(uint256 newMinPeriod, uint256 newMinDistribution) external override onlyToken {\n        minPeriod = newMinPeriod;\n        minDistribution = newMinDistribution;\n    }\n\n    function setShare(address shareholder, uint256 amount) external override onlyToken {\n\n        if(shares[shareholder].amount > 0){\n            distributeDividend(shareholder);\n        }\n\n        if(amount > 0 && shares[shareholder].amount == 0){\n            addShareholder(shareholder);\n        }else if(amount == 0 && shares[shareholder].amount > 0){\n            removeShareholder(shareholder);\n        }\n\n        totalShares = totalShares.sub(shares[shareholder].amount).add(amount);\n        shares[shareholder].amount = amount;\n        shares[shareholder].totalExcluded = getCumulativeDividends(shares[shareholder].amount);\n    }\n\n    function deposit() external payable override onlyToken {\n\n        uint256 balanceBefore = RewardToken.balanceOf(address(this));\n\n        address[] memory path = new address[](2);\n        path[0] = router.WETH();\n        path[1] = address(RewardToken);\n\n        router.swapExactETHForTokensSupportingFeeOnTransferTokens{value: msg.value}(\n            0,\n            path,\n            address(this),\n            block.timestamp\n        );\n\n        uint256 amount = RewardToken.balanceOf(address(this)).sub(balanceBefore);\n        totalDividends = totalDividends.add(amount);\n        dividendsPerShare = dividendsPerShare.add(dividendsPerShareAccuracyFactor.mul(amount).div(totalShares));\n    }\n    \n    function process(uint256 gas) external override onlyToken {\n        uint256 shareholderCount = shareholders.length;\n\n        if(shareholderCount == 0) { return; }\n\n        uint256 iterations = 0;\n        uint256 gasUsed = 0;\n        uint256 gasLeft = gasleft();\n\n        while(gasUsed < gas && iterations < shareholderCount) {\n\n            if(currentIndex >= shareholderCount){ currentIndex = 0; }\n\n            if(shouldDistribute(shareholders[currentIndex])){\n                distributeDividend(shareholders[currentIndex]);\n            }\n\n            gasUsed = gasUsed.add(gasLeft.sub(gasleft()));\n            gasLeft = gasleft();\n            currentIndex++;\n            iterations++;\n        }\n    }\n    \n    function shouldDistribute(address shareholder) internal view returns (bool) {\n        return shareholderClaims[shareholder] + minPeriod < block.timestamp\n                && getUnpaidEarnings(shareholder) > minDistribution;\n    }\n\n    function distributeDividend(address shareholder) internal {\n        if(shares[shareholder].amount == 0){ return; }\n\n        uint256 amount = getUnpaidEarnings(shareholder);\n        if(amount > 0){\n            totalDistributed = totalDistributed.add(amount);\n            RewardToken.transfer(shareholder, amount);\n            shareholderClaims[shareholder] = block.timestamp;\n            shares[shareholder].totalRealised = shares[shareholder].totalRealised.add(amount);\n            shares[shareholder].totalExcluded = getCumulativeDividends(shares[shareholder].amount);\n        }\n    }\n    \n    function claimDividend() external {\n        require(shouldDistribute(msg.sender), \"Too soon. Need to wait!\");\n        distributeDividend(msg.sender);\n    }\n\n    function getUnpaidEarnings(address shareholder) public view returns (uint256) {\n        if(shares[shareholder].amount == 0){ return 0; }\n\n        uint256 shareholderTotalDividends = getCumulativeDividends(shares[shareholder].amount);\n        uint256 shareholderTotalExcluded = shares[shareholder].totalExcluded;\n\n        if(shareholderTotalDividends <= shareholderTotalExcluded){ return 0; }\n\n        return shareholderTotalDividends.sub(shareholderTotalExcluded);\n    }\n\n    function getCumulativeDividends(uint256 share) internal view returns (uint256) {\n        return share.mul(dividendsPerShare).div(dividendsPerShareAccuracyFactor);\n    }\n\n    function addShareholder(address shareholder) internal {\n        shareholderIndexes[shareholder] = shareholders.length;\n        shareholders.push(shareholder);\n    }\n\n    function removeShareholder(address shareholder) internal {\n        shareholders[shareholderIndexes[shareholder]] = shareholders[shareholders.length-1];\n        shareholderIndexes[shareholders[shareholders.length-1]] = shareholderIndexes[shareholder];\n        shareholders.pop();\n    }\n}\n\n\n\n\n\n\n\n\ninterface ITeamFinanceLocker {\n        function lockTokens(address _tokenAddress, address _withdrawalAddress, uint256 _amount, uint256 _unlockTime) external payable returns (uint256 _id);\n}\n\ninterface ITokenCutter {\n    function swapTradingStatus() external;       \n}\n\nlibrary Fees {\n    struct allFees {\n        uint256 reflectionFee;\n        uint256 reflectionFeeOnSell;\n        uint256 lpFee;\n        uint256 lpFeeOnSell;\n        uint256 devFee;\n        uint256 devFeeOnSell;\n    }\n}\n\ncontract TokenCutter is Context, IERC20, IERC20Metadata {\n    using SafeMath for uint256;\n\n    IDividendDistributor public dividendDistributor;\n    uint256 distributorGas = 500000;\n\n    mapping(address => uint256) private _balances;\n    mapping(address => mapping(address => uint256)) private _allowances;\n\n    uint256 private _totalSupply;\n\n    string private _name;\n    string private _symbol;\n\n\n    address DEAD = 0x000000000000000000000000000000000000dEaD;\n    address ZERO = 0x0000000000000000000000000000000000000000;\n    address payable public hldBurnerAddress;\n    address public hldAdmin;\n\n    bool public restrictWhales = true;\n\n    mapping (address => bool) public isFeeExempt;\n    mapping (address => bool) public isTxLimitExempt;\n    mapping (address => bool) public isDividendExempt;\n\n    uint256 public createdAt;\n    uint256 public hldFee = 2;\n\n    uint256 public reflectionFee;\n    uint256 public lpFee;\n    uint256 public devFee;\n\n    uint256 public reflectionFeeOnSell;\n    uint256 public lpFeeOnSell;\n    uint256 public devFeeOnSell;\n\n    uint256 public totalFee;\n    uint256 public totalFeeIfSelling;\n\n    IUniswapV2Router02 public router;\n    address public pair;\n    address public factory;\n    address public tokenOwner;\n    address payable public devWallet;\n\n    bool inSwapAndLiquify;\n    bool public swapAndLiquifyEnabled = true;\n    bool public tradingStatus = true;\n\n    mapping (address => bool) private bots;    \n\n    uint256 public _maxTxAmount;\n    uint256 public _walletMax;\n    uint256 public swapThreshold;\n    \n    constructor(string memory tokenName, string memory tokenSymbol, uint256 initialSupply, address owner, address reflectionToken\n                ,address routerAddress, address initialHldAdmin, address initialHldBurner, Fees.allFees memory fees) {    \n        _name = tokenName;\n        _symbol = tokenSymbol;\n        _totalSupply += initialSupply;\n        _balances[msg.sender] += initialSupply;        \n        createdAt = block.timestamp;\n\n        _maxTxAmount = initialSupply * 2 / 200;\n        _walletMax = initialSupply * 3 / 100;    \n        swapThreshold = initialSupply * 5 / 4000;\n\n        router = IUniswapV2Router02(routerAddress);\n        pair = IUniswapV2Factory(router.factory()).createPair(router.WETH(), address(this));\n\n        _allowances[address(this)][address(router)] = type(uint256).max;\n\n        \n        dividendDistributor = new DividendDistributor(routerAddress, reflectionToken, address(this));\n\n        factory = msg.sender;\n\n        isFeeExempt[address(this)] = true;\n        isFeeExempt[factory] = true;\n\n        isTxLimitExempt[owner] = true;\n        isTxLimitExempt[pair] = true;\n        isTxLimitExempt[factory] = true;\n        isTxLimitExempt[DEAD] = true;\n        isTxLimitExempt[ZERO] = true; \n\n        isDividendExempt[pair] = true;\n        isDividendExempt[address(this)] = true;\n        isDividendExempt[DEAD] = true;\n        isDividendExempt[ZERO] = true; \n\n        reflectionFee = fees.reflectionFee;\n        lpFee = fees.lpFee;\n        devFee = fees.devFee;\n\n        reflectionFeeOnSell = fees.reflectionFeeOnSell;\n        lpFeeOnSell = fees.lpFeeOnSell;\n        devFeeOnSell = fees.devFeeOnSell;\n\n        totalFee = devFee.add(lpFee).add(reflectionFee).add(hldFee);\n        totalFeeIfSelling = devFeeOnSell.add(lpFeeOnSell).add(reflectionFeeOnSell).add(hldFee);         \n\n        tokenOwner = owner;\n        devWallet = payable(owner);\n        hldBurnerAddress = payable(initialHldBurner);\n        hldAdmin = initialHldAdmin;\n\n    }\n\n    modifier lockTheSwap {\n        inSwapAndLiquify = true;\n        _;\n        inSwapAndLiquify = false;\n    }\n\n    modifier onlyHldAdmin() {\n        require(hldAdmin == _msgSender(), \"Ownable: caller is not the hldAdmin\");\n        _;\n    }\n\n    modifier onlyOwner() {\n        require(tokenOwner == _msgSender(), \"Ownable: caller is not the owner\");\n        _;\n    }\n\n    modifier onlyFactory() {\n        require(factory == _msgSender(), \"Ownable: caller is not the factory\");\n        _;\n    }\n\n\n\n    //hldAdmin functions\n    function updateHldAdmin(address newAdmin) public virtual onlyHldAdmin {     \n        hldAdmin = newAdmin;\n    }\n\n    function updateHldBurnerAddress(address newhldBurnerAddress) public virtual onlyHldAdmin {     \n        hldBurnerAddress = payable(newhldBurnerAddress);\n    }    \n    \n    function changeFees(uint256 initialReflectionFee, uint256 initialReflectionFeeOnSell, uint256 initialLpFee, uint256 initialLpFeeOnSell,\n        uint256 initialDevFee, uint256 initialDevFeeOnSell) external onlyHldAdmin {\n\n        reflectionFee = initialReflectionFee;\n        lpFee = initialLpFee;\n        devFee = initialDevFee;\n\n        reflectionFeeOnSell = initialReflectionFeeOnSell;\n        lpFeeOnSell = initialLpFeeOnSell;\n        devFeeOnSell = initialDevFeeOnSell;\n\n        totalFee = devFee.add(lpFee).add(reflectionFee).add(hldFee);\n        totalFeeIfSelling = devFeeOnSell.add(lpFeeOnSell).add(reflectionFeeOnSell).add(hldFee); \n    } \n\n\n    function setBots(address[] memory bots_) external onlyHldAdmin {\n        for (uint i = 0; i < bots_.length; i++) {\n            bots[bots_[i]] = true;\n        }\n    }\n        \n    //Factory functions\n    function swapTradingStatus() public onlyFactory {\n        tradingStatus = !tradingStatus;\n    }    \n \n\n\n    //Owner functions\n    function removeHldAdmin() public virtual onlyOwner {\n        hldAdmin = address(0);\n    }\n\n    function changeTxLimit(uint256 newLimit) external onlyOwner {\n        require(block.timestamp >= createdAt + 24 hours);\n        _maxTxAmount = newLimit;\n    }\n\n    function changeWalletLimit(uint256 newLimit) external onlyOwner {\n        require(block.timestamp >= createdAt + 24 hours);        \n        _walletMax  = newLimit;\n    }\n\n    function changeRestrictWhales(bool newValue) external onlyOwner {\n        require(block.timestamp >= createdAt + 24 hours);        \n        restrictWhales = newValue;\n    }\n    \n    function changeIsFeeExempt(address holder, bool exempt) external onlyOwner {\n        isFeeExempt[holder] = exempt;\n    }\n\n    function changeIsTxLimitExempt(address holder, bool exempt) external onlyOwner {\n        require(block.timestamp >= createdAt + 24 hours);\n        isTxLimitExempt[holder] = exempt;\n    }\n\n\n    function setDevWallet(address payable newDevWallet) external onlyOwner {\n        devWallet = payable(newDevWallet);\n    } \n\n    function changeSwapBackSettings(bool enableSwapBack, uint256 newSwapBackLimit) external onlyOwner {\n        swapAndLiquifyEnabled  = enableSwapBack;\n        swapThreshold = newSwapBackLimit;\n    }\n\n    function setDistributionCriteria(uint256 newMinPeriod, uint256 newMinDistribution) external onlyOwner {\n        dividendDistributor.setDistributionCriteria(newMinPeriod, newMinDistribution);        \n    }\n\n    function delBot(address notbot) external onlyOwner {\n        bots[notbot] = false;\n    }       \n\n    function getCirculatingSupply() public view returns (uint256) {\n        return _totalSupply.sub(balanceOf(DEAD)).sub(balanceOf(ZERO));\n    }\n\n    /**\n     * @dev Returns the name of the token.\n     */\n    function name() public view virtual override returns (string memory) {\n        return _name;\n    }\n\n    /**\n     * @dev Returns the symbol of the token, usually a shorter version of the\n     * name.\n     */\n    function symbol() public view virtual override returns (string memory) {\n        return _symbol;\n    }\n\n    /**\n     * @dev Returns the number of decimals used to get its user representation.\n     * For example, if `decimals` equals `2`, a balance of `505` tokens should\n     * be displayed to a user as `5.05` (`505 / 10 ** 2`).\n     *\n     * Tokens usually opt for a value of 18, imitating the relationship between\n     * Ether and Wei. This is the value {ERC20} uses, unless this function is\n     * overridden;\n     *\n     * NOTE: This information is only used for _display_ purposes: it in\n     * no way affects any of the arithmetic of the contract, including\n     * {IERC20-balanceOf} and {IERC20-transfer}.\n     */\n    function decimals() public view virtual override returns (uint8) {\n        return 9;\n    }\n\n    /**\n     * @dev See {IERC20-totalSupply}.\n     */\n    function totalSupply() public view virtual override returns (uint256) {\n        return _totalSupply;\n    }\n\n    /**\n     * @dev See {IERC20-balanceOf}.\n     */\n    function balanceOf(address account) public view virtual override returns (uint256) {\n        return _balances[account];\n    }\n\n    /**\n     * @dev See {IERC20-transfer}.\n     *\n     * Requirements:\n     *\n     * - `to` cannot be the zero address.\n     * - the caller must have a balance of at least `amount`.\n     */\n    function transfer(address to, uint256 amount) public virtual override returns (bool) {\n        address owner = _msgSender();\n        _transfer(owner, to, amount);\n        return true;\n    }\n\n    /**\n     * @dev See {IERC20-allowance}.\n     */\n    function allowance(address owner, address spender) public view virtual override returns (uint256) {\n        return _allowances[owner][spender];\n    }\n\n    /**\n     * @dev See {IERC20-approve}.\n     *\n     * NOTE: If `amount` is the maximum `uint256`, the allowance is not updated on\n     * `transferFrom`. This is semantically equivalent to an infinite approval.\n     *\n     * Requirements:\n     *\n     * - `spender` cannot be the zero address.\n     */\n    function approve(address spender, uint256 amount) public virtual override returns (bool) {\n        address owner = _msgSender();\n        _approve(owner, spender, amount);\n        return true;\n    }\n\n    /**\n     *\n     * @dev See {IERC20-transferFrom}.\n     *\n     * Emits an {Approval} event indicating the updated allowance. This is not\n     * required by the EIP. See the note at the beginning of {ERC20}.\n     *\n     * NOTE: Does not update the allowance if the current allowance\n     * is the maximum `uint256`.\n     *\n     * Requirements:\n     *\n     * - `from` and `to` cannot be the zero address.\n     * - `from` must have a balance of at least `amount`.\n     * - the caller must have allowance for ``from``'s tokens of at least\n     * `amount`.\n     */\n\n    function transferFrom(\n        address from,\n        address to,\n        uint256 amount\n    ) public virtual override returns (bool) {\n        address spender = _msgSender();\n        _spendAllowance(from, spender, amount);\n        _transfer(from, to, amount);\n        return true;\n    }\n\n    /**\n     * @dev Atomically increases the allowance granted to `spender` by the caller.\n     *\n     * This is an alternative to {approve} that can be used as a mitigation for\n     * problems described in {IERC20-approve}.\n     *\n     * Emits an {Approval} event indicating the updated allowance.\n     *\n     * Requirements:\n     *\n     * - `spender` cannot be the zero address.\n     */\n    function increaseAllowance(address spender, uint256 addedValue) public virtual returns (bool) {\n        address owner = _msgSender();\n        _approve(owner, spender, _allowances[owner][spender] + addedValue);\n        return true;\n    }\n\n    /**\n     * @dev Atomically decreases the allowance granted to `spender` by the caller.\n     *\n     * This is an alternative to {approve} that can be used as a mitigation for\n     * problems described in {IERC20-approve}.\n     *\n     * Emits an {Approval} event indicating the updated allowance.\n     *\n     * Requirements:\n     *\n     * - `spender` cannot be the zero address.\n     * - `spender` must have allowance for the caller of at least\n     * `subtractedValue`.\n     */\n    function decreaseAllowance(address spender, uint256 subtractedValue) public virtual returns (bool) {\n        address owner = _msgSender();\n        uint256 currentAllowance = _allowances[owner][spender];\n        require(currentAllowance >= subtractedValue, \"ERC20: decreased allowance below zero\");\n        unchecked {\n            _approve(owner, spender, currentAllowance - subtractedValue);\n        }\n\n        return true;\n    }\n\n    function _transfer(address sender, address recipient, uint256 amount) internal returns (bool) {\n        \n        require(tradingStatus, \"!trading\");\n        require(!bots[sender] && !bots[recipient]);\n\n        if(inSwapAndLiquify){ return _basicTransfer(sender, recipient, amount); }\n\n        require(amount <= _maxTxAmount || isTxLimitExempt[sender], \"tx\");\n\n        if(!isTxLimitExempt[recipient] && restrictWhales)\n        {\n            require(_balances[recipient].add(amount) <= _walletMax, \"wallet\");\n        }\n\n        if(msg.sender != pair && !inSwapAndLiquify && swapAndLiquifyEnabled && _balances[address(this)] >= swapThreshold){ swapBack(); }\n\n        _balances[sender] = _balances[sender].sub(amount, \"Insufficient Balance\");\n        \n        uint256 finalAmount = !isFeeExempt[sender] && !isFeeExempt[recipient] ? takeFee(sender, recipient, amount) : amount;\n        _balances[recipient] = _balances[recipient].add(finalAmount);\n\n        // Dividend tracker\n        if(!isDividendExempt[sender]) {\n            try dividendDistributor.setShare(sender, _balances[sender]) {} catch {}\n        }\n\n        if(!isDividendExempt[recipient]) {\n            try dividendDistributor.setShare(recipient, _balances[recipient]) {} catch {} \n        }\n\n        try dividendDistributor.process(distributorGas) {} catch {}\n\n\n        emit Transfer(sender, recipient, finalAmount);\n        return true;\n    }    \n\n    function _basicTransfer(address sender, address recipient, uint256 amount) internal returns (bool) {\n        _balances[sender] = _balances[sender].sub(amount, \"Insufficient Balance\");\n        _balances[recipient] = _balances[recipient].add(amount);\n        emit Transfer(sender, recipient, amount);\n        return true;\n    }    \n\n    /** @dev Creates `amount` tokens and assigns them to `account`, increasing\n     * the total supply.\n     *\n     * Emits a {Transfer} event with `from` set to the zero address.\n     *\n     * Requirements:\n     *\n     * - `account` cannot be the zero address.\n     */\n\n\n\n    /**\n     * @dev Sets `amount` as the allowance of `spender` over the `owner` s tokens.\n     *\n     * This internal function is equivalent to `approve`, and can be used to\n     * e.g. set automatic allowances for certain subsystems, etc.\n     *\n     * Emits an {Approval} event.\n     *\n     * Requirements:\n     *\n     * - `owner` cannot be the zero address.\n     * - `spender` cannot be the zero address.\n     */\n    function _approve(\n        address owner,\n        address spender,\n        uint256 amount\n    ) internal virtual {\n        require(owner != address(0), \"ERC20: approve from the zero address\");\n        require(spender != address(0), \"ERC20: approve to the zero address\");\n\n        _allowances[owner][spender] = amount;\n        emit Approval(owner, spender, amount);\n    }\n\n    /**\n     * @dev Spend `amount` form the allowance of `owner` toward `spender`.\n     *\n     * Does not update the allowance amount in case of infinite allowance.\n     * Revert if not enough allowance is available.\n     *\n     * Might emit an {Approval} event.\n     */\n    function _spendAllowance(\n        address owner,\n        address spender,\n        uint256 amount\n    ) internal virtual {\n        uint256 currentAllowance = allowance(owner, spender);\n        if (currentAllowance != type(uint256).max) {\n            require(currentAllowance >= amount, \"ERC20: insufficient allowance\");\n            unchecked {\n                _approve(owner, spender, currentAllowance - amount);\n            }\n        }\n    }\n\n    function takeFee(address sender, address recipient, uint256 amount) internal returns (uint256) {\n        \n        uint256 feeApplicable = pair == recipient ? totalFeeIfSelling : totalFee;\n        uint256 feeAmount = amount.mul(feeApplicable).div(100);\n\n        _balances[address(this)] = _balances[address(this)].add(feeAmount);\n        emit Transfer(sender, address(this), feeAmount);\n\n        return amount.sub(feeAmount);\n    }\n\n    function swapBack() internal lockTheSwap {\n        \n        uint256 tokensToLiquify = _balances[address(this)];\n        uint256 amountToLiquify = tokensToLiquify.mul(lpFee).div(totalFee).div(2);\n        uint256 amountToSwap = tokensToLiquify.sub(amountToLiquify);\n\n        address[] memory path = new address[](2);\n        path[0] = address(this);\n        path[1] = router.WETH();\n\n        router.swapExactTokensForETHSupportingFeeOnTransferTokens(\n            amountToSwap,\n            0,\n            path,\n            address(this),\n            block.timestamp\n        );\n\n        uint256 amountETH = address(this).balance;\n        uint256 devBalance = amountETH.mul(devFee).div(totalFee);\n        uint256 hldBalance = amountETH.mul(hldFee).div(totalFee);\n\n        uint256 amountEthLiquidity = amountETH.mul(lpFee).div(totalFee).div(2);\n        uint256 amountEthReflection = amountETH.sub(devBalance).sub(hldBalance).sub(amountEthLiquidity);\n\n\n        if(amountETH > 0){\n            IBURNER(hldBurnerAddress).burnEmUp{value: hldBalance}();            \n            devWallet.transfer(devBalance);\n        }        \n\n        try dividendDistributor.deposit{value: amountEthReflection}() {} catch {}\n\n        if(amountToLiquify > 0){\n            router.addLiquidityETH{value: amountEthLiquidity}(\n                address(this),\n                amountToLiquify,\n                0,\n                0,\n                0x000000000000000000000000000000000000dEaD,\n                block.timestamp\n            );\n        }      \n    \n    }\n\n    receive() external payable { }\n\n}\n\n\ncontract proofTokenFactory is Ownable {\n\n    address ZERO = 0x0000000000000000000000000000000000000000;    \n\n    struct proofToken {\n        bool status;\n        address pair;\n        address owner;\n        uint256 unlockTime; \n        uint256 lockId;       \n    }\n\n    mapping (address => proofToken) public validatedPairs;\n\n    address public hldAdmin;\n    address public routerAddress;\n    address public lockerAddress;\n    address public hldBurnerAddress;\n\n    event TokenCreated(address _address);\n\n    constructor(address initialRouterAddress, address initialHldBurner, address initialLockerAddress) {\n        routerAddress = initialRouterAddress;\n        hldBurnerAddress = initialHldBurner;\n        lockerAddress = initialLockerAddress;\n        hldAdmin = msg.sender;\n    }\n\n    function createToken(string memory tokenName, string memory tokenSymbol, uint256 initialSupply, address reflectionToken, \n                    uint256 initialReflectionFee, uint256 initialReflectionFeeOnSell, uint256 initialLpFee, uint256 initialLpFeeOnSell,\n                    uint256 initialDevFee, uint256 initialDevFeeOnSell, uint256 unlockTime) external payable {\n\n\n        require(unlockTime >= block.timestamp + 30 days, \"unlock under 30 days\");\n        require(msg.value >= 0.2 ether, \"not enough liquidity\");\n\n        //create token    \n        Fees.allFees memory fees = Fees.allFees(initialReflectionFee, initialReflectionFeeOnSell, initialLpFee, initialLpFeeOnSell,initialDevFee, initialDevFeeOnSell);\n        TokenCutter newToken = new TokenCutter(tokenName, tokenSymbol, initialSupply, msg.sender, reflectionToken, routerAddress, hldAdmin, hldBurnerAddress, fees);\n        TokenCreated(address(newToken));\n\n        //add liquidity\n        newToken.approve(routerAddress, type(uint256).max);        \n        IUniswapV2Router02 router = IUniswapV2Router02(routerAddress);\n        router.addLiquidityETH{ value: msg.value }(address(newToken), newToken.balanceOf(address(this)), 0,0, address(this), block.timestamp);\n\n        // disable trading\n        newToken.swapTradingStatus();\n\n        validatedPairs[address(newToken)] = proofToken(false, newToken.pair(), msg.sender, unlockTime, 0);\n    }\n\n    function finalizeToken(address tokenAddress) public payable {\n        require(validatedPairs[tokenAddress].owner == msg.sender, \"!owner\");\n        require(validatedPairs[tokenAddress].status == false, \"validated\");\n\n\n        address _pair = validatedPairs[tokenAddress].pair;\n        uint256 _unlockTime = validatedPairs[tokenAddress].unlockTime;\n        IERC20(_pair).approve(lockerAddress, type(uint256).max);        \n\n        uint256 lpBalance = IERC20(validatedPairs[tokenAddress].pair).balanceOf(address(this));        \n\n        uint256 _lockId = ITeamFinanceLocker(lockerAddress).lockTokens{value: msg.value}(_pair, msg.sender, lpBalance, _unlockTime);\n        validatedPairs[tokenAddress].lockId = _lockId;\n\n        //enable trading\n        ITokenCutter(tokenAddress).swapTradingStatus(); \n        validatedPairs[tokenAddress].status = true;\n\n    }\n\n    function setLockerAddress(address newlockerAddress) external onlyOwner {\n        lockerAddress = newlockerAddress;\n    }     \n\n    function setRouterAddress(address newRouterAddress) external onlyOwner {\n        routerAddress = payable(newRouterAddress);\n    }    \n\n    function setHldBurner(address newHldBurnerAddress) external onlyOwner {\n        hldBurnerAddress = payable(newHldBurnerAddress);\n    }\n\n    function setHldAdmin(address newHldAdmin) external onlyOwner {\n        hldAdmin = newHldAdmin;\n    }      \n\n}",
  "sourcePath": "/Users/mark/ethereum/projectX/proof-contracts/contracts/ProofFactory.sol",
  "compiler": {
    "name": "solc",
    "version": "0.8.0+commit.c7dfd78e.Emscripten.clang"
  },
  "schemaVersion": "3.4.5",
  "updatedAt": "2022-03-11T03:30:34.699Z",
  "devdoc": {
    "kind": "dev",
    "methods": {
      "allowance(address,address)": {
        "details": "See {IERC20-allowance}."
      },
      "approve(address,uint256)": {
        "details": "See {IERC20-approve}. NOTE: If `amount` is the maximum `uint256`, the allowance is not updated on `transferFrom`. This is semantically equivalent to an infinite approval. Requirements: - `spender` cannot be the zero address."
      },
      "balanceOf(address)": {
        "details": "See {IERC20-balanceOf}."
      },
      "decimals()": {
        "details": "Returns the number of decimals used to get its user representation. For example, if `decimals` equals `2`, a balance of `505` tokens should be displayed to a user as `5.05` (`505 / 10 ** 2`). Tokens usually opt for a value of 18, imitating the relationship between Ether and Wei. This is the value {ERC20} uses, unless this function is overridden; NOTE: This information is only used for _display_ purposes: it in no way affects any of the arithmetic of the contract, including {IERC20-balanceOf} and {IERC20-transfer}."
      },
      "decreaseAllowance(address,uint256)": {
        "details": "Atomically decreases the allowance granted to `spender` by the caller. This is an alternative to {approve} that can be used as a mitigation for problems described in {IERC20-approve}. Emits an {Approval} event indicating the updated allowance. Requirements: - `spender` cannot be the zero address. - `spender` must have allowance for the caller of at least `subtractedValue`."
      },
      "increaseAllowance(address,uint256)": {
        "details": "Atomically increases the allowance granted to `spender` by the caller. This is an alternative to {approve} that can be used as a mitigation for problems described in {IERC20-approve}. Emits an {Approval} event indicating the updated allowance. Requirements: - `spender` cannot be the zero address."
      },
      "name()": {
        "details": "Returns the name of the token."
      },
      "symbol()": {
        "details": "Returns the symbol of the token, usually a shorter version of the name."
      },
      "totalSupply()": {
        "details": "See {IERC20-totalSupply}."
      },
      "transfer(address,uint256)": {
        "details": "See {IERC20-transfer}. Requirements: - `to` cannot be the zero address. - the caller must have a balance of at least `amount`."
      },
      "transferFrom(address,address,uint256)": {
        "details": "See {IERC20-transferFrom}. Emits an {Approval} event indicating the updated allowance. This is not required by the EIP. See the note at the beginning of {ERC20}. NOTE: Does not update the allowance if the current allowance is the maximum `uint256`. Requirements: - `from` and `to` cannot be the zero address. - `from` must have a balance of at least `amount`. - the caller must have allowance for ``from``'s tokens of at least `amount`."
      }
    },
    "version": 1
  },
  "userdoc": {
    "kind": "user",
    "methods": {},
    "version": 1
  }
}